:020000040001F9
:10200000C051002019250100212501001D350100C6
:1020100025250100272501002925010000000000D9
:10202000000000000000000000000000D5250100B5
:102030002D250100000000002F25010031250100A1
:1020400033250100332501005946010033250100E5
:1020500033250100332501009D34010033250100A3
:10206000332501003325010033250100332501000C
:1020700033250100332501003325010033250100FC
:1020800033250100332501003325010033250100EC
:102090006D3501006F3501007135010033250100F8
:1020A00033250100332501003325010033250100CC
:1020B000332501003325010000000000000000006E
:1020C00033250100332501003325010033250100AC
:1020D00033250100332501003325010000000000F5
:1020E00000000000000000000000000000000000F0
:1020F00000000000000000000000000000000000E0
:1021000000000000000000000000000000000000CF
:1021100000000000000000000000000000000000BF
:1024000000F002F800F03CF80AA090E8000C8244CA
:102410008344AAF10107DA4501D100F031F8AFF2A7
:10242000090EBAE80F0013F0010F18BFFB1A43F0B2
:1024300001031847742A0000942A0000103A24BFB0
:1024400078C878C1FAD8520724BF30C830C144BF19
:1024500004680C607047000000230024002500265B
:10246000103A28BF78C1FBD8520728BF30C148BFF7
:102470000B6070471FB502F0D9FC1FBD10B510BD31
:1024800000F06DF81146FFF7F5FF02F00FFA00F0CB
:102490008BF803B4FFF7F2FF03BC00F093F80000E1
:1024A000401E00BF00BF00BF00BF00BF00BF00BF95
:1024B00000BF00BF00BF00BF00BF00BF00BF00BF24
:1024C00000BF00BF00BF00BF00BF00BF00BF00BF14
:1024D00000BF00BF00BF00BF00BF00BF00BF00BF04
:1024E00000BF00BF00BF00BF00BF00BF00BF00BFF4
:1024F00000BF00BF00BF00BF00BF00BF00BF00BFE4
:1025000000BF00BF00BF00BF00BF00BF00BF00BFD3
:1025100000BFC5D1704700000948804709480047FF
:10252000FEE7FEE7FEE7FEE7FEE7FEE7FEE7FEE783
:10253000FEE7FEE704480549054A064B70470000E0
:102540000D43010001240100C0110020C0510020F2
:10255000C0310020C0310020704770477047754679
:1025600000F02CF8AE4605006946534620F00700FF
:10257000854618B020B5FFF7DDFFBDE820404FF0DD
:1025800000064FF000074FF000084FF0000B21F05D
:102590000701AC46ACE8C009ACE8C009ACE8C0092A
:1025A000ACE8C0098D46704710B50446AFF3008013
:1025B0002046BDE81040FFF76CBF000000487047A0
:1025C0006011002001491820ABBEFEE72600020082
:1025D00070470000EFF30881886902380078014AEB
:1025E000104700008527010010B533480068C2B2CB
:1025F000002032490860304898300068C3B202F0C9
:10260000040020B12C48026000202D49087002F01F
:10261000020020B12848026000202949087002F019
:10262000010020B124480260002025490870244898
:10263000007840B9A42B3ED1A420214981F826007E
:102640005520087037E01E48007855280FD100202B
:102650001B490870242B2EDC0846037090F82600D6
:10266000584081F8260000201649087023E01448DD
:1026700090F826005840124981F826000846007854
:102680001049097888420DDA0D4890F8260028B9DB
:1026900001F07AF801200C4908700CE0002008498C
:1026A000087008E0074801780078401C054C20704D
:1026B0000348401C435410BD8024004008210040C2
:1026C00038110020A30A0020900A0020002025498C
:1026D000086025480078002835D024480078002874
:1026E00031D12348007868B1002021490870214980
:1026F000087001202049886020490870A4202049E2
:1027000008602EE018480078801C1A490978884231
:102710000ADB184801780078401C164A10701248ED
:10272000405C174908601CE001201349C860002084
:10273000124908700C49087001200C4908700020EB
:102740000E4908700DE001200B49C86000200B49BC
:1027500008700549087001200449087000200749E5
:10276000087070471C21004010110020990A0020B9
:10277000980A0020A40A0020002000409A0A0020A5
:102780001C25004000BF00BF00BF70472DE9FC4181
:1027900004460F460026A07800F0E005A07820F05F
:1027A000E001A1703E4800784006000E6906090E5F
:1027B000884206D000203A49087020208DF8030096
:1027C0005BE06806000EC02803D120203449087061
:1027D00004E0334800782030314908706806000E64
:1027E00008B946F0010605F0800020B100202C4910
:1027F000087046F0020660785F2810D12278521FD8
:1028000091B2A0783346E21DC9DFC0B28DF8030053
:102810009DF8030038BB50208DF8030023E060785A
:10282000722810D12278521E91B2A0783346E21C51
:10283000C9DFC0B28DF803009DF8030098B950209D
:102840008DF803000FE02278521E91B2A078334633
:10285000E21CC9DFC0B28DF803009DF8030010B977
:1028600050208DF803009DF80300502802D101206C
:10287000BDE8FC8100200A490870A07800F01F0024
:102880008DF8000060788DF8010000208DF80400BC
:102890003A46DDE9000100F005F80020E8E7000015
:1028A000970A002037B51446207818BB9DF804001D
:1028B00078B104202070E02060700021A1709DF8A4
:1028C0000110E1709DF8021021719DF803106171F3
:1028D00010E09DF8030050280CD003202070402009
:1028E00060709DF80010A1709DF80110E1709DF8D6
:1028F0000310217101F0FAF83EBD000003B589B064
:102900000998807800F01F008DF81C000998407825
:102910008DF81D0000208DF81F008DF820000A980A
:1029200010B100210A9801709DF81C00FE49097839
:1029300088420DDBFC480078082803DA09984078C3
:10294000462805D00998407800F0E000E0287DD1C5
:102950009DF81D0063287AD025DCA0F141002028D5
:1029600076D2DFE810F0B3028B02E1025A030703CC
:102970006E03100398036303CE03BB02C302090175
:10298000F200B0007D00CB02750096037500750063
:10299000750075007500DA03E903F9037500C900D5
:1029A00085005A003F037D287ED01CDCA0F1650025
:1029B0001728D5D2DFE810F0EB0361034C004C0080
:1029C0004C004C004C004C004C0055034C00FA03EA
:1029D000C302550017044C00F1034C004C000A04DC
:1029E000290439044704C5287ED00CDCA0F17E0000
:1029F0000728B5D2DFE810F0450450042C0010047D
:102A000000042C005B04E0380528A9D2DFE810F0B0
:102A10005D045E045F04600461040998807800F03E
:102A20006000E0B90998C178007941EA002002907D
:102A30000998807904900998407903909DF81C00CA
:102A4000019002A90EC9D3DFC0B202E0F9E395E319
:102A5000F8E38DF81F009DF81F0000B10DE200BFE4
:102A600000BF00F05DFD50208DF81F000BB000BDD1
:102A70000998C178007941EA00200290099880798C
:102A800004900998407903909DF81C00019002A9D8
:102A90000EC9D3DF09980078401FC0B204909DF89A
:102AA0001C000390099800E0D8E3C21DDDE9030192
:102AB000C8DFC0B28DF81F009DF81F0010B950206C
:102AC0008DF81F00CAE709980078401EC0B2049034
:102AD0009DF81C0003900998C21CDDE90301C8DFC2
:102AE000C0B28DF81F0000E011E39DF81F0010B97F
:102AF00050208DF81F00B1E70998C178007941EAAC
:102B000000200290099880790490099840790390F8
:102B10009DF81C00019002A90EC9D3DF0998007826
:102B2000401FC0B204909DF81C0003900998C21D7C
:102B3000DDE90301C7DFC0B28DF81F009DF81F005B
:102B400010B950208DF81F0088E709980078401EC2
:102B5000C0B204909DF81C0003900998C21CDDE9E6
:102B60000301C7DFC0B28DF81F009DF81F0010B928
:102B700050208DF81F0071E70A9800B96EE79DF8A4
:102B80001C100A9881700998C07878287DD00EDCD6
:102B900054284FD006DC3E2862D051282AD0522833
:102BA00074D113E0612872D07328F9D1ABE0812889
:102BB0006ED006DC79286CD07B286BD07D28EFD1D5
:102BC00011E1822867D08428EAD136E19DF81C0003
:102BD00004900A98C11C0498E7DFC0B28DF81F006A
:102BE0009DF81F0028B902210A98017052210A9805
:102BF000417041E19DF81C0004900A98831D421D1C
:102C000005A90498D4DFC0B28DF81F009DF81F00FD
:102C100078B905210A98017051210A984170BDF8D0
:102C20001400C1B20A98C170BDF8140001120A98CC
:102C3000017121E10A98801CECDFC0B28DF81F0001
:102C40009DF81F0058B908210A98017054210A986C
:102C500041700A98407940F008010A9841710BE1EF
:102C60000A988078C0B90B210A9801703E210A9811
:102C700041702E490A980A6840F8022F4A6842605B
:102C80000A890281897A81721DE021E0F0E01BE06F
:102C900068E07BE093E050E00A98807801280FD14B
:102CA0000A98801CEBDFC0B28DF81F009DF81F0052
:102CB00048B90B210A9801703E210A98417002E040
:102CC00028208DF81F00D7E00A9801F014FCD3E00B
:102CD0009DF81C0004900A98811C0498DCDFC0B2A7
:102CE0008DF81F009DF81F0060B99DF81C0018B1F9
:102CF0000A210A98017002E004210A9801707821E3
:102D00000A984170B8E09DF81C00002204900A98CF
:102D1000C11C0498F9DFC0B28DF81F009DF81F0098
:102D200050B909210A9803E0D00A0020364E01006C
:102D3000017073210A9841709EE09DF81C00049078
:102D40000A98C21C00210498F9DFC0B28DF81F0058
:102D50009DF81F0028B909210A98017082210A985C
:102D6000417089E09DF81C0004900A98C11C0498E9
:102D7000D9DFC0B28DF81F009DF81F0028B90221CD
:102D80000A98017081210A98417075E005A8E4DF76
:102D9000C0B28DF81F009DF81F0078B903210A9872
:102DA000017079210A984170BDF81400C1B20A98E7
:102DB000C170BDF8140001120A9801715CE09DF821
:102DC0001C0004900A98C11C0498F0DFC0B28DF872
:102DD0001F009DF81F0028B97B210A984170092126
:102DE0000A98017048E09DF81C0004900A98C11CE4
:102DF0000498F5DFC0B28DF81F009DF81F00D8B908
:102E00009DF81C0020B1012806D002280CD107E053
:102E100002210A98017007E005210A98017003E079
:102E200014210A98017000BF00BF9DF81C100A9879
:102E300081707D210A9841701EE005A90A98C01C86
:102E4000F7DFC0B28DF81F009DF81F0078B904218C
:102E50000A98017084210A984170BDF81400C1B22B
:102E60000A980171BDF8140001120A98417103E03B
:102E700028208DF81F0000BF00BFEBE20998007802
:102E8000032812DD0998407904900998007903908D
:102E90000998C07802909DF81C00019002A90EC903
:102EA000C2DFC0B28DF81F000FE0099800790490CE
:102EB0000998C07803909DF81C0000230290DDE97A
:102EC0000312C2DFC0B28DF81F00C3E29DF81C00E0
:102ED0000490C3DFC0B28DF81F00BBE29DF81C0058
:102EE0000490C4DFC0B28DF81F00B3E29DF81C004F
:102EF0000490C5DFC0B28DF81F00ABE20998C01C7A
:102F000000F0BEFA049009988079039009984079FE
:102F100002909DF81C000190DDE902230499D3DFA3
:102F2000C0B28DF81F0095E20998C01C00F0A8FA05
:102F300004909DF81C0003900499D1DF8AE209985F
:102F4000007802280CDD0998007904900998C0786F
:102F500003909DF81C000290DDE90312D0DF08E029
:102F60000998C07804909DF81C00002203900499F1
:102F7000D0DF6FE20998C07804909DF81C000390A0
:102F80000499CDDF66E209980078022816DD00205A
:102F900004900DE00998007903900998C078029098
:102FA0000146DDE90320CFDF0498401CC0B2049045
:102FB000FD48017804988142ECDC12E00020049086
:102FC0000AE00998C0780022014603900498CFDFF8
:102FD0000498401CC0B20490F348017804988142E0
:102FE000EFDC37E20998007802280CDD09980079B7
:102FF00004900998C07803909DF81C000290DDE9C8
:103000000312CFDF08E00998C07804909DF81C00F7
:10301000002203900499CFDF1CE20998C078049045
:103020009DF81C0003900499D6DF13E20998C01C98
:1030300000F026FA04909DF81C0003900499D5DF57
:1030400008E29DF81C00082807DA9DF81C0004908F
:103050000998C11C0498CCDF02E028208DF81F00DD
:10306000F8E1FF20DEDF0998C07840F0010004900D
:10307000DDDFC0B28DF81F00ECE10998C07828B1FF
:103080008020DDDFC0B28DF81F0001E08020DEDF90
:10309000E0E1E9DFDEE149DF41F28830FFF700FAE5
:1030A0000998007804280FDD099880790490099820
:1030B000407903900998C0780290099800790190AE
:1030C00002A90EC9EADF1BE00998007803280DDD8C
:1030D0000998407904900998C0780390099800797C
:1030E00000230290DDE90312EADF09E00998C078C5
:1030F00004900998007900231A4603900499EADFA6
:10310000A8E1202001F014FA8DF81F00A2E109982F
:1031100001F08EFA8DF81F009CE10998C0790490A7
:103120009DF81C0003900998C11CDDE90302E0DF53
:10313000C0B28DF81F008DE10998007904900998BC
:10314000C07803909DF81C000290DDE90312E1DFD6
:10315000C0B28DF81F007DE109980078022805D0E3
:103160000020C6DFC0B28DF81F0006E00998C078C5
:103170000490C6DFC0B28DF81F006BE10998C078DB
:1031800004909DF81C0003900499DADF62E109982D
:1031900000F0F8FE8DF81F005CE10998C0780490FB
:1031A0009DF81C0003900499D7DF53E109984079FA
:1031B00004900998007903900998C07802909DF8CE
:1031C0001C00019002A90EC9E2DF43E109980078D2
:1031D000401EC0B2014604900998C01CDBDFC0B29B
:1031E0008DF81F0036E19DF81C000022049009981C
:1031F000C11C0498F8DF2DE19DF81C00049009988B
:10320000C21C00210498F8DF24E10998C01C00F0DA
:1032100037F90490E3DF1DE10998C07804909DF828
:103220001C0003900499D8DF14E10998C078049039
:103230009DF81C0003900499F1DFC0B28DF81F00C7
:1032400008E108E102E19DF81C0004900998C11C06
:103250000498EFDFC0B28DF81F00FBE009984079B9
:1032600004900998007903900998C07802909DF81D
:103270001C00019002A90EC9F2DFC0B28DF81F0038
:10328000E8E09DF81C0004900998C11C0498F3DF45
:10329000C0B28DF81F00DDE09DF81C000490099875
:1032A000C11C0498F4DFC0B28DF81F00D2E0099869
:1032B000001D00F0E5F804900998C0780390049987
:1032C000F6DFC0B28DF81F00C4E000BF00BF00BF32
:1032D00000BF0020049009988178407841EA0020DE
:1032E0000690099840788DF81D00099880788DF82F
:1032F0001E0000208DF81C004EF201320698811A43
:10330000904275D006DCB0F5614F09D0B0F5634F3F
:103310006CD162E0012973D0B1F5807F66D177E08E
:1033200009980179C07841EA0020069006980112B8
:103330000A9841700698C1B20A9881700698B0F553
:10334000634F04D0A0F56340023860BB15E00998D4
:10335000407970B903210A980170E3210A984170FD
:1033600000210A9881700A98C1701F210A98017182
:1033700002E033208DF81F001FE009984079A8B9BA
:1033800004210A980170E3210A98417002210A98E9
:10339000817000210A98C170BF210A9801710F2124
:1033A0000A98417105E005E0D00A002033208DF82D
:1033B0001F0002E00120049000BF00BF9DF81F0025
:1033C00050B10998C0788DF81D00099800798DF8E2
:1033D0001E0001208DF820002DE00998C078039090
:1033E00000F0D4FB8DF81F0025E001E020E007E0AD
:1033F0000998C078039000F0D9FB8DF81F001AE0FF
:103400000998C078039000F0A7FB8DF81F0012E028
:103410000998C07810B9002047DF08E00998C07803
:10342000012801D147DF02E033208DF81F0002E0C0
:103430000120049000BF00BF049818B128208DF827
:103440001F0002E001208DF8200003E028208DF805
:103450001F0000BF02E028208DF81F009DF81F000C
:10346000062802D128208DF81F000A9808B9FFF716
:10347000FDBA0A9ADDE90701FFF714FA00BFF6E783
:1034800008B5014611F8010B8DF8000008788DF899
:103490000100BDF8000008BD0168704710B500F0DC
:1034A000B5F810BD10B5062001F0BAFB062001F0FA
:1034B0009FFB0548007830B10020044908600021D6
:1034C0000248001D016010BD9C0A002010650040EC
:1034D00010B5062001F0A4FB062001F089FB0A4884
:1034E000007848B109480A4908600A490848001D9F
:1034F00001600120084908600721062001F06CFCEA
:10350000062001F0FDFB10BD9C0A0020010702000F
:1035100010650040010601000463004000BFFEE7A3
:103520000120014908707047930A002000BF00BFC6
:1035300000BFBFF34F8F00BF00BF00BF0948006846
:1035400000F4E06008490843001D0649086000BF18
:1035500000BF00BFBFF34F8F00BF00BF00BF00E040
:1035600000BFFDE70CED00E00000FA057047704772
:1035700008B500BF684652DF0528FBD1012001498C
:10358000087008BD910A002000B502460B46112ABA
:1035900005D0052A03D0062A01D0352A1BD10E48B2
:1035A0000078FF280DD0987800F01F000A490978AC
:1035B000884201D0352A04D1FF200749087000F065
:1035C00095FA112A02D10020187004E0062A02D1CF
:1035D00000200249087000BD960A0020970A0020CA
:1035E00000BF064800780028FBD105480549097846
:1035F00050F8210004490860704700009A0A002032
:10360000644E0100A20A00202425004010B5514854
:10361000007800285AD050480068C8B14F48006868
:1036200000F00100A0B14B48007870B14C48006830
:10363000C0F3801048B94A480C38006840F4805004
:1036400047490C390860FFF771FF002042490860C4
:103650004148001D006858B14048006800F0020071
:1036600030B100213C48001D016001203D49087037
:1036700039487C300068002867D03B480068C0F3B8
:103680000140032802D101203849087036480068FB
:10369000C0F30140022801D1344908703248001DAE
:1036A0000068C0F30140032802D1012030490870AE
:1036B0002D48001D0068C0F30140022801D12C49AB
:1036C0000870002024497C3108603EE024480068EE
:1036D00000F0400088BB2248006800F0800050B92C
:1036E00000201D497C3108600846FFF7D5FE062002
:1036F00001F07EFA10BD00211B480160001D016031
:10370000002015497C3108600846FFF7C5FE0620F9
:1037100001F06EFA4FF000401649C1F80403124858
:10372000001D006840F440310F48001D0160FFF7A4
:10373000B3FE00F08BFF00F0AFFE07487C3000685E
:1037400018B1002004497C310860062001F050FACD
:1037500000BFCFE79C0A00200061004004630040E6
:10376000100500509E0A0020180700509F0A0020F4
:10377000A00A002000600040004870473811002077
:1037800000487047101100200120094908700948BD
:10379000007858B9042008490860401F07490860AC
:1037A0000748006840F480500549086070470000F1
:1037B0009B0A00209C0A00200823004008250040A6
:1037C0000405005010B50021B0480160FFF764FE09
:1037D0000020AF490870AF490870AF490870AF4981
:1037E0000870AF490870AF490870AF490870AF481A
:1037F000006800F4807000287DD00120A84908707E
:10380000AB48006820F00100A9490860032001F0DE
:1038100007FA032001F0ECF900219C48001F016029
:10382000001F0160A1480C38006840F480509F4997
:103830000C39086003219548103001604FF4006096
:103840009A4908390860032190480C3001608F487C
:10385000243001600021001F01600B2094490831D1
:103860000860112192480C3001601021001D016098
:1038700007208F49543108600021844818300160C6
:103880008A48006800F4804028B14FF080408849A1
:103890002431086004E04FF000608549243108605D
:1038A0008348006840F00100814908603BE0062041
:1038B00001F0B6F9062001F09BF97E497E480160CF
:1038C00002207E49086000217D48C0F804110721CC
:1038D000062001F081FA062001F012FA00214FF0D3
:1038E000A040C0F8181700207549C1F87C01880471
:1038F0007249086000E03CE04FF0A040D0F81807A3
:1039000040F4003161480838016068480C380068AC
:1039100020F4805065490C39086048DF0020684970
:10392000C1F87C0149DF61480068C0F380100028BD
:10393000BDD0092001F074F9092001F059F94FF4C4
:1039400070206049086000205F490860091D086018
:1039500004205D490C31086032205C490880022057
:103960005749C1F8080301204F49087000F046FA92
:1039700085E000204A49087055490860022001F09E
:103980004FF9022001F034F98420524908600120E7
:103990005149C860486007205049087000214FF025
:1039A000A040C0F83C17C0F82C17C0F838173748AB
:1039B0001830FFF771FD3D480068C0F3C03047493B
:1039C00008703A48006800F4006008B1022000E086
:1039D000002042490978084340490870334800688C
:1039E00000F4804008B1042000E000203B49097841
:1039F00008433A49087000212448001F0160001F55
:103A000001602248203001600321001D01601F4831
:103A10001030016010202E491431086011202C490B
:103A20000C3108600C20091F0860012028496C3106
:103A300008602B482949097850F82100244924318D
:103A4000086004202249086080202249091F08607C
:103A500004202149C1F804030321022001F0BCF92C
:103A6000022001F04DF90721062001F0B5F90620EA
:103A700001F046F901200C49087000F0BFF9002060
:103A8000184908701849087010BD00002007005040
:103A9000980A0020990A00209A0A00209B0A002018
:103AA0009C0A00209E0A00209D0A0020100500505C
:103AB0000035004001060100146500400463004029
:103AC000006000400893004004950040B00A0020C8
:103AD000002500400823004000200040A10A0020EB
:103AE000444E010038110020101100200020074929
:103AF00008700748007840B9002006490870042083
:103B0000054908600C200549086070479B0A0020A1
:103B10009C0A0020381100200423004008250040A2
:103B200010B50B48007840B100F0D6FB70B100F042
:103B300065F900F041FA012010BD0648006800F068
:103B4000800018B900F05AF90020F5E70120F3E7EA
:103B50009C0A00201005005001460A4801700078B8
:103B60000C280CDA074802780120904040F6BF721A
:103B7000104020B10120044A10700020704733200B
:103B8000FCE70000A20A0020950A00200146042953
:103B900001DD33207047034850F82100024A1060CD
:103BA0000020F7E7944E010024350040014601EB68
:103BB00081004000014A108000207047B00A0020B8
:103BC00010B501204149087041480078E8B14ADF4A
:103BD000FFF768FC3F48006820F001003D4908609D
:103BE0003D48007800286FD100213C48016000204A
:103BF0003B49086048073B49C1F80403374800685F
:103C000040F44031354801605EE0042036490860E8
:103C1000401F364908603648006840F480503449F7
:103C200008600120334948604ADF00202F490839E5
:103C300008603149086031490860002427E02748BE
:103C40001C3850F8240000F44030A8B10120A040F6
:103C50002949096808432849086020481C3850F859
:103C60002400C0F30140022806D10120A0402349CE
:103C7000096808432149086018481C3850F8240096
:103C800081B216481C3840F82410601CC4B2202CA5
:103C9000D5DB00211148001F0160001D01600020DC
:103CA0000F49086048070F49C1F804030B48006832
:103CB00040F4403109480160001F006840F4403181
:103CC0000648001F016000BF10BD00009D0A0020D3
:103CD0009C0A0020003500409B0A00201C07005071
:103CE0007C6100400060004008230040082500403F
:103CF0000405005000200040AC0A0020A80A002063
:103D000010B52948007810B100F078F809E027488C
:103D1000007828B12648006840F4805024490860A3
:103D200010BD2448007800283BD1012022490870AA
:103D300000202249087001201E490870A4201A4959
:103D400081F8260000201E4908700FE0164890F800
:103D5000260015491A4A1278895C4840124981F8B0
:103D6000260017480078401C154908700E48007856
:103D7000401C134909788842E8DA0B4890F826106D
:103D80000278801C81540948007810B100F062F973
:103D900007E0FEF79BFC00BF48DF034800780028DF
:103DA000FAD100BFBCE70000101100209C0A0020DF
:103DB000040500509A0A0020980A0020990A002061
:103DC000A40A002010B50B48006830B10A4800680A
:103DD00000F0040008B1FEF707FC06481430006844
:103DE00030B10548006800F0800008B1FEF76EFCB5
:103DF00010BD0000082100400423004010B55048C9
:103E00000078002835D000204D4908704D480078D2
:103E100080B34D48006800F4403070B14B480068F2
:103E2000C0F3801048B949480C38006840F480500D
:103E300046490C390860FFF779FB4FF000404449D0
:103E4000086000214FF0A040C0F81C17C0F81817F8
:103E500000204049C1F87C013F4908703F49087083
:103E600049DF3F48006840F001003D490860FFF726
:103E70002FFB64E0FFE74FF0004035490860002465
:103E80002CE038480068E04000F00100D8B1364826
:103E90000068E04000F0010050B12B481C3850F899
:103EA000240040F4003128481C3840F8241013E066
:103EB00025481C3850F8240040F4403122481C3872
:103EC00040F8241008E020481C3850F8240081B243
:103ED0001D481C3840F82410601CC4B2202CD0DBD4
:103EE00000211948001F0160001D016000201F49CA
:103EF000086048071749C1F804031348006840F4F4
:103F0000003111480160001F006840F440310E4844
:103F1000001F016000201649087049DF0420154980
:103F200008600120144908601448007830B9042062
:103F3000134908600C200F490831086000BF10BD0C
:103F40009D0A00209C0A00201C070050100500500C
:103F500008630040006000409F0A0020A00A002083
:103F600000350040AC0A0020A80A00207C61004017
:103F70003811002000250040002000409B0A00204E
:103F80000423004070B50446601D00F0A9FA607972
:103F900018B9A07908B901216171E178E17121793D
:103FA0002172601DFFF76CFA0546237AE279A0784A
:103FB0002946D3DFC0B270BD70B501201F4908701B
:103FC000A52000F075F8FF2000F072F8044684F098
:103FD000A505242C00DA34B91948006840F4805053
:103FE0001749086070BD00201649087010E0FF20D6
:103FF00000F05EF81449134A1278885408461149B3
:104000000978405C45400F480078401C0D49087015
:104010000C480078A042EADD01200C490870FF201E
:1040200000F046F8454025B9FFF7AEFB01200849EE
:1040300008700548401E047000BFD3E7980A0020AE
:1040400004050050A30A002039110020990A00201D
:10405000900A002070B501201149087011480578B8
:10406000002010490870A42000F022F8284600F033
:104070001FF8681CC5B20B4C641C00BF14F8010B80
:1040800000F016F8681EC0B2051EF7D101200649DF
:104090000870207800F00CF800200449087070BD0A
:1040A000980A002010110020990A00209A0A002086
:1040B00070B50446002500F015F80848046000BFFC
:1040C000074800680028FBD0002005490860034825
:1040D000001F0068C5B2284670BD00001C350040B6
:1040E0000831004010B56D48007870B100206B4970
:1040F000087000216A48016002206A4908606A4825
:10410000006820F4805068490860684800780028FA
:104110007ED101206649C86066480088664908600B
:10412000002066490860012061490860002400BF42
:104130006248006800286CD05C480078002868D18C
:10414000012400215E480160002055497831086053
:1041500048075C49C1F804035948006840F44031FD
:10416000574801604ADFFFF79DF96AE048DF4C4895
:104170007830006818B954480078012861D10020CF
:104180004749783108605049087000214FF0A0403D
:10419000C0F81817C0F81C1700204A49C1F87C0164
:1041A000062000F025FD4FF000403E4908604FF02A
:1041B000A040D0F8180740F40031414801603A4867
:1041C0000C300068C0F3C01038B13D48001D0068D5
:1041D00040F440313A48001D016028E048DF304893
:1041E0007830006838B938480078022803D037485A
:1041F000007801281BD100202949783108602A481D
:104200000C300068C0F3C01088B92D48001D01E0D3
:1042100030E01AE00068C0F30140032807D12248CB
:10422000006840F4805020490860FFF77FF91E487D
:104230000C300068C0F380100028CFD001201B494B
:1042400008701A480078002890D018480078002894
:104250003FF46EAF14480C300068C0F380100028A3
:10426000F6D024B101201A490870FFF7C7FD0120DC
:104270000F49486000200D4908701648007860B169
:1042800000201449087002200649091D08600648EC
:10429000006840F480500449086010BD980A00206E
:1042A0000461004004630040040500509E0A0020A1
:1042B00000900040B00A002040950040409100402E
:1042C00018070050006000409F0A0020A00A00204C
:1042D0009D0A0020990A00200648007808B10020B5
:1042E000704705480068C0F3C01008B90120F7E71F
:1042F0000020F5E79B0A0020100500500148024904
:10430000086070470090D003B40A002010B500F098
:1043100001FA10B157485849486700F013FA28B11C
:1043200056480068C0F342305549086000F034FA3E
:1043300028B15448006820F080705249086000F0AD
:1043400043FA48B10020504908604FF08041C1F85D
:1043500010014B49091F086000F060FA18B10320F2
:1043600047496431086000F071FA68B10520474997
:104370000860012045497831086000204349083130
:1043800008603F20091F086000F078FA002855D027
:104390003F4800683F4908603D48001D0068091D0E
:1043A00008603B4808300068091D086038480C3038
:1043B0000068091D0860364810300068091D086053
:1043C000334814300068091D08603148183000680F
:1043D0003049203108602E481C300068091D0860F3
:1043E0002B4820300068091D0860294824300068E7
:1043F000091D0860264828300068091D0860244807
:104400002C300068091D08602148303000682149BF
:10441000403108601E4834300068091D08601C489F
:1044200038300068091D086019483C300068091DD3
:104430000860174840300068091D0860114874384A
:10444000006840F470000F497439086000BF00BF75
:1044500000BFBFF34F8F00BF00BF00BF00BF00BF52
:1044600000BFBFF36F8F00BF00BF00BFFFF746FF65
:1044700010BD00000DF0ADBA00C0074044020010AE
:104480003C050040FCED00E00C01004010560040EF
:104490000404001020C5004070B50948007870B1D0
:1044A0003CDF044600BF254635B100BF05A28B2185
:1044B000284600F02DF900BF00BF00BFFEE770BD29
:1044C000B20A00202E2E5C2E2E5C636F6D6D6F6E17
:1044D0005C7372635C73797374656D2E63000000A6
:1044E0004FF08052116E01700A0A42700A0C8270FD
:1044F0000A0EC270704700B5034604201870612090
:104500005870981CFFF7ECFF00BD00000020064922
:1045100008600549103108600448006840F0100048
:1045200002490860704700000405005010ED00E0EB
:1045300016483EDF044600BF254635B100BF14A231
:104540005E21284600F0E4F800BF00BF00BF00BFB6
:1045500000BF00BF00BF00BF00BFBFF34F8F00BF51
:1045600000BF00BF1148006800F4E0601049084334
:10457000001D0E49086000BF00BF00BFBFF34F8F92
:1045800000BF00BF00BF00E000BFFDE70F0001005B
:104590002E2E5C2E2E5C636F6D6D6F6E5C7372637E
:1045A0005C73797374656D2E630000000CED00E0A0
:1045B0000000FA05F8B50546002468463DDF0646CA
:1045C00000BF374637B100BF12A24221384600F083
:1045D0009FF800BF00BF009800F0080008B144F049
:1045E0002004009800F0040008B144F02004009872
:1045F00000F0020008B144F00204009800F001004D
:1046000008B144F00104AC70012028706F2068707C
:10461000F8BD00002E2E5C2E2E5C636F6D6D6F6EEC
:104620005C7372635C73797374656D2E6300000054
:1046300001460878012802D1034A107001E02820C1
:1046400070470020FCE70000B20A00200120014969
:1046500008707047B20A002010B5FFF7B3FB10BD19
:104660000146202908DA012088400A4A104008B192
:10467000012070470020FCE7402909DAA1F1200061
:10468000012202FA00F008B10120F2E70020F0E771
:104690000120EEE7FC06FFBC0146202908DA0120D4
:1046A00088400A4A104008B1012070470020FCE70A
:1046B000402909DAA1F12000012202FA00F008B134
:1046C0000120F2E70020F0E70120EEE7FC06FFBC46
:1046D0000146082901D30020704729B1012903D0E0
:1046E000042901D0052901D10020F5E70120F3E7D5
:1046F0000146082901D30020704729B1012903D0C0
:10470000042901D0052901D10020F5E70120F3E7B4
:1047100000BFFEE70A48007806280ED10848001DB1
:10472000007800F00F0040B905480830007800F02C
:10473000F000302801D1012070470020FCE7000084
:10474000E00F00F013480078062820D11148001D22
:10475000007800F00F00D0B90E480830007800F063
:10476000F000302801D1012070470A480830007855
:1047700000F0F000402801D10120F5E7054808309D
:10478000007800F0F000502801D10120ECE7002073
:10479000EAE70000E00F00F00A48007806280ED192
:1047A0000848001D007800F00F0040B905480830A7
:1047B000007800F0F000302801D10120704700207F
:1047C000FCE70000E00F00F013480078062820D135
:1047D0001148001D007800F00F00D0B90E480830D5
:1047E000007800F0F000302801D1012070470A481D
:1047F0000830007800F0F000402801D10120F5E7F2
:1048000005480830007800F0F000502801D1012060
:10481000ECE70020EAE70000E00F00F00A4800782B
:1048200006280ED10848001D007800F00F0040B99E
:1048300005480830007800F0F000302801D1012050
:1048400070470020FCE70000E00F00F00A48007805
:1048500006280ED10848001D007800F00F0040B96E
:1048600005480830007800F0F000302801D1012020
:1048700070470020FCE70000E00F00F00A480078D5
:1048800006280ED10848001D007800F00F0040B93E
:1048900005480830007800F0F000502801D10120D0
:1048A00070470020FCE70000E00F00F008B5AE48BC
:1048B000002101604160816001208DF8000000202E
:1048C0008DF801008DF8020005208DF80300A7A2E5
:1048D000B049684610DFB049086000BF0846036869
:1048E0002BB100BFADA2B3211846FFF711FF00BFE7
:1048F0000721142000F048FAA749086000BF0846C5
:1049000003682BB100BFA5A2BF211846FFF700FF27
:1049100000BF0321152000F037FA9F49086000BF4F
:10492000084603682BB100BF9CA2C6211846FFF7BA
:10493000EFFE00BF0721162000F026FA9649086016
:1049400000BF084603682BB100BF94A2CD211846D2
:10495000FFF7DEFE00BF142000F08EF98E490860DC
:1049600000BF084603682BB100BF8CA2D0211846B7
:10497000FFF7CEFE00BF152000F07EF986490860E3
:1049800000BF084603682BB100BF84A2D32118469C
:10499000FFF7BEFE00BF162000F06EF97E490860EA
:1049A00000BF084603682BB100BF7CA2D621184681
:1049B000FFF7AEFE00BF0F207B49087048707B48B0
:1049C000486040F2336008810846FADF72490860A7
:1049D00000BF084603682BB100BF70A2DF21184654
:1049E000FFF796FE00BF7248ECDF6B49086000BF1E
:1049F000084603682BB100BF68A2E3211846FFF701
:104A000087FE00BF6A48007867490870002069493E
:104A100008706949087069490870694908706949EE
:104A20000870FF20684908700020684908706849CC
:104A30000870FFF76BFDFEF7C5FEFEF79DFE6549AA
:104A40000860FEF79DFE6449086001205D4908701A
:104A500061480068FFF7AEFD60483EDF4E490860E0
:104A600000BF084603682BB100BF4CA2FB211846CB
:104A7000FFF74EFE00BF76E0012059490870FFF7AE
:104A80004FF8584908705148007828B100204F4924
:104A90000870FEF7A5FD59E04A48007828B10020CB
:104AA000484908704E49087050E04248007860B1AB
:104AB0000020404908704848016846480068FDF7F2
:104AC0001DFF00204649087040E03B48007810B9BF
:104AD0003A48007818B33948007828B90020364998
:104AE00008700120354908703B483F4902683F483B
:104AF000C1DF294908600846006848B93A4800788B
:104B000030B13548016838480078FEF73DFD02E0D5
:104B100000202A49087000203149087016E0284812
:104B2000007898B10020264908702B480168294870
:104B30000068FDF72BFE30B126480068807800F051
:104B40001F0021490870002025490870FFF7D8F898
:104B50002348007838B12348007808B1FFF730F8CF
:104B6000FFF79AFC48DF87E7C40A00203338333167
:104B70002D353231642D376466392D323464382D49
:104B8000656666332D343637622D323235662D61D7
:104B900030306500294E0100800A00207372635C8A
:104BA0006D61696E2E630000D00A0020DC0A0020CF
:104BB000B80A0020900A0020910A0020920A0020E2
:104BC000930A0020940A0020960A0020950A0020EB
:104BD000970A0020880A00208C0A00200F0001009C
:104BE000860A0020870A0020850A0020840A002007
:104BF00010B504462046FFF74FFD58B100BF04F042
:104C00001F01012088400549620941F8220000BFC8
:104C1000002010BD42F20100FBE7000080E200E04E
:104C200010B504462046FFF737FD10B942F20100E7
:104C300010BD0F48806868B160090D4951F8200027
:104C400004F01F020121914088436109084A42F89B
:104C500021000AE000BF04F01F010120884005493F
:104C6000620941F8220000BF00BF0020E0E7000019
:104C7000C40A002080E100E070B504462046FFF73A
:104C8000EFFC10B942F2010070BD2046002806DAA0
:104C9000184900F00F02121F895C490902E0164909
:104CA000095C49090D462846FFF712FD10B942F28A
:104CB0000200E9E71148806868B160090F4951F8BE
:104CC000200004F01F0201219140084361090B4AB2
:104CD00042F821000CE000BF04F01F0101208840D1
:104CE0006109890001F1E021C1F8000100BF00BFA6
:104CF0000020C9E718ED00E000E400E0C40A00204D
:104D000070B504462046FFF7C7FC10B942F2010017
:104D100070BD2046002806DA184900F00F02121F65
:104D2000895C490902E01649095C49090D46284693
:104D3000FFF7DEFC10B942F20200E9E71148806893
:104D400068B160090F4951F8200004F01F020121E9
:104D50009140084361090B4A42F821000CE000BF72
:104D600004F01F01012088406109890001F1E02160
:104D7000C1F8000100BF00BF0020C9E718ED00E046
:104D800000E400E0C40A002070B504460D46204649
:104D9000FFF766FC10B942F2010070BD2846FFF72C
:104DA00097FC10B942F20200F7E720462946002896
:104DB00007DA4A07160E064A00F00F031B1FD654E7
:104DC00003E04A07130E034A135400BF0020E4E730
:104DD00018ED00E000E400E070B504460D46204602
:104DE000FFF75AFC10B942F2010070BD2846FFF7E8
:104DF0007FFC10B942F20200F7E72046294600285E
:104E000007DA4A07160E064A00F00F031B1FD65496
:104E100003E04A07130E034A135400BF0020E4E7DF
:104E200018ED00E000E400E000BFFEE74FF0407046
:104E3000E1EE100A7047424846312E3030423030A1
:104E40000000000000B0130000509D0000A04E00C4
:104E500000F0EB0000E0D7010050270000D009006F
:104E600000F0EB0000F0040000D0090000B01300D7
:104E70000050270000A04E0000509D0000000000E0
:104E800000F0EB0000E0D70100B0AF0300705F0757
:104E900000D0BE0E0000000800000010000000203E
:104EA0000000004000000080C84E0100800A002081
:104EB000380000003C240100004F0100B80A002027
:104EC0000847000058240100000000000000000016
:104ED00000000000000000000000000000000000D2
:104EE00000000000000000000007000000000000BB
:104EF0000000000000000000000000000090D0034F
:0400000500012401D1
:00000001FF
