:020000040000FA
:1000000000040020F509000089060000D509000061
:10001000930600009D060000A706000000000000F7
:10002000000000000000000000000000190A0000AD
:10003000B106000000000000BB060000C50600007D
:10004000CF060000D9060000E3060000ED06000020
:10005000F7060000010700000B070000150700006D
:100060001F07000029070000330700003D070000BC
:1000700047070000510700005B070000650700000C
:100080006F07000079070000830700008D0700005C
:1000900097070000A1070000AB070000B5070000AC
:1000A000BF070000C9070000D3070000DD070000FC
:1000B000E7070000F1070000FB070000050800004B
:1000C0000F08000019080000230800002D08000098
:1000D00037080000410800004B08000055080000E8
:1000E0005F08000069080000730800007D08000038
:1000F00087080000910800009B080000A508000088
:10010000AF0800001FB500F003F88DE80F001FBD19
:1001100000F066BC10B54FF010208069401C20B183
:100120004FF01021886900F089FA10BDFC4A01687F
:100130001160121D41681160F94A10328168116026
:10014000121DC168116070471FB56FF0010000906B
:1001500040100390029001904FF010208069040B32
:1001600060095DF8200004F01F02012191408843DE
:1001700061094DF821006846FFF7D8FF1FBD2DE942
:10018000F04105460C461646002706E02846216841
:1001900000F066FA2D1D241D7F1CB742F6D3BDE882
:1001A000F08170B504460B464FF6FF710A4618E021
:1001B000B3F5B47F02D340F2671500E01D46284630
:1001C0001B1A00BF34F8026B751829462A44451ED5
:1001D0002800F7D18DB205EB114195B205EB124223
:1001E00000BF002BE4D188B200EB114190B200EBCC
:1001F000124241EA024070BD92B00446C94903C9A7
:10020000CDE90001FF22402102A800F08FFB0FCCB6
:10021000CDE90423CDE9020102A9202208465508B0
:1002200001EB850304E080C81D461B1F45F8047CD4
:100230009842F8D100BF102102A8FFF7B2FF00904A
:10024000AA208DF80400FFF77FFFFFF763FF4FF050
:100250001021896901F18000102202A9FFF78FFFA8
:100260004FF01021886908226946FFF788FF00F0E7
:10027000C9F901464FF0805000694FF08052526931
:1002800050430A68904201D8102070470020FCE7D4
:100290000146D1E9000200EB82024FF08050006974
:1002A0004FF080535B69584382420DD84FF01020C5
:1002B000406904234A6803FB0202980600699B0612
:1002C0005B695843824201D9092070474FF01020E2
:1002D0004069401C08B90F20F7E70020F5E770B52A
:1002E00005460C462E460BE0304600F0A7F9B4F563
:1002F000806F01D2002401E0A4F5806406F58056E9
:10030000002CF1D170BD2DE9F0410446206806288B
:100310006BD2DFE800F040031A305122A668E5688E
:10032000676829463046FFF7DAFF2A4639463046E5
:10033000FFF725FFAA003946304600F0CBFA10B986
:100340000020BDE8F0810320FBE700F07BFB4FF4C9
:100350008050754908600020F3E7201DFFF789FFF2
:1003600005460DB12846ECE700F06CFB6E4960686D
:1003700008600020E5E76568E668A768B2003946CE
:10038000284600F0A7FA8046B8F1000F01D10020FE
:10039000D7E70E20D5E74FF010208069401C08B940
:1003A0000420CEE7201DFFF773FF05460DB1284658
:1003B000C7E72046FFF720FF4FF010208069401C60
:1003C00008B90420BDE7201DFFF753FF05460DB116
:1003D0002846B6E7606828B9FFF7B6FEFFF79AFE31
:1003E00000F010F92046FFF707FF0720A9E770B5D6
:1003F00005460C46182D04D12068FFF784FF2060C5
:1004000002E00120206000BF00BF70BD2DE9FF4762
:1004100005464FF010204669A86806EB80074FEAB2
:10042000163807F6FF704FEA10390020009001904F
:100430000290039000BF0BE041095DF8211000F02D
:100440001F0301229A40114342094DF82210401C1B
:100450004045F1D348460BE041095DF8211000F01A
:100460001F0301229A40114342094DF82210401CFB
:100470008028F1D34FF010208069040B60095DF8EB
:10048000200004F01F0201219140884361094DF8CA
:1004900021006846FFF74AFEBDE8FF872DE9F041DD
:1004A00004464FF010204569A6686768B2003946D7
:1004B000284600F00FFA10B10020BDE8F0810120BD
:1004C000FBE70446606808B1012000E00020074611
:1004D0002046FFF7E3FF28B1FFF736FEFFF71AFECD
:1004E00000F090F82046FFF791FFBFB14FF01020C9
:1004F000D0F81480A5686668B6F5002F0BD2B5F564
:10050000002F08D229464046FFF7E9FE2A46314629
:100510004046FFF734FEFFF7FDFD00BF00F072F824
:1005200000060040680A00000000002004466568DC
:100530003C480560006800F05FFA4FF010208069C9
:10054000401C002843D04FF01020806900F1800447
:100550004FF0102085692879AA2837D1102120462C
:10056000FFF71FFE07462868B8422BD14FF0102036
:10057000806900F18001202208464FEA520C01EB0D
:100580008C0601230EE053B150F8049BB446361F8D
:100590005CF804CCE14502D14FF0010C01E04FF0D2
:1005A000000C6346B042EED163B1206810B104285C
:1005B00006D102E02046FFF784FF2046FFF7B6FF92
:1005C00000BFFEE7FFF7A6FD00F01CF800BF4FF0EC
:1005D00010204069401C50B14FF010204069006865
:1005E000401C20B14FF01021486900F005FA4FF48B
:1005F00080500068401C08B900BFFEE74FF48050EF
:1006000000F0FAF9BFF34F8F0748006800F4E0608C
:1006100006490843001D04490860BFF34F8F00BF1F
:10062000FEE70000000000200CED00E00000FA05ED
:1006300000BF134800680028FBD0704700B5014692
:100640000220104A1060FFF7F3FF0E48001D016002
:10065000FFF7EEFF00200B4A1060FFF7E9FF00BD37
:1006600000B502460120074B1860FFF7E1FF11605B
:10067000FFF7DEFF0020034B1860FFF7D9FF00BD36
:1006800000E4014004E5014008208F490968095849
:10069000084710208C4909680958084714208A49DE
:1006A0000968095808471820874909680958084700
:1006B0003020854909680958084738208249096867
:1006C000095808473C2080490968095808474020D4
:1006D0007D4909680958084744207B490968095839
:1006E0000847482078490968095808474C20764946
:1006F000096809580847502073490968095808478C
:100700005420714909680958084758206E490968FA
:10071000095808475C206C49096809580847602057
:1007200069490968095808476420674909680958F0
:100730000847682064490968095808476C206249DD
:1007400009680958084770205F490968095808472F
:1007500074205D4909680958084778205A49096892
:10076000095808477C2058490968095808478020DB
:1007700055490968095808478420534909680958A8
:100780000847882050490968095808478C204E4975
:1007900009680958084790204B49096809580847D3
:1007A000942049490968095808479820464909682A
:1007B000095808479C204449096809580847A0205F
:1007C0004149096809580847A4203F490968095860
:1007D0000847A8203C49096809580847AC203A490D
:1007E000096809580847B020374909680958084777
:1007F000B4203549096809580847B82032490968C2
:1008000009580847BC203049096809580847C020E2
:100810002D49096809580847C4202B490968095817
:100820000847C8202849096809580847CC202649A4
:10083000096809580847D02023490968095808471A
:10084000D4202149096809580847D8201E49096859
:1008500009580847DC201C49096809580847E02066
:100860001949096809580847E420174909680958CF
:100870000847E8201449096809580847EC2012493C
:10088000096809580847F0200F49096809580847BE
:10089000F4200D49096809580847F8200A490968F1
:1008A00009580847FC2008490968095808475FF4B7
:1008B0008070054909680958084700000348044941
:1008C000024A034B7047000000000020780A000035
:1008D000780A000040EA010310B59B070FD1042AF3
:1008E0000DD310C808C9121F9C42F8D020BA19BAFB
:1008F000884201D9012010BD4FF0FF3010BD1AB160
:10090000D30703D0521C07E0002010BD10F8013BB4
:1009100011F8014B1B1B07D110F8013B11F8014BDB
:100920001B1B01D1921EF1D1184610BD02F0FF032E
:1009300043EA032242EA024200F005B870477047DA
:1009400070474FF000020429C0F0128010F0030C31
:1009500000F01B80CCF1040CBCF1020F18BF00F8B2
:10096000012BA8BF20F8022BA1EB0C0100F00DB861
:100970005FEAC17C24BF00F8012B00F8012B48BFBF
:1009800000F8012B70474FF0000200B51346944663
:100990009646203922BFA0E80C50A0E80C50B1F1D7
:1009A0002001BFF4F7AF090728BFA0E80C5048BFEB
:1009B0000CC05DF804EB890028BF40F8042B08BF89
:1009C000704748BF20F8022B11F0804F18BF00F885
:1009D000012B7047014B1B68DB68184700000020A3
:1009E00009480A497047FFF7FBFFFFF78BFB00BD83
:1009F00020BFFDE7064B1847064A1060016881F3E7
:100A00000888406800470000780A0000780A000063
:100A10003B050000000000201EF0040F0CBFEFF3A8
:100A20000881EFF30981886902380078182803D11A
:100A300000E00000074A1047074A12682C3212688B
:100A40001047000000B5054B1B68054A9B589847A6
:100A500000BD0000EF03000000000020640A000059
:100A600004000000001000000000000000FFFFFF75
:040A70000090D0031F
:10100000080A002059D000006D560000A9CF00004A
:101010006D5600006D5600006D5600000000000087
:10102000000000000000000000000000B5D000003B
:101030006D560000000000006D5600006D56000067
:101040001DD1000023D100006D5600006D56000038
:101050006D5600006D5600006D5600006D56000084
:1010600029D100006D5600006D5600002FD1000000
:101070006D56000035D100003BD1000041D1000089
:101080006D5600006D5600006D5600006D56000054
:101090006D5600006D5600006D5600006D56000044
:1010A00047D100004DD100006D5600006D56000084
:1010B0006D5600006D5600006D5600006D56000024
:1010C00053D100006D5600006D5600006D560000B3
:1010D0006D5600006D5600006D5600006D56000004
:1010E0006D5600006D5600006D5600006D560000F4
:1010F0006D5600006D5600006D5600006D560000E4
:101100006D5600006D56000000F002F80BF081FFF4
:101110000AA090E8000C82448344AAF10107DA4552
:1011200001D10BF076FFAFF2090EBAE80F0013F011
:10113000010F18BFFB1A43F00103184760C10000FC
:1011400080C100000A444FF0000C10F8013B13F07E
:10115000070408BF10F8014B1D1108BF10F8015B10
:10116000641E05D010F8016B641E01F8016BF9D103
:1011700013F0080F1EBF10F8014BAD1C0C1B09D15A
:101180006D1E58BF01F801CBFAD505E014F8016BCC
:1011900001F8016B6D1EF9D59142D6D3704700005E
:1011A0000023002400250026103A28BF78C1FBD870
:1011B000520728BF30C148BF0B6070471FB500F011
:1011C000B5F88DE80F001FBD8269034981614FF0BA
:1011D0000100104470470000DD11000001B41EB48E
:1011E00000B501F0DFFE01B40198864601BC01B0F4
:1011F0001EBD00001EF0040F0CBFEFF30880EFF3DC
:101200000980014A104700004F360000F0B4404604
:10121000494652465B460FB402A0013001B506486C
:10122000004700BF01BC86460FBC804689469246F7
:101230009B46F0BC7047000009110000401E00BF33
:1012400000BF00BF00BF00BF00BF00BF00BF00BFA6
:1012500000BF00BF00BF00BF00BF00BF00BF00BF96
:1012600000BF00BF00BF00BF00BF00BF00BF00BF86
:1012700000BF00BF00BF00BF00BF00BF00BF00BF76
:1012800000BF00BF00BF00BF00BF00BF00BF00BF66
:1012900000BF00BF00BF00BF00BF00BF00BF00BF56
:1012A00000BF00BF00BF00BF00BF00BF00BFC5D16F
:1012B00070470000401E00BF00BF00BF00BF00BF5E
:1012C00000BF00BF00BF00BF00BF00BF00BF00BF26
:1012D00000BF00BF00BF00BF00BF00BF00BF00BF16
:1012E00000BF00BF00BF00BF00BF00BF00BF00BF06
:1012F00000BF00BF00BF00BF00BF00BF00BF00BFF6
:1013000000BF00BF00BF00BF00BF00BF00BF00BFE5
:1013100000BF00BF00BF00BF00BF00BF00BF00BFD5
:1013200000BF00BF00BFC5D1704700000BF06EBE0C
:101330004FF0E0224FF400410020C2F88011204914
:101340000870204990020860704730B51C4D044673
:101350002878A04218BF002C02D0002818BFFFDF59
:101360002878A04208BF30BD2C701749154A0020CC
:10137000ECB1164DDFF858C0131F012C0DD0022C14
:101380001CBFFFDF30BD086003200860CCF80050B0
:101390004FF400001060186030BD08600220086043
:1013A000CCF800504FF040701060186030BD0860FD
:1013B00008604FF06070106030BD00B5FFDF00BD09
:1013C0000800002008F5014000F500405801002009
:1013D00014F5004010B504460021012000F03AF851
:1013E0000021182000F036F800210B2000F032F820
:1013F0000421192000F02EF804210D2000F02AF815
:1014000004210E2000F026F804210F2000F022F81D
:101410000421C84300F01EF80721162000F01AF836
:101420000721152000F016F8204604F043F90020AB
:1014300010BD86210180704704F051B90D487047F6
:101440000D4A12680C4B0D4A08331A6004F01EBE98
:10145000704770474907090E002806DA00F00F00B0
:1014600000F1E02080F8141D704700F1E02080F8C2
:101470000014704703F90043100502400100000109
:101480002DE9F0410C4611490D68104A1049083207
:101490001160A0F12001342901D301200CE048287B
:1014A00010D040CC0B4F94E80E0007EB8000241FB7
:1014B00050F8807C3046B84720600448001D056025
:1014C000BDE8F0812046FFF77FFEF5E710050240FA
:1014D0000100000184D1000010B5EFF3108000F08E
:1014E000010472B6EC484178491C417040780128EB
:1014F00001D100F079FD002C00D162B610BD70B5AD
:10150000E54CE07848B90125E570FFF7E5FF00F00C
:1015100073FD20B1002000F0A5FB002070BD4FF04E
:1015200080406571C0F80453F7E770B5EFF31080A1
:1015300000F0010572B6D84C607800B9FFDF607822
:10154000401E6070607808B900F052FD002D00D197
:1015500062B670BDD04810B5C17821B1002141718B
:10156000C170FFF7E2FF002010BD10B5044600F087
:1015700043FDC949C978084000D0012020600020FF
:1015800010BD2DE9F05FDFF810934278817889F87B
:101590000620002589F80710064689F808500078CB
:1015A0002F4620B101280FD002280FD0FFDF00F016
:1015B00030FD98B100F034FDA8420FD1284600F06C
:1015C00033FD0028FAD047E00125F0E7FFF784FF5C
:1015D00000F012FD0028FBD00225E8E70120840777
:1015E000E060C4F80471AD490D600107D1F8441200
:1015F000AA4AC1F3423124321160A8494FF0020BCC
:1016000034310860C4F804B3A060DFF894A2DAF8BB
:101610000010C94341F3001101F10108DAF800108C
:1016200041F01001CAF8001000E020BFD4F8040116
:101630000028FAD0284600F0F7FC0028FAD0B8F1CC
:10164000000F05D1DAF8001021F01001CAF80010DF
:10165000C4F808B3C4F8047199F807004C4670B197
:10166000307860B900F0C8FC064601F055FD6FF017
:10167000004116B1C4E9031001E0C4E9030115B14A
:101680002771BDE8F09F01202071BDE8F05F00F0F8
:10169000E1B810B5040000D1FFDF4FF080414FF0FA
:1016A000FF30C1F808030022C1F80021C1F804216D
:1016B000C1F80C21C1F8102100F0A4FC28B1764932
:1016C0000120C8704878401C48702046BDE8104092
:1016D00057E72DE9F0410125AF077D616E4CE079B8
:1016E000F0B1012803D0217A401E814218DA00F0BF
:1016F00083FC064601F010FDE179012902D9217A27
:10170000491C21720EB1216900E0E168411A0229E9
:1017100002DA11F1020F0EDC0EB1206100E0E06090
:10172000FFF7DAFE00F068FC10B13D61A57000E043
:10173000257000202072BDE8F0812DE9F05F594846
:10174000D0F800B0574A5849083211608406D4F8DE
:10175000080110B14FF0010801E04FF00008D4F883
:10176000000100B101208146D4F8040108B101262E
:1017700000E00026D4F80C0100B101208246D4F824
:10178000100108B1012700E0002748EA090126EA14
:10179000010020EA0A00B84300D0FFDF0025B8F1BD
:1017A000000F04D0C4F80851012000F05BFADFF804
:1017B000E880B9F1000F13D0C4F8005198F8050083
:1017C00020B188F80550002000F04CFA98F800008D
:1017D00030B100F011FC18B1012088F8020020613E
:1017E0000EB1C4F80451BAF1000F0AD0C4F80C517C
:1017F00098F80200464600B9FFDFB5703570FFF774
:1018000094FE37B1C4F8105198F8040008B1FFF7FE
:1018100060FF2449091DC1F800B032E770B51E4DC4
:10182000E87808B900F0E4FB01208407A061A878FB
:1018300058B100BFD4F80C0120B9002000F0F4FB2F
:101840000028F7D10020C4F80C014FF0FF30C4F895
:10185000080370BD2DE9F0411926B507C5F80863E6
:101860000124AC610020C5F80001C5F80C01C5F8E1
:10187000100100F0C1FB084F10B1BC702C6100E0FA
:101880003C70FFF729FE0549B87920310860C5F89A
:1018900004636C614FE700000C0000201805004055
:1018A00010ED00E01005024001000001F0B5734AA0
:1018B000D2F80032724D002401212E7856B9714EB3
:1018C0003460704F03263F1D3E606E4F04260C3778
:1018D0003E602970C2F80042D1601160694C483402
:1018E000D16425688542FBD35160D160C2F80032D3
:1018F000F0BD2DE9F041044680074FF000054FF0A0
:10190000010604D560480560066024F00204E00486
:101910004FF0FF3705D55D484660C0F8087324F4E2
:101920008054600003D55A48056024F08044E005E7
:101930000FD55248C0F80052C0F8087351490D60E5
:10194000091D0D604F4A04210C321160066124F418
:101950008074A00409D54F484660C0F80052C0F812
:1019600008734D48056024F40054C4F38030C4F378
:10197000C031884200D0FFDF14F4404F14D04748F4
:101980004660C0F8087346488660C0F80052C0F848
:10199000087344490D600A1D16608660C0F808731C
:1019A0000D60166024F4404420050AD53E48466088
:1019B0008660C0F80873C0F848733C48056024F49A
:1019C000006400F0B3FE3A48044200D0FFDFBDE8F7
:1019D000F08170B5202500224FEA020320FA02F1BF
:1019E000C90719D051B201F01F060124B4404E09B5
:1019F000B60006F1E026C6F88041C6F8804200290C
:101A000006DA01F00F0101F1E02181F8143D03E055
:101A100001F1E02181F80034521CAA42DED370BDEE
:101A200070B5174C0D466060FFF763FF6068FFF705
:101A3000D0FF2846FFF72DFE00F03CF801F033F907
:101A400000F074FE00F0C2FD01F0E2FABDE8704063
:101A500000F020B910B50A4C6068FFF74AFF6068D3
:101A6000FFF7B7FF00F062FEFFF7D8FE00206060CE
:101A700010BD034840687047032070470080004055
:101A80002000002004850040FC1F004000C00040F2
:101A900004E5014000D0004004D5004000E00040D3
:101AA00000F0004000F5004000B0004008B50040E4
:101AB000FEFF0FFC10B5524800F06CFB00B1FFDFD9
:101AC0004F48401C00F066FB002800D0FFDF10BD2F
:101AD0002DE9F14F4B4ED6F800B00127484800F0F1
:101AE00061FBDFF81C8128B95FF0000708F10100F5
:101AF00000F06EFB444C00254FF0030901206060AC
:101B0000C4F80051C4F80451009931602060DFF836
:101B1000FCA018E0DAF80000C00614D50E2000F092
:101B200064F8EFF3108010F0010072B600D00120CD
:101B3000C4F80493D4F8001119B9D4F8041101B908
:101B400020BF00B962B6D4F8000118B9D4F8040176
:101B50000028DFD0D4F804010028CFD137B1C6F86F
:101B600000B008F1010000F01DFB11E008F10100D8
:101B700000F018FB0028B9D1C4F80893C4F8045148
:101B8000C4F800510E2000F030F81D4800F020FB92
:101B90000020BDE8F88F2DE9F0438DB00D460646D4
:101BA00000240DF110090DF1200817E004EB4407A3
:101BB000102255F8271068460BF077F905EB8707D8
:101BC0001022484679680BF070F96846FFF780FFED
:101BD00010224146B8680BF068F9641CB442E5DB9A
:101BE0000DB00020BDE8F08372E700F01F02012174
:101BF00091404009800000F1E020C0F88012704759
:101C00002800002004E5004000E0004010ED00E066
:101C100070B51F490A68BAB100231D4601244A68FD
:101C2000521C4A60092A00D34D600E7904FA06F26C
:101C30000E6816420AD072B60B6893430B6062B608
:101C400049680160002070BD052070BD5B1C092B38
:101C5000E5D3FFDFF8E74FF0E0214FF48000C1F853
:101C600000027047EFF3108111F0010F72B64FF0D0
:101C7000010202FA00F20648036842EA0302026027
:101C800000D162B6E7E70248002101604160704779
:101C90002C000020C948002101708170704770B588
:101CA000C74D01232B60C74B1C68002CFCD00024BF
:101CB00007E00E6806601E68002EFCD0001D091D9E
:101CC000641C9442F5D30020286018680028FCD0DA
:101CD00070BD70B5B94E0446BB4D3078022800D0B7
:101CE000FFDFAC4200D3FFDF7169B848012903D898
:101CF00047F23052944201DD03224271491C716166
:101D0000291BC160B1497078BDE8704002F038BB52
:101D100070B5AA4C0D466178884200D0FFDFAA4E0C
:101D2000092D4FD2DFE805F04E0522314E4E4E4EC2
:101D30003C002078022800D0FFDF03202070A0782C
:101D4000022802D0012804D008E0A06800F07CF945
:101D500004E004F1080007C8FFF7A1FF0520207088
:101D60000020A070BDE8704001F0EBBD01F0B8FEAE
:101D70000146606803F0FCF8B04202D261690229B2
:101D80000BD30320FFF76EFF12E001F0A9FE01461E
:101D9000606803F0EDF8B042F3D2BDE8704098E718
:101DA000207802280AD0052806D0FFDF0420207002
:101DB000BDE8704000F0F8B8022000E00320FFF713
:101DC00051FFF3E7FFDF70BD70B5054601F088FEF7
:101DD0007A4C60602078012800D0FFDF7B49022028
:101DE000087000220A718D6004224A71764ACA6026
:101DF00020706078BDE8704002F0C2BA10B56F4C38
:101E0000A07808B9207808B1112010BD704801F001
:101E100002FE6070607820B10120207000206061B7
:101E200010BD032010BD0246010B0120B2F5003F9A
:101E300002D2884000F0DAB9B2F5802F03D22039FF
:101E4000884000F0DBB9B2F5C02F03D2403988409A
:101E500000F0DDB9B2F5002F03D26039884000F000
:101E6000DFB9002070472DE9F041144600EB8407EC
:101E70000E4605463F1F00F0FAF84FF080510A6900
:101E8000504306EB8402121FB24201D2012200E04D
:101E900000221CB10969B4EB910F02D90920BDE8F9
:101EA000F0814C498D421AD3AF4218D3854201D2FA
:101EB000874203D3484828447C2803D845EA0600D3
:101EC000800701D01020EAE78E4208D33AB92846AD
:101ED000FFF7A9FF18B93846FFF7A5FF08B10F2093
:101EE000DDE73E483E490068884205D0224631463B
:101EF0002846FFF7D4FE10E0FFF780FF0028CED180
:101F00002E4801218560C0E9036481704FF4A971F6
:101F100004FB01F01830FFF757FF0020BFE770B552
:101F20004FF08055044628692A49B1FBF0F08442FD
:101F30000AD300F09CF8A04201D8102070BD286997
:101F40006043FFF770FF08B10F2070BD234824499C
:101F50000068884204D02869604300F075F80CE0FE
:101F6000FFF74CFF0028F0D12969144861438160D4
:101F7000022181701B48FFF727FF002070BD154824
:101F8000010B01208840401E704770B50D46044685
:101F9000FFF7F5FF204201D00F2070BD29462046F3
:101FA000BDE8704000F045B910B5044C607801F010
:101FB00081FD00202070A07010BD000034000020C2
:101FC00004E5014000E40140105C0C0084010020A5
:101FD000111D00000020010080EFFFEF80000020B5
:101FE000BEBAFECA7C5E010001208107086070470E
:101FF000012081074860704712480068C00700D080
:10200000012070470F48001F0068C00700D0012062
:1020100070470C4808300068C00700D001207047A6
:10202000084810300068704706490C310A68D2032E
:1020300006D5096801F00301814201D101207047F2
:10204000002070470C0400400B4A022111600B492C
:102050000B68002BFCD0084B1B1D1860086800287B
:10206000FCD00020106008680028FCD070474FF0BA
:10207000805040697047000004E5014000E40140E1
:1020800010B50D2000F06FF8C4B26FF0040000F03E
:102090006AF8C0B2844200D0FFDF3A4901200860EC
:1020A00010BD70B50D2000F048F8374C0020C4F882
:1020B00000010125C4F804530D2000F049F8256003
:1020C0004FF0E0216014C1F8000170BD10B50D2083
:1020D00000F033F82C48012141600021C0F80011C4
:1020E000BDE810400D2000F033B8284810B5046852
:1020F00026492748083108602349D1F80001012802
:1021000004D0FFDF2148001D046010BD1D48001DE4
:1021100000680022C0B2C1F8002100F07CFEF1E7A7
:1021200010B51948D0F800110029FBD0FFF7DDFFEA
:10213000BDE810400D2000F00BB800F01F02012197
:1021400091404009800000F1E020C0F88011704704
:1021500000F01F02012191404009800000F1E020C1
:10216000C0F880127047002806DA00F00F0000F176
:10217000E02090F8140D03E000F1E02090F8000456
:102180004009704704D5004000D0004010050240CF
:10219000010000010021017008467047014600203F
:1021A00008707047EFF3108101F0010172B60278F8
:1021B000012A01D0012200E000220123037001B9AD
:1021C00062B60AB1002070474FF400507047E9E74B
:1021D000EFF3108111F0010F72B64FF000020270A0
:1021E00000D162B600207047F2E700001F4909687D
:1021F000014201D001207047002070471B49091D92
:102200000968014201D0012070470020704717493A
:1022100010310968014201D0012070470020704749
:10222000124914310968014201D001207047002091
:10223000704710B50D4C2060201D01600B48103018
:102240000260001D0360002010BD09490A6848F2C1
:1022500002139A4302430A607047054A116848F224
:10226000021301EA03009943116070470006004021
:10227000C8060240082808D238B1042805D0012831
:1022800003D0052801D0012070470020704710B509
:10229000044600F0F6F880B1204600F0E3F8FFF7BE
:1022A000E9FF68B17E4A04F01F01012013788840DD
:1022B0004BB15168084350600BE042F2010010BD81
:1022C00042F2020010BD6109890001F1E021C1F86C
:1022D0000001002010BD10B5044600F0D2F850B146
:1022E0006F4A04F01F0101201378884033B1516810
:1022F0008143516008E042F2010010BD610989008C
:1023000001F1E021C1F88001002010BD70B50D463B
:10231000044600F0B6F878B16009800000F1E020D2
:10232000D0F8000204F01F0201219140084000D0C3
:1023300001202860002070BD42F2010070BD10B580
:10234000044600F09EF858B104F01F0101208840B7
:102350006109890001F1E021C1F80002002010BDEF
:1023600042F2010010BD10B5044600F08AF858B1E1
:1023700004F01F01012088406109890001F1E0217A
:10238000C1F88002002010BD42F2010010BD70B5FE
:102390000D46044600F075F870B12846FFF76AFF55
:1023A00068B16807000E002C0CDA04F00F0101F18F
:1023B000E02181F8140D09E042F2010070BD42F203
:1023C000020070BD04F1E02484F80004002070BD18
:1023D00070B50C46054600F054F830B1284600F0C0
:1023E00041F8C0B22060002070BD42F2010070BD13
:1023F000BFF34F8F2B4801682B4A01F4E061114372
:102400000160BFF34F8F00BFFDE770B5054601F0D7
:102410008FF908B1072070BD214C0120217889B9BE
:10242000207072B6FFF725FB4FF0E026D6F880113A
:1024300006F5C07681436160FFF71BFBC043306047
:1024400062B600202870002070BD15490A783AB1A4
:1024500030B94FF0E0224868C2F80001002008704F
:1024600000207047002806DA00F00F0000F1E0209D
:1024700090F8140D03E000F1E02090F8000440090A
:10248000704710B50446642807DAFFF7F2FA012115
:10249000A140084201D1012010BD002010BD000064
:1024A0004C0000200CED00E00400FA054E490968DC
:1024B0000160002070474C490860002070470121EE
:1024C0008A0720B1012804D042F2040070479167C6
:1024D00000E0D1670020704744490120086042F2C3
:1024E0000600704708B50423404A1907103230B17E
:1024F000C1F80433106840F0010010600BE0106870
:1025000020F001001060C1F808330020C1F8080174
:10251000374800680090002008BD3449103140B1B0
:1025200001280CD0022812D0032816D042F2050050
:102530007047086820F01E0040F0100004E00868B2
:1025400020F01E0040F0140008600020704708686A
:1025500020F01E0040F01800F6E7086820F01E008A
:1025600040F01C00F0E7214924310A6802430A6068
:10257000002070471D4924310A6882430A60002008
:1025800070471A49243109680160002070471749D3
:102590001C310A6802430A600020704713491C314D
:1025A0000A6882430A600020704710491C3109689C
:1025B00001600020704702000E494FF0000003D078
:1025C000012A01D0072070470A6070474FF0804110
:1025D0000020C1F808014FF0E020802180F80014AD
:1025E0000121C0F8001170470004004000050040C0
:1025F00008010040780500406249634B0A6863495E
:102600009A42096801D1C1F31001016000207047AE
:102610005C495D4B0A685D49091D9A4201D1C0F3CE
:1026200010000860002070475649574B0A68574908
:1026300008319A4201D1C0F31000086000207047B1
:1026400030B5504B504D1C6842F20803AC4202D0EA
:10265000142802D203E0112801D3184630BDC3006C
:102660004B481844C0F81015C0F81425002030BDA0
:102670004449454B0A6842F209019A4202D00628B1
:1026800002D203E0042801D308467047404A0121E2
:1026900042F83010002070473A493B4B0A6842F23A
:1026A00009019A4202D0062802D203E0042801D38D
:1026B00008467047364A012102EBC0004160002005
:1026C000704770B52F4A304E314C156842F20903FD
:1026D00004EB8002B54204D0062804D2C2F80018E8
:1026E00007E0042801D3184670BDC1F31000C2F8FA
:1026F0000008002070BD70B5224A234E244C156896
:1027000042F2090304EB8002B54204D0062804D249
:10271000D2F8000807E0042801D3184670BDD2F8AB
:102720000008C0F310000860002070BD174910B504
:102730000831184808601120154A002102EBC00337
:10274000C3F81015C3F81415401C1428F6D3002044
:1027500006E0042804D302EB8003C3F8001807E066
:1027600002EB8003D3F80048C4F31004C3F8004818
:10277000401C0628EDD310BD044906480831086006
:102780007047000080000020BEBAFECA00F501407C
:1027900000F001400000FEFF10B54FF000040B46B2
:1027A0000200204621461ED0012A04D0022A04D06D
:1027B000032A1DD103E0012002E0022013E00320E0
:1027C000072B15D2DFE803F0140406080A0C0E00EC
:1027D000012108E0022106E0032104E0042102E0D7
:1027E000052100E0062101F02FF908B1204610BDB7
:1027F0000724FBE7FE48052181700021017041702C
:10280000C17081607047FB490A78022A06D0CA6805
:102810001044C860C868323802F065BB8A6810444A
:1028200088608868F7E70378F349F44A13B1012B0D
:102830000ED011E00379012B00D06BB943790BB1B5
:10284000012B09D18368643B8B4205D2C0680EE03E
:102850000379012B02D00BB10020704743790BB1F3
:10286000012BF9D1C368643B8B42F5D2806890425A
:10287000F2D8012070472DE9F0470446022601F006
:10288000E2FF006800B1FFDFD94D01273CB120789D
:10289000B0B1012805D0022810D0032813D02F7121
:1028A0000CE06068C82807D302F08DFB20B1606897
:1028B000FFF7A9FF012603E0002601E000F0AFF9D1
:1028C0003046BDE8F08728780028F7D16068FFF728
:1028D000AAFF0028E3D06068DFF81883007810B3FF
:1028E000A878042800D0FFDF0020474688F80000C1
:1028F00060680079C0B30020387160684079A0B387
:102900000420787160688168E86801F0ABFBB8600A
:102910006068C0683230F8600320A870B549E87874
:1029200001F02EFDCAE74FF00209404688F80090FA
:1029300061680979D1B10021017161684979B9B142
:102940000421417161688968323181606168C968B8
:10295000C160C068A64C1434606001F0C1F820600A
:102960006F7085F80290A9E704E005E00321E3E732
:102970000321E6E70120BFE70320C2E72DE9F04786
:102980009B4C8846E178884200D0FFDFDFF86092F8
:1029900000250127974E09F11409B8F1090F76D2E5
:1029A000DFE808F0050D2A3D646A769E7E00A07877
:1029B000032886D0A078022883D0FFDF81E7A078A3
:1029C000032803D0A078022800D0FFDF0420A070E5
:1029D0002571207800285FD1FFF715FF3078022895
:1029E00006D0B068E060FFF738FC2061002048E0C6
:1029F000E07801F055FBF5E7A078032803D0A07834
:102A0000022800D0FFDF207878BBA078032812D1FD
:102A1000042026E00420FFF725F9A57051E7A078EF
:102A2000032803D0A078022800D0FFDF2078E0B987
:102A3000A078032814D001F053F801464F46D9F886
:102A4000000002F095FA0028E4DB79688142E1DBBE
:102A5000081AF0606749E078BDE8F04701F090BCE3
:102A60000520FFF7FFF8A7702BE724E0A0780428E3
:102A700000D0FFDF022004E0A078042800D0FFDFB0
:102A80000120A1688847FFF7F6FE05462EE027E003
:102A9000A078042800D0FFDFBDE8F04700F0BFB801
:102AA000A078042805D0607810B1A078022800D062
:102AB000FFDF207818B1BDE8F04700F0B9B8207901
:102AC00020B10620FFF7CEF82571CCE7607828B159
:102AD0004849E07801F054FC6570F2E60720C0E751
:102AE000FFDFEEE63DB1012D03D0FFDF022DF9D16E
:102AF000E7E60420C5E70320C3E770B5050005D06D
:102B00003B4CA078052803D0112070BD102070BD6B
:102B10003B4800F080FFE070E07818B1A56000202D
:102B2000A07070BD032070BD314810B5017809B1A7
:102B3000112010BD817805290CD0817801290BD096
:102B4000817849B1012101708178012904D0807810
:102B500010B103E00F2010BD00F06AF8002010BD96
:102B60002DE9F041224E0446B07808B101280AD17F
:102B700064B12046FFF757FE50B120781D4D48B193
:102B8000B078012822D00F20BDE8F0811020FBE7AB
:102B90000720F9E702272F70207998B100202871CB
:102BA000607988B104206871A0683230A860E0685C
:102BB000E860E8680E4C1434606000F091FF20601B
:102BC000B77022E00320EAE70320ECE7002028703A
:102BD000207900B3002028716079F0B10420687179
:102BE000A168F06801F03EFAA860E068323009E0C0
:102BF00054000020940100203D860100FF1FA10722
:102C00007D290000E8600320B0701049F07801F0E1
:102C1000B7FB0020B8E70320DDE70320DFE70C481F
:102C200010B50069FFF711FBBDE8104000F089BE48
:102C300010B5074CE07800F03DFF0820FFF712F8D0
:102C40000520A07000202070607010BD940100204D
:102C500054000020C84911F8210F4978884201D357
:102C6000401A02E0C1F121010844C0B27047C249D4
:102C7000233111F8210F4978884201D3401A02E02C
:102C8000C1F121010844C0B27047BB49463111F877
:102C9000210F4978884201D3401A02E0C1F1210195
:102CA0000844C0B27047B54910B5802081F80004CF
:102CB000B1490020233101F8210F4870AE4901F8D5
:102CC000210F4870AC49463101F8210F4870AC48DB
:102CD000FFF760FAAA48401CFFF75CFAFFF7D0F94B
:102CE000BDE8104000F03DB920207047B2E770B554
:102CF0000C4605460026FFF7ADFF01469E48A1425F
:102D000012D30022641EE4B20DD390F82210435C6B
:102D1000491CC9B205F8013B80F822102129F1D1E4
:102D200080F82220EEE7012600F01BF9304670BD46
:102D3000202070479BE770B50C4605460026FFF73C
:102D400096FF01468C482330A14212D30022641E14
:102D5000E4B20DD390F82210435C491CC9B205F8C7
:102D6000013B80F822102129F1D180F82220EEE7E2
:102D7000012600F0F6F8304670BD202101700020D9
:102D8000704710B50446FFF780FF2070002010BD8B
:102D900070B50C460546FFF778FF01467648463089
:102DA000A14213D30022641EE4B20DD390F8221086
:102DB000435C491CC9B205F8013B80F82210212967
:102DC000F1D180F82220EEE7002401E042F207046E
:102DD00000F0C7F8204670BD70B50C4605462129A5
:102DE00000D9FFDF67480068103840B200F0A0F853
:102DF000C6B20D2000F09CF8C0B2864204D2FFDFBC
:102E000002E000BFFFF78CF921462846FFF76FFF6D
:102E10000028F7D070BD2DE9F047DFF86481564CEB
:102E2000A8F101080746233498F80000DFF848911C
:102E3000002604F1230A38B994F8221094F82100EE
:102E4000212200F084F890B14D4699F8221099F8AB
:102E50002100212200F07BF8B8B155469AF82210E3
:102E60009AF82100212200F072F848B335E094F876
:102E70002100275494F82100401CC0B284F821009E
:102E800021282AD184F8216027E095F821002F54C9
:102E900095F82100401CC0B285F82100212801D1FD
:102EA00085F8216098F800004746B0B195F82210E7
:102EB00095F82100212200F04AF870B13E700CE034
:102EC00095F821002F5495F82100401CC0B285F8D8
:102ED0002100212801D185F8216094F8221094F86E
:102EE0002100212200F033F800281FD099F8221089
:102EF00099F82100212200F02AF8002816D09AF82B
:102F000022109AF82100212200F021F800280DD08B
:102F1000FFF7DCF81A48FFF745F9B0F5005F00D07D
:102F2000FFDFBDE8F0471648FFF752B9BDE8F0876C
:102F3000002806DA00F00F0000F1E02090F8140DF0
:102F400003E000F1E02090F8000440097047401CC5
:102F5000884204D0904200D109B10020704701207E
:102F6000704710B50648FFF71DF9002803D1BDE8EA
:102F70001040FFF796B810BDA40100200DE000E05E
:102F80007100002004ED00E0134908784A78401CE5
:102F9000C0B2904205D0114B01221A60BFF34F8F8F
:102FA0000870704770B54FF0E0250B4C00F04AFBFD
:102FB00020BF40BF20BF607821786170D5F8001233
:102FC00029B9D5F8041211B921788142EED000F068
:102FD00034FB002070BD0000740000201805024082
:102FE0007047704770477047704770477047704729
:102FF0007047424749312E303042303200000000E5
:1030000010FFFFFFDBE5B151002001008600FFFF4C
:103010004FF0E0214FF00070C1F88001C1F880024C
:10302000384B802283F80024C1F80001704700B5B6
:1030300002460420344903E001EBC0031B792BB1A5
:10304000401EC0B2F8D2FFDFFF2000BD41F83020A3
:1030500001EBC00100224A718A7101220A7100BD90
:10306000294A002102EBC0000171704710B50446E7
:10307000042800D3FFDF244800EBC4042079012892
:1030800000D0FFDF6079A179401CC0B2814200D03E
:1030900060714FF0E0214FF00070C1F8000210BDE8
:1030A0002DE9F041194805681849194808310860A8
:1030B0001448042690F80004134F4009154C0428C6
:1030C00018D0FFDF16E0217807EBC1000279012A52
:1030D00008D1427983799A4204D04279827157F8B3
:1030E000310080472078401CC0B22070042801D3F2
:1030F00000202070761EF6B2E5D20448001D05605F
:10310000BDE8F08119E000E0100200201005024047
:1031100001000001730000202DE9F0410125280382
:103120004FF0E0210026C1F880011E4CC4F8006178
:103130000C2000F02CF81C4801680268C94341F3D8
:10314000001142F010020260C4F804532560491CCB
:1031500000E020BFD4F80021002AFAD019B9016894
:1031600021F010010160114807686560C4F8085338
:10317000C4F800610C2000F00AF83846BDE8F08180
:1031800010B50446FFF7C8FF2060002010BD00F016
:103190001F02012191404009800000F1E020C0F8A9
:1031A0008012704700C0004010ED00E008C50040EC
:1031B0002DE9F047F84C0646FF21606800EB061247
:1031C00011702178FF2916D04FF0080909EB011181
:1031D00009EB06174158C059491E21F07F4100F004
:1031E000DDF918B194F80080454614E06168207854
:1031F00001EB061108702670BDE8F087626809EBE4
:103200000510D159105800F0C9F930B96068A846C6
:1032100000EB08100578FF2DF0D1606800EB061177
:1032200000EB08100D700670E6E7F0B5DA4B0446C7
:10323000002001255A680C261B7A0BE005EB0017CD
:10324000D75DA74204D106EB0017D7598F4204D0AF
:10325000401CC0B28342F1D8FF20F0BD70B501F030
:10326000B0FECD4C014608252278606805EB0212BD
:10327000805800F093F9012808D92178606805EB9F
:1032800001114058BDE8704001F092BE01F0DEFA35
:10329000BDE87040FFF7EABE2DE9F041BE4C25784D
:1032A00001F08FFE0146FF2D6FD04FF008086268D5
:1032B00008EB0516905900F071F90228606801D9F1
:1032C00080595EE000EB051109782170022101EBC5
:1032D0000511425C5AB1521E4254815901F5000158
:1032E00021F07F4181512846FFF762FF34E004233B
:1032F000012203EB051302EB051250F803C0875CB3
:10330000BCF1000F10D0BCF5806F10D9CCF30902CE
:1033100050F806C00CEB423C2CF07F4C40F806C045
:10332000C3589A1A920A09E0FF2181540AE082598F
:1033300002EB4C3222F07F42825100224254284656
:10334000FFF736FF0C21606801EB05114158E0687A
:1033500050F82720384690472078FF2815D001F0F4
:1033600030FE01462278606808EB0212454680581C
:1033700000F014F9012891D92178606805EB01115A
:103380004058BDE8F04101F013BEBDE8F081F0B552
:103390001D4614460E460746FF2B00D3FFDFA0074D
:1033A00000D0FFDF7C48FF210022C7604460057227
:1033B0000674017042701046012204E002EB001313
:1033C000401CE154C0B2A842F8D3F0BD70B5724CB5
:1033D00006466578207C854200D3FFDFE06840F830
:1033E00025606078401C6070284670BD2DE9FF5F45
:1033F0001D468B460746FF2401F0E3FDDFF8989158
:10340000064699F80100B84200D8FFDF00214FF0CE
:1034100001084FF00C0A99F80820D9F804000EE0D2
:1034200008EB0113C35CFF2B27D0BB4205D10AEB8D
:10343000011350F803C0DC4521D0491CC9B28A42AF
:10344000EED8FF2C1BD008EB04110AEB04124754F2
:1034500040F802B00421029B0022012B01EB041171
:1034600011D042504FF4806808234FF0020C4545BC
:1034700019D9A905890D08D008E00C46DDE7FF2021
:1034800004B0BDE8F09F4550ECE7414606EB413201
:1034900003EB041322F07F42C250691A0CEB0412B2
:1034A000890A81540BE005B9012506EB453103EB90
:1034B000041321F07F41C1500CEB0411425499F8E0
:1034C00000502046FFF774FE99F80000A84201D092
:1034D000FFF7C4FE3846D3E770B50C46054601F049
:1034E00070FD064621462846FFF79FFE0446FF284A
:1034F00017D0294D082101EB041168684058314666
:1035000000F04CF800F58050400B02216A6801EB96
:103510000411515C09B100EB8120002800D1012089
:1035200070BD002070BD2DE9F0410F468046FFF7C9
:103530007CFEFF281BD0184E357871682A462C4631
:1035400005E0844206D0254601EB05131C78FF2CCC
:10355000F7D10CE0FF2C0AD0A5420CD101EB0210F0
:1035600000783070FF2804D0FFF778FE03E00020D9
:103570000BE701F023FD39464046FFF7ADFFFF2280
:103580000123716803EB0413CA5401EB041201EB2D
:10359000051112780A70F8E630020020401A20F077
:1035A0007F40B0F5000F00D90020704710B52020F3
:1035B00000F075F8202000F07DF84449202081F8C3
:1035C0000004434900060860091D42480860FDF7F1
:1035D00035FF3F49C83108603F48D0F8041341F037
:1035E0000101C0F80413D0F8041341F08071C0F851
:1035F0000413364901201C39C1F8000110BD10B573
:10360000202000F04CF8324800210160001D0160CC
:103610002F4A481EE83A10602F4AC2F808032C4B84
:10362000C8331960C2F80001C2F860012B49086074
:10363000BDE81040202000F03DB825492848EC396D
:103640000860704722492648E8390860704770B51D
:103650001F4A8069E83A224911601F49D1F8006188
:103660000023204D1D4A5C1E1EB1A84206D3002136
:103670000FE0D1F8606186B1A84209D2C1F80031EB
:10368000C1F860311460BDE87040202000F012B82D
:103690001168BDE8704009F086BCFFDF70BD00F026
:1036A0001F02012191404009800000F1E020C0F894
:1036B0008011704700F01F020121914040098000F5
:1036C00000F1E020C0F880127047000020E000E028
:1036D000000602407C0A0020000002400004024074
:1036E000010000010020010070B50446A0F50000B3
:1036F0002C4EB0F1786F02D23444A4F500042A486D
:10370000844201D2012500E0002500F041F830B1EB
:10371000B4420BD32548006804E0284370BDB4428E
:1037200004D32348844201D20120F6E70020F4E7C5
:1037300010B50446A0F50000B0F1786F03D2194827
:103740000444A4F5000400F023F84FF0804130B1A8
:103750001648006804E08C4204D2012003E01448BB
:103760008442F8D2002080F0010010BD10B520B1D5
:10377000FFF7DEFF08B1012010BD002010BD10B51D
:1037800020B1FFF7B1FF08B1012010BD002010BD2E
:10379000084809490068884201D10120704700208B
:1037A0007047000000000020002001000000000021
:1037B0000800002080000020BEBAFECA2DE9F041BA
:1037C000FE4CA07E617E884208BFBDE8F0810126E4
:1037D000FB4D0027607E215C01EB810205EB82003E
:1037E000037C052B10D0037C062B1BD0037C072BFE
:1037F00027D0437C012B18BFFFDF30D0A07E617E35
:103800008842E7D1BDE8F0810674607E18281ABFAF
:10381000607E401C00206076481CC0B255F8222013
:1038200002210CE00674607E18281ABF607E401CDE
:1038300000206076481C55F82220C0B20321904732
:10384000DCE70674607E18281ABF607E401C0020EA
:103850006076481CC0B255F822200821EFE7477473
:10386000607E18280EBF0020607E401C6076481CD9
:10387000C0B255F822200721E1E770B5D14E0024EF
:103880000D2086F82900A6F54A70254680F8F541F6
:1038900080F8F44100F504708476447606F12C003B
:1038A000FEF778FCA6F59870057586F82B50601E1B
:1038B000B06086F8255086F8225086F8235086F8A6
:1038C000245086F82150C04805704570A6F1FC00D0
:1038D00004EB840100EB81010D74611CCCB20C2C53
:1038E000F6D3012001F0EAFC002001F0E7FC012002
:1038F00086F82600FFF78CFBB448FFF798FBB44C22
:103900002070B448FFF793FB6070BDE8704001F091
:1039100069BC10B501F094FCAD4C2078FFF7A0FB1A
:103920006078FFF79DFBA74C94F82800002808BF9B
:1039300010BDFDF7FAFD002084F8280010BD0C2012
:10394000704770B501F05FFD9E4C054694F8260067
:1039500000281CBFFFDF70BD94F82B00002808BFB3
:10396000FFDF6FF07F4260690026291AB1F5800FF2
:1039700024BF431BB3F5800F0DD38A4203D2101A24
:103980002844411C07E09A4228BFFFDF05D2511BA3
:103990000844401C4142002900DBFFDF012584F878
:1039A000265084F82B6094F829100420844A01EBF7
:1039B000810102EB81010874A068B0F1FF3F04D0DF
:1039C000A81EA060012001F079FC002001F076FC27
:1039D00001F05AFCFEF7D0FE01F09EFD7E48066025
:1039E00006604FF0E0214FF40040C1F8800201F082
:1039F00012FE75480078022804D0032805D194F8F7
:103A0000230010B184F8225001E084F82260BDE860
:103A1000704001F065BD034669490C2000EB80024F
:103A200001EB820212F8042C22B1401E10F0FF00BC
:103A3000F4D1704700EB800201EB8201012241F8D2
:103A4000143C01F8042C7047012804D0032808BF57
:103A5000002926D000E021B35A4B4FF0000C83F828
:103A600021C0594A0028907014BF022882F803C070
:103A70000BD0072915D2DFE801F01404060C0E1054
:103A800012001B2000E03A20D070012083F82100B2
:103A900070475820F8E77720F6E79620F4E7B5203E
:103AA000F2E700207047484810B5407801F03DFD2E
:103AB00080B210BD421E10B5414900EB800001EB01
:103AC00080040B2A02D814F8040C00B9FFDF14F8A4
:103AD000040C012818BFFFDF002004F8040C10BDFF
:103AE00070B53E4C94F8F50194F8F41188420CBF7F
:103AF0000125002501F087FC01F017FD94F8F51170
:103B000094F8F42191420CBF01210021A942E9D18E
:103B100070BD2DE9F05F80464B1E1746DCB2284889
:103B200004EB840200EB82052E1D287CDFF88C90CC
:103B300007282DD199F81900002299F81AC0844558
:103B400024D000BF19F800C0A44508BF012200D04E
:103B50004AB118280CBF4FF0000C00F1010C19F805
:103B60000CC009F800C018280CBF0020401CC0B2CF
:103B700099F81AC08445E5D142B199F81A2048460F
:103B8000002A0EBF1822827E521E827601202874DF
:103B90000B2B10D80A4801EB810100EB810010F8D3
:103BA000040C40B1287C012806D0287C012802D0D2
:103BB000B87A012816D0FFDFB87A11E0540400204B
:103BC000700400206C05002078000020993200006D
:103BD00076000020BD37000000F5004044020020C0
:103BE00001284AD1FE49287C022816D099F81A00EB
:103BF00018284AD099F81A0099F81910401C8842E0
:103C000000D1FFDF0120687499F81A0009F800401C
:103C100099F81A0018283DD03EE0DFF8C8C39CF898
:103C200029000246A04207D0024600EB820001EBC9
:103C30008000807CA042F7D19CF8293083420CD1CF
:103C40009CF8292002EB820201EB8202927C8CF824
:103C5000292001228CF82A2009E000EB800301EBE7
:103C6000830302EB820201EB82029B7C937400EBE4
:103C7000800001EB80000D228274387A062825D25C
:103C8000DFE800F012211E1B181599F81900002812
:103C9000B8D1B6E7002002E099F81A00401C89F874
:103CA0001A000020BDE8F09F4FF0000A11E04FF02D
:103CB000B40A0EE04FF0730A0BE04FF0320A08E04E
:103CC0004FF00A0A05E04FF0060A02E0FFDF4FF06E
:103CD000000A3868A0EB0A003060397A00290CBF6E
:103CE00004210221401A20F07F423260D7E900010E
:103CF000084420F07F407060B87A022818BF387BF3
:103D00007ED1387A00280CBF0420022000EB0A0381
:103D10007868591D00EB010BB3484078504503D932
:103D2000B04991F8231011B10BF1060003E0A0EBAC
:103D30000A005844801DAB4991F829C0BCF10D0F11
:103D400024D08E4691F8291001EB810CA44901EB97
:103D50008C0CDCF804C0624518D0DFF890C29EF8E5
:103D6000292002EB820201EB82014A688968A2EBFA
:103D7000080222F07F42A1EB080121F07F4190422E
:103D800098BFB2F5800F49D28C4547D34044A0EB91
:103D90000B0020F07F4131601944F86821F07F4129
:103DA0000A1A6FF07F43B2F5800F24BFA0EB010C1D
:103DB000BCF5800F0DD3934203D2181A0844421C5D
:103DC00007E0634528BFFFDF1FD2591A0844401C93
:103DD0004242002A19DD0520287499F81A00182893
:103DE0002DD099F81A0099F81910401C884200D17A
:103DF000FFDF99F81A0009F8004099F81A0000E06E
:103E00000BE018287FF448AF44E73068ABF10501B8
:103E1000084420F07F407060002030727068401DC0
:103E200020F07F407060787AB072387A062770721E
:103E300003280DD260B1FEF7DFF828B108E099F849
:103E400019000028D5D1D3E7CAF138074FF0320A5C
:103E500065480178012918BF03290AD140785045E7
:103E600007D9604991F82310002904BFA0EB0A008C
:103E700007445E4B3068A0EB0802706822F07F4177
:103E8000A0EB080020F07F4C8F4298BFB1F5800F67
:103E90001CD263451AD3534991F829300D2B32D0E7
:103EA00091F829704FF00D0B4FEA0B0A4C4907EBC4
:103EB000870301EB8303D3F808C0ACEB080C9445EF
:103EC00031D8BB469F7C0D2FF0D199E00520287496
:103ED00099F81A00182811D099F81A0099F81910B1
:103EE000401C884200D1FFDF99F81A0009F8004011
:103EF00099F81A0018287FF4CFAECBE699F819008C
:103F00000028F1D1EFE70220287491F829000D284C
:103F100018BF91F82900A87481F82940012081F880
:103F20002A00BDE8F09F0D2F1CBFBA46002267D0C3
:103F30000AEB8A0301EB8303D3F804C0ACEB080C53
:103F4000844528D29A7B96F80AC094451CD3052054
:103F5000287499F81A00182811D099F81A0099F8BD
:103F60001910401C884200D1FFDF99F81A0009F8A7
:103F7000004099F81A0018287FF48EAE8AE699F866
:103F800019000028F1D1EFE793F812A00122BAF14D
:103F90000D0FCDD103E0002A08BFBA4630D03E460F
:103FA0000F4806EB860200EB8208062188F8101005
:103FB00099F81A00182836D099F81A0099F81910AB
:103FC000401C884200D1FFDF99F81A0009F8006010
:103FD00099F81A0018280CBF002099F81A0007E079
:103FE000700400206C05002078000020FFFF3F00D7
:103FF00018BF401C89F81A0098F81260B245CFD15A
:104000000220FE4E287406F1FC0090F82910B942F7
:104010000ED185F812A080F82940012180F82A10DD
:104020000120BDE8F09F99F819000028CCD1CAE71B
:104030000D2F0BD0BBF10D0F08BFFFDF0BEB8B007B
:1040400006EB8000847485F812A0E9E7BBF10D0F40
:1040500008BFFFDF0BEB8B0006EB800084740D20A4
:10406000A874DDE730B50D46E54A44190021101A61
:1040700071EB010038BFFFDFE2488542C8BFFFDFB8
:10408000E1488542B8BFFFDFE0488442A8BFE0486E
:1040900004DA002CAABF2046DC4830BD201830BD11
:1040A000401E70B5C0B200EB8001D44800EB810423
:1040B000607B062810D2DFE800F0030D0B0907052E
:1040C000002033E0B4200BE0732009E0322007E049
:1040D0000A2005E0062003E0FFDF617B002029B312
:1040E000022108446168084420F07F4001F01DFA75
:1040F00094F90C50C24A44190021101A71EB0100C6
:1041000038BFFFDFBF488542C8BFFFDFBE488542DA
:10411000B8BFFFDFBD488442A8BFBD4804DA002C09
:10412000AABF2046B94870BD201870BD0421D8E749
:104130002DE9F04F0646B74885B00068C005C00DB0
:1041400011D0103840B20028B8BF00F00F0000F1C5
:10415000E020B4BF90F8140D90F80004400908BFA7
:104160004FF0010B01D04FF0000B3078002817BF43
:1041700001283079002005B018BFBDE8F08F06286F
:1041800010D2DFE800F0030D0B090705002015E051
:10419000B4200BE0732009E0322007E00A2005E09C
:1041A000062003E0FFDF3179002039B15FF0020122
:1041B00000EB010ABBF1000F06D101E00421F7E793
:1041C0009549002081F827006C4602AA2146B06874
:1041D00001F0B8F99DF90820F068211D1044012272
:1041E000C01C1F28B8BF019208DB03AA01F0AAF97E
:1041F0009DF80C0010B10198401C0190DDE9001001
:104200000844401D20F07F400190A1EB0A0020F0FF
:104210007F40009070798DF80A000098039001F0BB
:10422000F2F8009A019B121A181A7C4922F07F4278
:1042300020F07F40B2F5800F10D281420ED3764835
:1042400090F82950009CA846191B21F07F496FF077
:104250007F41091BA0F1FC07049108E0002080E0E9
:104260006D48A846957C90F8270000286DD10D2D4B
:104270001DD005EB850007EB80026FF07F4350688F
:10428000011BB1F5800F10D3A4EB000CBCF5800F1F
:104290000BD38B4203D204990844411C05E06345CB
:1042A0001DD2181A2044401C41420029D8DB454544
:1042B00027D008EB880007EB80026FF07F439068FF
:1042C000011BB1F5800F14D3A4EB000CBCF5800FDB
:1042D0000FD38B4205D204990144491C09E0FFDF4A
:1042E000E5E7634528BFFFDF0BD21B1A1919491CEC
:1042F0004942002905DD9DF80A10927B914228BFB2
:1043000004460D2D1CBF9DF80A10434A14D000BF6F
:1043100005EB850007EB800043681B1B23F07F4300
:104320004B4509D2837B994228BF8468857C92F8EB
:10433000270050B90D2DEBD10098A04205D004EB19
:10434000090020F07F400094019000990398814279
:1043500006D001EB0A0020F07F4001F0E6F8B060E3
:1043600001202D4991F82710002904BF05B0BDE8B0
:10437000F08FBBF1000F3FF423AF05B0BDE8F08F25
:104380002DE9F04F814687B00C462548FDF70AFF1E
:10439000244901274FF0000801EB090600287DD0D1
:1043A000A1F5927898F81400002818BFFFDF207854
:1043B000012800F0238200BF88F81090207802289E
:1043C00008BFFFDF184D207905F10C0228726079D3
:1043D00068722946A06801F0B5F895F90C000F281D
:1043E00004DD1F3828732868401C286095F90C00EC
:1043F000E1682E1D0844C01C1F2817E0700400202F
:10440000FF7F841E0020A10700E05EF80080841E6C
:1044100000807BE104ED00E06C050020FFFF3F0021
:1044200098050020600500203C040020B8BF3760DC
:1044300009DB6A46314601F085F89DF8000010B1AD
:104440003068401C30602078A87288F81470F64CF0
:1044500094F8F50194F8F411884204BF07B0BDE860
:10446000F08FF24890F829500D2D00F0CF8100F028
:10447000CAFFEF4905EB850201EB82010A7C042AA1
:1044800019BF0A7C032A07B0BDE8F08FE94B4A68E0
:104490008968121A22F07F42081A00E01BE020F01F
:1044A0007F40062A3CBF07B0BDE8F08FB2F5800F11
:1044B00024BF07B0BDE8F08F83423CBF07B0BDE822
:1044C000F08F94F8F50194F8F411884240F0A78138
:1044D00007B0BDE8F08FD44D95F8F501182855D0F8
:1044E00095F8F50195F8F411401C884200D1FFDFE2
:1044F000207801284FD0CC4890F8F51101EB8101CC
:1045000000EB810080F81090207802284BD0C6483C
:1045100090F8F51101EB810100EB810520792872FB
:104520006079687205F10C022946A06801F00AF86A
:1045300095F90C000F2804DD1F3828732868401CEB
:10454000286095F90C00E1682E1D0844C01C1F2846
:10455000B8BF376009DB6A46314600F0F3FF9DF8CB
:10456000000010B13068401C30602078A872AE485E
:1045700090F8F51118290EBF002190F8F511491C8B
:1045800080F8F511AC48FDF723FE60E795F8F401DB
:104590000028ADD1ABE716F8010C002818BFFFDFEB
:1045A00006F8017CA7E7A5480068C005C00D0FD03C
:1045B000103840B20028B8BF00F00F0000F1E02032
:1045C000ACBF90F8000490F8140D400908BFFFDF5D
:1045D000954890F8F51101AA01EB810100EB8106E5
:1045E000E068CDF800808DF80480694600F0AAFFED
:1045F0009DF904000F28CCBF012000200099351D33
:10460000084401900220B072207930726079707293
:10461000A068C01C1F28B8BF2F6009DB6A46294666
:1046200000F090FF9DF8000010B12868401C286041
:10463000307A062810D2DFE800F0030D0B090705D9
:1046400000200BE0B42009E0732007E0322005E0F1
:104650000A2003E0062001E0FFDF00202179002985
:104660000CBF04210221084402907168401D0844D7
:104670000199009001440298081A05906B4C0020A3
:1046800084F8270000F0BFFE804630600198404467
:1046900020F07F40F06094F829000D287ED020465D
:1046A00090F8291001EB8102A0F1FC0101EB8202DC
:1046B0005768009A3A4422F07F42039296F809B074
:1046C00090F829503C46121B22F07F4A6FF07F423F
:1046D000D21BA946049206E05448A9469D7C90F856
:1046E000270000286ED10D2D1ED0514805EB850105
:1046F00000EB81036FF07F425868011BB1F5800F1A
:1047000024BFA4EB000CBCF5800F0BD38A4203D26C
:1047100004990844411C05E062451FD2111A08198A
:10472000401C41420029D7DB4D4527D0404809EBCA
:10473000890100EB81026FF07F439068011B814685
:10474000B1F5800F24BFA4EB000CBCF5800F0FD394
:104750008B4205D204990844411C09E0FFDFE3E7DE
:10476000634528BFFFDF09D2191A0819401C4142CE
:10477000002903DD907B834528BF4C460D2D1CBFCF
:104780002A4BA3F1FC0015D005EB850100EB81015C
:104790004A68121B22F07F42524500E026E009D20F
:1047A0008A7B934528BF8C688D7C93F8271049B984
:1047B0000D2DE9D1A74205D004EB0A0020F07F407F
:1047C00027460390039AA7EB080121F07F41A2EB53
:1047D0000802059822F07F42B1F5800F06D2904280
:1047E00004D30298384420F07F4030600F4890F89E
:1047F000270000287FF442AFB9E600BF16F8010C8D
:10480000002818BFFFDF06F8017CD5E594F8F50114
:1048100094F8F411884204BF07B0BDE8F08F07B0E8
:10482000BDE8F04F00F05CBE440200206C050020A3
:1048300070040020FFFF3F009805002004ED00E019
:10484000002000F02BBD012000F028BDFD480078BD
:1048500070472DE9F041054602282DD0FA4C94F816
:1048600029000D2808BFFFDF002784F826700126E5
:1048700084F82B6094F829100320DFF8D08301EB33
:10488000810108EB8101087400F031FED5B1012DE2
:1048900039D0032D1CBFFFDFBDE8F08194F829005B
:1048A00094F82910401CC0B201EB810158F8212076
:1048B000BDE8F04105211047E2480078BDE8F0412D
:1048C000FEF7D4BB207F002818BFFFDF84F82560E7
:1048D0000020276000F0F2FCA168B1F1FF3F04D096
:1048E00001230022184600F02DFD94F8290094F8C9
:1048F0002910401CC0B201EB810158F82120BDE80D
:10490000F04101211047012000F0D8FC94F8250067
:1049100000281CBFA068B0F1FF3F0DD094F829001B
:1049200094F82910401CC0B201EB810158F82120F5
:10493000BDE8F04106211047207F012815D002284C
:104940001FD0032833D004281CBFFFDFBDE8F0814F
:1049500094F8201060680123411A0022184600F0E4
:10496000F1FC94F82800B8BB37E094F8240028B193
:1049700084F8247000F0C2FD84F823602777BDE836
:10498000F08194F8280018B9FCF7A6FD84F8286097
:1049900094F8290094F82910401CC0B201EB810161
:1049A00058F82120002190472777BDE8F081217B2E
:1049B00060680123411A0022184600F0C3FC94F8F5
:1049C000240028B184F8247000F098FD84F8236056
:1049D00002202077BDE8F08103E0FCF77DFD84F83C
:1049E000286094F8290094F82910401CC0B201EB0B
:1049F000810158F82120002190472677BDE8F081F9
:104A000010B5914C94F829000D2808BFFFDF94F8E9
:104A1000290094F82910401CC0B28C4A01EB810196
:104A200052F82120BDE81040042110472DE9F05F25
:104A300000F0E9FC844C81464FF00D0B94F82900FE
:104A40000026A4F1FC084FF0010A0D282CD094F8A0
:104A50002910204601EB810108EB8101097C042922
:104A600022D090F8291001EB810108EB8101097C2B
:104A7000032908BFBDE8F09F754922696069A2EB70
:104A8000090222F07F42A0EB090020F07F40062AB5
:104A900038BFBDE8F09FB2F5800F28BFBDE8F09F9A
:104AA000814238BFBDE8F09FA068B0F1FF3F18BF5A
:104AB000FFDF84F8256094F82900664F0D2806D1A1
:104AC00094F8210018B1F8787870B87838705E489A
:104AD00090F829000D281ED05B4890F8291001EBB2
:104AE000810108EB8101097C042914D190F829B0D7
:104AF00090F8291001EB810108EB810181F810A0E9
:104B000090F8291001EB810108EB8101897C80F884
:104B1000291080F82AA0504C94F8F50194F8F4116B
:104B200004F21B3588424ED094F8F40100EB80006B
:104B300004EB8000007C405D012894F8F40100EB58
:104B4000800004EB800004D0007C405D022878D017
:104B500018E0807A01280DD094F8F411022001EBBE
:104B6000810104EB8101097C485594F8F40118286F
:104B700020D01BE094F8F40100EB800004EB8000EF
:104B8000007C465594F8F40100EB800004EB8002B1
:104B900094F8F40100EB800004EB8000017C4846AF
:104BA000FEF7B7FF94F8F401182803D094F8F40145
:104BB000401C00E0002084F8F40194F8F50194F81A
:104BC000F4118842B0D1254C207D70B1207C415D2C
:104BD000012966D0405D02286BD0207D28B1217C60
:104BE0001E4A4846FEF795FF2675BBF10D0F06D00D
:104BF0000BEB8B0008EB8000017C012961D0124C8B
:104C000094F829000D2800F0388194F82A00002833
:104C100000F0428184F82A6094F8290000EB8000BB
:104C200008EB8003A4F54A70D3E90112DB68C0F8F1
:104C30004033C0E9CE12607E00280CBF0425022557
:104C40000EE01CE0760000206C05002070040020BF
:104C5000FFFF3F0078000020440200203C040020B9
:104C600094F82900C34600EB800108EB8100407BEB
:104C700006284DD2DFE800F0404A4846444294F806
:104C8000F40100EB800004EB8000807A012818BF5B
:104C9000FFDF94F8F40100EB800004EB80008672E3
:104CA00068E7A17A01291DBF0221415526754655A5
:104CB00093E7A07A012818BFFFDFA672207C465533
:104CC0008BE707210174FE4CA07E182810D0A07E2F
:104CD000617E401C884200D1FFDFA07E04F800B056
:104CE000A07E18280EBF0020A07E401CA07686E77C
:104CF000607E0028F1D1EFE700200BE0B42009E04E
:104D0000732007E0322005E00A2003E0062001E0DE
:104D1000FFDF00202073617E022918BF012911D115
:104D200021690144A1EB090222F07F42382A09D906
:104D300003206076A1F1320020F07F402061322014
:104D4000207309E0322807D294F8280058B9FCF7FC
:104D5000C3FB84F828A006E094F8280018B1FCF7FB
:104D6000E4FB84F82860797884F8201038780622EB
:104D7000012818BF032806D184F824A0207B814293
:104D800084BF081A821D94F82230002B18BF921C91
:104D900094F82400002808BF002B6AD0D4F81080B3
:104DA0006069A8EB0908DFF81CC328F07F48A0EB76
:104DB000090020F07F40424598BFB8F5800F41D2EE
:104DC00084453FD3207B884215D22369A1EB0002A2
:104DD000A3EB020222F07F421144294421F07F41DB
:104DE0002261616000280CBF01200320207710F0B1
:104DF000FF0F36D114E00AD9226900291044284453
:104E000020F07F4060600CBF02200420EEE7002B02
:104E100008BFFFDF2069284420F07F4060602677CC
:104E2000012000F04BFA00BF94F82900012300EBA9
:104E300080010BEB8100616890F90C20002000F0EC
:104E400081FA29E084F8246084F82260207B00281D
:104E5000E0D021690844284420F07F4060600220AF
:104E600020772069012341190022184600F06AFAD0
:104E7000DAE7207B0028ECD1CCE7012000F01EFA15
:104E8000002000F01BFA00F0FFF994F8280018B198
:104E9000FCF74BFB84F8286094F8220028B100F05E
:104EA0002DFB84F8236084F8226094F8210018B167
:104EB000F8787870B878387094F8240030B184F8B5
:104EC00023603878002808BF84F824607C48817EFD
:104ED000407E814203D07C484078FEF7C7F884F8D2
:104EE00027A0BDE8F09F70B5784C054682B094F8D5
:104EF00029000D2808BFFFDF94F8290000EB80008F
:104F0000734E06EB8000007C032818BFFFDFA0680B
:104F1000B0F1FF3F18BFFFDF94F82900002100EB3C
:104F2000800006EB800001AA90F90C0000918DF83A
:104F300004102844694600F005FB9DF904000F2881
:104F4000CCBF01200020009908446168084420F08B
:104F50007F41A16094F82500002804BF02B070BD15
:104F6000012302B00022BDE87040184600F0EAB903
:104F7000584A0B1A02F1010CB3EB9C0F3CBF1846C8
:104F8000704710B5441AB4EB9C0F3CBF184610BDD7
:104F90009A4203D2101A0844401C10BD94429EBF8E
:104FA000FFDF002010BD511A0844401C404210BDD4
:104FB000012300220146022000F0C4B9022000F0C3
:104FC0007DB900F020BAF0B5404C054683B094F8A6
:104FD0002B00002808BFFFDF642D50D33E4900207E
:104FE000491B80414BD33D4890F8F51190F8F401EE
:104FF000814244D13A48007D002840D194F82900EC
:10500000334F00EB800007EB8006206801AA28449C
:10501000694600F097FA9DF90400002802DD009827
:10502000401C0090B268009973685018C01A20F0B4
:105030007F40B0F5800F22D2B07C0D2809D000EB64
:10504000800007EB80004068801A20F07F40884293
:1050500015D3A068B0F1FF3F05D0012000F02EF974
:105060004FF0FF30A060206828442060B0680099AD
:10507000084420F07F40606103B00120F0BD03B020
:105080000020F0BD2DE9F0410646401EC5B2104893
:1050900005EB850100EB8104207C002808BFFFDFC1
:1050A0000E4A92F8F41192F8F501814221D000BF26
:1050B00001EB810302EB83031B7CB34220D011E0A0
:1050C00054040020FFFF3F00760000206C05002004
:1050D00070040020FF7F841EFF1FA10744020020F0
:1050E0003C04002018290CBF0021491CC9B2814290
:1050F000DED13A48017D002962D0007CB0425FD108
:105100000020BDE8F081217C05291FBF217C0629F4
:10511000217C07292CD12774427E0023817E914275
:1051200018BF014624D000BF11F80280A84508BF6F
:10513000012300D04BB1182A0CBF4FF0000802F138
:10514000010811F8088001F80280182A0CBF00221B
:10515000521CD2B291F81A809045E5D143B18A7EB3
:10516000002A08BF81F81AC002D08A7E521E8A76B1
:10517000617C21B36674427E0021837E934224D0F9
:10518000835CAB4208BF012100D029B1182A0CBFB3
:105190000023531CC35C8354182A0CBF0022521CEA
:1051A000D2B2837E9342EBD149B1827E0146002A7E
:1051B00008BF81F81AC008D08A7E521E8A7604E0A1
:1051C0000127074800264FF0180C217C012904BF55
:1051D000617C002997D10120BDE8F0813C040020CA
:1051E0005404002030B44FF0E02001234FF4006C51
:1051F0000021C0F880C11D02C0F880511C06C0F813
:105200008041E54A82F80014D21E82F80014E34A75
:1052100082F80014E24A53609360C2F84011C2F869
:105220004411C2F84811C0F880C2C0F88052C0F8DA
:105230008042C0F800C1C0F80041136030BC704724
:1052400070B401204FF0E023C6024FF0000CC3F809
:1052500080610402C3F880410506C3F88051D04A3A
:1052600050609060CF4801680029FCD1C2F840C16D
:10527000C2F844C1C2F848C1C3F88062C3F8804292
:10528000C3F8805270BC70474FF0E0204FF40061CB
:10529000C0F88012C910C0F880127047002804BFFF
:1052A000C1487047012804BFC0487047022804BFA6
:1052B000BF48704700B5FFDF002000BD08B5B84902
:1052C000002298B101282FD002281CBFFFDF08BDA3
:1052D0004FF48020C1F80803C1F84803B5480260C4
:1052E000C1F84821B2480068009008BD4FF48030F2
:1052F000C1F80803C1F84803AF4B1A60C1F8402158
:10530000AE4BC1031960AE49C1F808034FF0E0236A
:105310000012C3F88001AB480260C1F84021C1F817
:105320000022A948027008BD4FF40030C1F80803FC
:10533000C1F84803A5480260C1F844219B480068B1
:10534000009008BD70B5DFF858C20426002401257E
:1053500058B1012840D002281CBFFFDF70BD9C4A15
:105360004FF48020012B3CD144E0881E20F07F4187
:105370004FF48030CCF80803CCF84041CCF844031B
:10538000CCF84015012B14BF002101218E4B597020
:105390008B490D61DFF83CC2CCF800408E4C4FF0D9
:1053A000020CC4F800C0DFF834C2CCF80060DFF8AB
:1053B00014C23D32CCF80020C1F800524FF0E02C6E
:1053C0008A15CCF88022C1F80403CCF80021080427
:1053D000834908601D7070BD824A4FF40030012B74
:1053E00008D0CCF80803C2F84041CCF84403C2F816
:1053F000401570BDC2F84041CCF80403CCF844031A
:10540000C2F8401570BD67480068704770B57648AF
:105410000568774975480860614CD4F8400100265A
:1054200001280AD1D4F8080310F4803F05D04FF4C6
:105430008030C4F80803C4F84061D4F8440101285E
:105440000DD1D4F8080310F4003F08D04FF4003019
:10545000C4F80803C4F844610120FFF7FAF9D4F84E
:10546000480101280DD1D4F8080310F4802F08D08A
:105470004FF48020C4F80803C4F848610220FFF705
:10548000E8F95C48056070BD574810B50468584994
:10549000564808604C490878002808BF03201AD0F5
:1054A000464A4FF000401060454AC00BC2F808035E
:1054B00003124FF0E02C0020CCF88031414B1860F3
:1054C000C2F84001C2F8000208704A78002A1CBFE6
:1054D0004870002001D0FFF7BCF94648046010BDB9
:1054E0004FF0E0214FF08070C1F8000270474FF09C
:1054F000E0214FF08070C1F8800270474FF0E0214A
:105500004FF40010C1F8000270474FF0E0214FF453
:105510000010C1F8800270472949012008614FF04E
:10552000E0210002C1F880027047410A43F60952A7
:105530005143C0F3080010FB02F000F5807001EB4E
:1055400050207047430B48F2376C03FB0CF31B0CE5
:105550004FEA432CC1F800C0DFF89CC003FB0C03EA
:1055600026484CF2F72C5843400D10FB0CFC0CEB7A
:10557000432303F580735B1213700A6810440860BC
:105580007047194810B50468194918480860FFF7B2
:105590004DFA1848046010BD0BE000E018E000E090
:1055A00000B0004004B500404081004044B10040DC
:1055B00048B1004048B5004040B5004008F5014002
:1055C00000800040408500407C00002044B5004041
:1055D00008B0004004850040088500401085004068
:1055E00004F5014004B00040100502400100000134
:1055F0001805024014050240F7C2FFFF6F0C0100BE
:10560000094810B504680A4908480860FFF7F8F926
:105610000848046010BD0849002008604FF0E021F0
:105620000220C1F88002704710050240010000010D
:105630001805024014050240FC1F00400548064AB8
:105640000168914201D100210160044901200860F4
:105650007047000080000020BEBAFECA40E501404D
:105660000F4A12680D498A420CD118470C4A126839
:105670000A4B9A4206D101B5FDF786FCFDF7DDFF26
:10568000BDE8014007490968095808470648074925
:10569000054A064B7047000000000000BEBAFECA73
:1056A0008000002004000020080A0020080A0020D2
:1056B00006F053BAF94810B5017800290ED101213E
:1056C0000170F74880F82D1001F0B5F8F54801F0A9
:1056D00009F9BDE81040012002F0A9BF10BDEF4854
:1056E00010B5017800290AD000210170EC4880F83B
:1056F0002D1001F0D3F8BDE8104001F0C9B910BD7C
:10570000E64810B5007850B101F0C8F8044601F041
:10571000BFF9002002F08BFF1CB1002010BD022059
:1057200010BD0D2010BD70B516460D46044600F0A4
:1057300096FC38B9284600F092FC18B9304600F0C3
:105740008EFC08B1072070BD304603F0D6FDC0F3D3
:1057500007212970207009B1002070BD052070BD9F
:1057600070B50446D0481D460078401E844202DDD4
:1057700044F2330070BD072A02D944F2290070BDFB
:10578000204603F05BF928B92946204603F0B9F911
:105790000028F4D040F4804070BDC34910B50978AA
:1057A000491E884202DD44F2330010BD03F0E6F9E1
:1057B0000028FAD040F4804010BDBB4910B50978EC
:1057C000491E884202DD44F2330010BD02F012FB94
:1057D0000028FAD040F4804010BDB34910B50978D4
:1057E000491E884202DD44F2330010BD03F0DAF9AD
:1057F0000028FAD040F4804010BD10B500B101205F
:1058000003F019FA002801D040F4804010BD70B5B3
:105810000446A5480E4615460078401E844202DD27
:1058200044F2330070BD104600F019FC08B10720A7
:1058300070BD2B4632460021204601F0CDFC502899
:1058400002D040F4804070BD002070BD70B50446A9
:1058500095480E4615460078401E844202DD44F20B
:10586000330070BD104600F0FAFB08B1072070BD90
:105870002B463246A021204601F0AEFC502802D033
:1058800040F4804070BD002070BD2DE9F041044619
:1058900085481E460F4600781546401E844203DDAB
:1058A00044F23300BDE8F081104600F0D8FB08B1A7
:1058B0000720F7E733462A463946204602F02AFCFD
:1058C000502802D040F48040ECE70020EAE710B511
:1058D000044600F0C4FB08B1072010BD204602F0CA
:1058E00091FC0028F9D040F4804010BD10B502F0C2
:1058F00095FC002801D040F4804010BD70B50546ED
:1059000069480C460078401E854202DD44F23300AF
:1059100070BD084600F0A3FB08B1072070BD284603
:1059200003F0C0F92070002070BD10B503F0ECFA50
:10593000002010BD7CB505460C46072802D944F26C
:1059400029007CBD084600F08AFB08B107207CBD19
:1059500020680090606801906946284602F038F996
:1059600000207CBD504A10B5137844F233025B1E10
:10597000984202DC8B1E4F2B01D3104610BD01F064
:1059800001FF002010BD70B5054647480C46007861
:10599000401E854202DD44F2330070BD084600F02F
:1059A0005EFB08B1072070BD284601F0F8FE2070AC
:1059B000002070BD3C4B10B51B785B1E984202DD89
:1059C00044F2330010BD01F0BDFE002010BD364B87
:1059D00010B51B785B1E984202DD44F2330010BD07
:1059E00001F0F5FE002010BD2F4A10B51278521EAE
:1059F000904202DD44F2330010BD02F096FF002019
:105A000010BD70B5054628480C460078401E8542FA
:105A100002DD44F2330070BD084600F020FB08B1FF
:105A2000072070BD284602F09FFF2080002070BD37
:105A300038B51D4C2478641EA04202DD44F23300C8
:105A400038BD8DF80010090A8DF801108DF802207C
:105A50008DF80330694602F05AFF0028F0D040F478
:105A6000804038BDF8B507460F481C4615460078FB
:105A70000E46401E874202DD44F23300F8BD084660
:105A800000F0EDFA38B9284600F0E9FA18B92046D6
:105A900000F0E5FA50B10720F8BD000084000020B6
:105AA0009C050020B1560000980000206946384649
:105AB00002F00AFF9DF800009DF8011040EA012065
:105AC00030809DF8020028709DF8030020700020AF
:105AD000E2E7F84A10B51278521E904202DD44F215
:105AE000330010BD02F050FF002010BDF14A10B588
:105AF0001278521E904202DD44F2330010BD02F0D3
:105B00003EFF002010BDEB4A10B51278521E9042A5
:105B100002DD44F2330010BD02F03BFF002010BD57
:105B2000E44A10B51278521E904202DD44F233006E
:105B300010BD02F035FF002010BD70B50546DD48F0
:105B40000C460078401E854202DD44F2330070BDF1
:105B5000084600F084FA08B1072070BD284602F01C
:105B600025FF2070002070BDD24A10B51278521E59
:105B7000904202DD44F2330010BD02F0FAFE002034
:105B800010BD70B50C46054600F069FA08B1072053
:105B900070BD2146284603F0BEF90028F8D040F435
:105BA000804070BD70B505460C46084600F057FAB7
:105BB00008B1072070BD2146284603F0E0F900280F
:105BC000F8D040F4804070BD10B502F051FE0028BE
:105BD00001D040F4804010BD10B502F052FE00200C
:105BE00010BD10B5044600F03AFA08B1072010BD08
:105BF00002F04DFE2070002010BD7CB50646AD4879
:105C000015460C460078401E864202DD44F2330001
:105C10007CBD084600F023FA08B107207CBD20783F
:105C20008DF8000060788DF80100A0788DF80200F2
:105C3000E0788DF803008DF804506946304602F094
:105C400011FB0028EAD040F480407CBD08B5994B98
:105C50001B785B1E984202DD44F2330008BD8DF8CC
:105C600000108DF80120694602F0E2FA0028F5D014
:105C700040F4804008BD10B58E4C2478641EA042CC
:105C800002DD44F2330010BD02F01DFB002010BD08
:105C900010B502F00DFB002010BD38B5044600F031
:105CA000DEF908B1072038BD684602F005FB9DF813
:105CB00000009DF8011040EA01202080002038BD3E
:105CC00070B505460C46084600F0C9F908B1072032
:105CD00070BD2146284603F088FC0028F8D040F427
:105CE000804070BD70B505460C46084600F0B7F917
:105CF00008B1072070BD2146284603F086FC002825
:105D0000F8D040F4804070BD6A4A10B51278521E37
:105D1000904202DD44F2330010BD03F086FC0028FF
:105D2000FAD040F4804010BD10B5624C2478641E57
:105D3000A04202DD44F2330010BD03F085FC0028D0
:105D4000FAD040F4804010BD70B505460C460846B8
:105D500000F085F908B1072070BD2146284603F000
:105D6000A0FD0028F8D040F4804070BD70B5054615
:105D70000C46084600F073F908B1072070BD2146B3
:105D8000284603F0BAFD0028F8D040F4804070BDEA
:105D900070B505460C46084600F061F908B10720C9
:105DA00070BD2146284603F0C2FD002070BD10B52D
:105DB00003F0D7FD002801D040F4804010BD70B53D
:105DC0000C46054600F04BF918B9204600F047F99B
:105DD00008B1072070BD2146284603F0ECFD0020E5
:105DE00070BD70B50646334814460D460078401E17
:105DF000864202DD44F2330070BD1DB1084600F05A
:105E00002EF920B92CB1204600F029F908B107205D
:105E100070BD1DB12946304602F0BFFA1CB12146C3
:105E2000304602F007FB002070BD70B506462148E1
:105E300014460D460078401E864202DD44F23300CF
:105E400070BD1DB1084600F00AF920B92CB12046FA
:105E500000F005F908B1072070BD1DB12946304694
:105E600002F0C2FA1CB12146304602F0F8FA0020D6
:105E700070BD10B504461048007878B100F00EFDF2
:105E800000F006FE204602F08BFC48B1094920785C
:105E90000870002002F0CBFB002010BD022010BDD6
:105EA000072010BD10B5044600F0D9F830B1072026
:105EB00010BD0000980000208400002002F0EAFCE1
:105EC00020700020F4E710B5044600F0C8F808B1CF
:105ED0000720EDE702F0E3FC20700020E8E770B552
:105EE000054666480C460078401E854202DD44F2B5
:105EF000330070BD084600F0B2F808B1072070BD4D
:105F0000284602F0D2FC2070002070BD70B5054616
:105F10005A480C460078401E854202DD44F23300A8
:105F200070BD084600F09BF808B1072070BD2846F8
:105F300002F0C1FC2070002070BD10B501F0E4FB40
:105F40000020B5E710B501F0E6FB0020B0E710B582
:105F5000044600F084F808B10720A9E7484800216A
:105F6000425C6254491CC9B20B29F9D300209FE757
:105F700010B5044600F073F808B1072098E73F48D1
:105F8000B22100782070082060700020A070E170BD
:105F9000362121716071F520A0710D20E071002083
:105FA00086E72DE9F0411E46174680460C004FF06B
:105FB000060503D0084600F052F848B91FB138462C
:105FC00000F04DF820B92EB1304600F048F808B185
:105FD000072067E45FEA080008D0012806D0B8F17E
:105FE000020F03D1207803F0EDFC0025284659E488
:105FF0002DE9F0411E46174680460C004FF006057D
:1060000003D0084600F02BF848B91FB1384600F01D
:1060100026F820B92EB1304600F021F808B107204B
:1060200040E45FEA080005D0012810D0B8F1020F63
:106030000DD10EE000252846124E256004E0297897
:1060400006F081FB6D1C2060B542F8D30025284680
:1060500028E4207803F0C0FCF8E7FBF7FCBD40B172
