:020000040002F8
:10D000000052002015D402001DD402001FD40200DB
:10D0100021D4020023D4020025D402000000000025
:10D0200000000000000000000000000027D4020003
:10D0300029D40200000000002BD402002DD40200ED
:10D040002FD402002FD402002FD402002FD40200CC
:10D050002FD402002FD4020071D502002FD4020079
:10D060002FD402002FD402002FD402002FD40200AC
:10D070002FD402002FD402002FD402002FD402009C
:10D080002FD4020049D702002FD402002FD402006F
:10D09000CFD902002FD40200D3D902002FD402002E
:10D0A0002FD402002FD402002FD402002FD402006C
:10D0B0002FD402002FD40200000000000000000066
:10D0C0002FD402002FD402002FD402002FD402004C
:10D0D0002FD402002FD402002FD402000000000041
:10D0E0000000000000000000000000000000000040
:10D0F0000000000000000000000000000000000030
:10D10000000000000000000000000000000000001F
:10D11000000000000000000000000000000000000F
:10D1200000000000000000000000000000000000FF
:10D1300000000000000000000000000000000000EF
:10D1400000000000000000000000000000000000DF
:10D1500000000000000000000000000000000000CF
:10D1600000000000000000000000000000000000BF
:10D1700000000000000000000000000000000000AF
:10D18000000000000000000000000000000000009F
:10D19000000000000000000000000000000000008F
:10D1A000000000000000000000000000000000007F
:10D1B000000000000000000000000000000000006F
:10D1C000000000000000000000000000000000005F
:10D1D000000000000000000000000000000000004F
:10D1E000000000000000000000000000000000003F
:10D1F000000000000000000000000000000000002F
:10D20000DFF80CD000F0A2F90048004731F002002E
:10D210000052002030B450E8012F93B2C489234457
:10D220008489A34228BF1B1B0489A34202BFBFF30A
:10D230002F8F002007E0C3EA020340E80134002CEE
:10D24000E9D14FF001000A6030BC704750E8012F6F
:10D25000C2EA024240E801210029F7D1704730B408
:10D2600050E8022F1FFAA2F3C488A34202BFBFF303
:10D270002F8F00200DE0C48923448489A34228BF56
:10D280001B1BC2EA034340E80234002CE8D14FF0F4
:10D2900001000A6030BC704750E8022FC2EA224207
:10D2A00040E802210029F7D17047034653E8022FD6
:10D2B000D988B2EB324F4FF0000017BF92B241EA6B
:10D2C000014142EA014104E05A68B2EB324F08BF23
:10D2D000012043E80212002AE8D1704730B4044626
:10D2E00054E8000F0D4644E80053002BF8D11560B8
:10D2F00030BC704730B4044654E8000F40EA0105E2
:10D3000044E80053002BF7D1156030BC704730B4AF
:10D31000044654E8000F00EA010544E80053002BDE
:10D32000F7D1156030BC704730B4044654E8000FA4
:10D3300080EA010544E80053002BF7D1156030BCAA
:10D34000704730B4044654E8000F00EB010544E890
:10D350000053002BF7D1156030BC704730B4044641
:10D3600054E8000FA0EB010544E80053002BF7D16F
:10D37000156030BC7047000030B4044654E8000F1C
:10D380000D4644E80053002BF8D1156030BC7047BF
:10D3900030B4044654E8000F40EA010544E8005365
:10D3A000002BF7D1156030BC704730B4044654E808
:10D3B000000F00EA010544E80053002BF7D1156087
:10D3C00030BC704730B4044654E8000F80EA0105D1
:10D3D00044E80053002BF7D1156030BC704730B4DF
:10D3E000044654E8000F00EB010544E80053002B0D
:10D3F000F7D1156030BC704730B4044654E8000FD4
:10D40000A0EB010544E80053002BF7D1156030BCB8
:10D41000704700000648804706480047FEE7FEE7E1
:10D42000FEE7FEE7FEE7FEE7FEE7FEE7FEE7FEE7D4
:10D43000D9D9020001D202002DE9F05F0546002093
:10D4400092469B4688460646814640241BE0284675
:10D4500041464746224600F068F853465A46C01AED
:10D46000914110D311461846224600F04FF82D1A6C
:10D4700067EB01084F4622460120002100F046F8E4
:10D4800017EB00094E41201EA4F10104DFDC4846E1
:10D4900031462A464346BDE8F09F000000487047E9
:10D4A000080E030040EA01039B0703D009E008C906
:10D4B000121F08C0042AFAD203E011F8013B00F859
:10D4C000013B521EF9D27047D2B201E000F8012BA5
:10D4D000491EFBD270470022F6E710B513460A46F4
:10D4E00004461946FFF7F0FF204610BD421C10F815
:10D4F000011B0029FBD1801A7047034611F8012B4C
:10D5000000F8012B002AF9D118467047202A04DBC5
:10D51000203A00FA02F1002070479140C2F1200346
:10D5200020FA03F3194390407047202A04DB203A85
:10D5300021FA02F00021704721FA02F3D040C2F133
:10D54000200291400843194670470000064C074DE1
:10D5500006E0E06840F0010394E8070098471034C3
:10D56000AC42F6D3FFF750FEBC110300DC11030000
:10D570002DE9F04700268CB0DFF86091B0464FF4FB
:10D580008075012437460696284602F0EBF938B13B
:10D59000D9F80403204203D0284602F0D9F92643E3
:10D5A0002D1D64007F1CADB2082FEDD34FF4BE7467
:10D5B000204602F0D7F948B1204602F0C9F946F0FA
:10D5C000004606AA0121002002F0AEF9444D16F0F3
:10D5D000FF0F15D00127002437420DD009EB84013D
:10D5E000D1F81005D1F81015C0F3042055F8242007
:10D5F000C1F3014102B190477F00641C082CEBD3BA
:10D60000002E67DA4FF0FF30CDE90880002634465F
:10D61000281910F8507F90F9000027F0C008401C2E
:10D6200044D009A9404601F070FE58B34FEA97195B
:10D63000404601F031FA55F820701FB1B9F1030FDF
:10D6400003D00FE0B9F1030F30D108A84FEAD80298
:10D6500008F00703815C4FF0010C0CFA03FC41EA6F
:10D660000C0181544FF0A04101EB8800D0F8000775
:10D6700006A9C0F3014A404601F047FE18B1BAF1CD
:10D68000020F03D012E0BAF1030F0FD1B9F1030F6B
:10D6900008D1BAF1020F1BD00221404602F028F94E
:10D6A000761CF6B217B149464046B847641C042CB4
:10D6B000AED3002E0ED06A460121002002F034F9CC
:10D6C00006990098884205D00690089809909DE731
:10D6D0000321E2E70CB0BDE8F087000000600040E5
:10D6E0006827002000F01F020121914040098000BE
:10D6F00000F1E020C0F88012704700F01F02012105
:10D7000091404009800000F1E020C0F8001170470E
:10D7100000F01F02012191404009800000F1E0204B
:10D72000C0F8001270474907090E002806DA00F019
:10D730000F0000F1E02080F8141D704700F1E02098
:10D7400080F800147047000007480021C0F840111D
:10D75000C0F84411C0F84811C0F84C11C0F80011CD
:10D76000C0F8041103F032B90010014000F0B2BA61
:10D77000F8B50D4B0646144618780D4608B900F06A
:10D78000A9FA00208DF80000684600F0C9FE224684
:10D790002946304600F00AF804469DF8000000F0E3
:10D7A000E3FE2046F8BD0000F42E002070B50E46C2
:10D7B000144900EB400001EBC0051446E86A183537
:10D7C00020B101280FD0022805D113E0284600F02F
:10D7D000B5FAA04201D2002411E022463146284683
:10D7E00000F0D2FB0BE0284600F0A8FAA042F4D2E9
:10D7F0000446F2E73146284600F099FB04462046ED
:10D8000070BD0000F42E002070B505460C46084699
:10D81000FFF76CFE024621462846BDE87040FFF740
:10D82000A7BF0FB408B504A900916A46039900F098
:10D8300003F801B05DF814FB2DE9F04198B00646FD
:10D8400007A8029040200025CDE90305CDE9055643
:10D8500090460C4614F8011B002973D0252908D0E6
:10D8600002A800F045FB05980028F3DA18B0BDE8DF
:10D87000F081002001212278232A1ED02B2A19D0E2
:10D880002D2A02D0302A08D102E040F0010001E048
:10D8900040F00200641C0029EDD100222178A1F1A2
:10D8A00030030A2B0CD202EB820201EB4202303A27
:10D8B000641CF3E740F00400ECE740F00800E9E7FF
:10D8C0000023CFB22E2F0BD114F8011FA1F1300786
:10D8D0000A2F05D203EB830301EB4303303BF3E74D
:10D8E0006C290DD068290BD0702954D00BDC252968
:10D8F00016D0582931D063290CD0642913D114E0F3
:10D9000014F8011FECE7732934D075291BD078294E
:10D9100009D122E0D8F80000011DC8F800100178F4
:10D9200002A800F0E5FA641C9DE7D8F800100F1D6E
:10D93000C8F800700968CDE900200A2202A800F0AA
:10D9400009FAF0E733E0D8F800100F1DC8F80070AE
:10D950000968CDE900200A2208E0D8F800100F1D60
:10D96000C8F800700968CDE90020102202A800F074
:10D9700055FAD8E7D8F80000011DC8F8001007686C
:10D9800017F8011B0029CED002A800F0B1FA0598C3
:10D990000028F5DAC7E7D8F80000011DC8F8001024
:10D9A00001680820CDE9000503461022DEE705984E
:10D9B00000287FF75BAF049820B1024607A93046E4
:10D9C000FFF7D6FEDDE90410084405904EE702F0AB
:10D9D0004BBF02F00DBC0000F0B5AE480023021DA5
:10D9E00001780125101D4FF0805406290BD11678BF
:10D9F000360708D10678C6F30316032E06D0042E88
:10DA000004D0052E02D0062907D00EE0B4F8246316
:10DA1000A14FC6F304263E6002E01678360704D113
:10DA20000678C6F30316032E02D0062904D00FE0B1
:10DA30009B4F9A4E7E670EE01678360708D106781F
:10DA4000C6F30316032E06D0042E04D0052E02D0F2
:10DA5000062907D00EE0D4F84462924FC6F342364E
:10DA60003E6002E01678360704D10678C6F3031646
:10DA7000032E02D0062906D011E08B4E376827F01E
:10DA8000807737600EE01678360708D10678C6F33F
:10DA90000316032E06D0042E04D0052E02D006292C
:10DAA0000AD011E04FF08046C6F80C31C6F81031AC
:10DAB0007C4E361F336002E01678360704D10678B4
:10DAC000C6F30316032E02D0062905D00CE0754FCD
:10DAD000032664373E600AE01678360704D10678DC
:10DAE000C6F30316032E02D006290DD014E06F4FA3
:10DAF00005263E606D4E783635606C4E08363360D4
:10DB00003F263F1D3E6002E01678360704D10678B6
:10DB1000C6F30316052E02D0062957D062E0644EE4
:10DB20003668644F3E60624E361D36683F1D3E606B
:10DB30005F4E083636683F1D3E605D4E0C363668D7
:10DB40003F1D3E605A4E103636683F1D3E60584EAF
:10DB5000143636683F1D3E60554E18363668554FB0
:10DB600020373E60524E1C3636683F1D3E60504E98
:10DB7000203636683F1D3E604D4E243636683F1DC8
:10DB80003E604B4E283636683F1D3E60484E2C3670
:10DB900036683F1D3E60464E30363668454F40374A
:10DBA0003E60434E343636683F1D3E60404E383648
:10DBB00036683F1D3E603E4E3C3636683F1D3E6037
:10DBC0003B4E403636683F1D3E6002E01678360711
:10DBD00008D10678C6F30316032E06D0042E04D00F
:10DBE000052E02D0062907D019E0D4F85812324A7F
:10DBF00001F04F01116002E0117809070FD10078A0
:10DC0000C0F30310032803D0042801D0052806D14F
:10DC10002A480168C90702D06FF00101016022485B
:10DC20007438016841F470010160BFF34F8FBFF396
:10DC30006F8F4FF01021D1F80002002803DBD1F8DC
:10DC40000402002822DA1E4A15601E480468002CCF
:10DC5000FCD01524C1F800420568002DFCD0C1F8A5
:10DC6000044201680029FCD0136001680029FCD03F
:10DC7000BFF34F8F0C48F0380168134A01F4E0619C
:10DC800011430160BFF34F8F00BFFDE710490F48FC
:10DC90000860F0BDE00F00F0403501400DF0ADBA76
:10DCA00000C007403C050040FCED00E0105600407D
:10DCB0000404001020C50040E40E004000040040B1
:10DCC00004E5014000E401400400FA050090D0039F
:10DCD000A426002010B5124C02202061606111A022
:10DCE000A06104F17800E0614FF400702062002030
:10DCF000A06260620BA1A164E06204F51E71E164A0
:10DD00001021A065C4E91410E06509A1E01DFFF72A
:10DD1000F4FB08A12046FFF7F0FB2020A07110BD06
:10DD2000F42E00205465726D696E616C0000000075
:10DD30005254540053454747455200000269C16898
:10DD40008A4203D88068401A104400E0501A401EEE
:10DD5000704700002DE9FC5F0E008146DDE90C47AD
:10DD6000C6F1000098469346824600D40846012535
:10DD700003E000BF90FBFBF06D1C5845FADAA845A4
:10DD800000D9454624B1002E01DB780700D5641E7A
:10DD9000B80702D5B8F1000F0FD0F8070DD164B164
:10DDA000A5420AD220214846641E00F0A1F8D9F805
:10DDB0000C000028F3DABDE8FC9FD9F80C0000281D
:10DDC000F9DB002E02DA56462D2102E0780707D54E
:10DDD0002B21484600F08CF8D9F80C000028EADB2B
:10DDE00007F0030002280FD1B8F1000F0CD15CB18D
:10DDF000A54209D230214846641E00F079F8D9F8CE
:10DE00000C000028F3DAD6E7CDE9004743465A462E
:10DE10003146484600F002F8CDE700002DE9F84F02
:10DE20008246DDE90A4B0126984691460D46084692
:10DE3000374602E0B0FBF9F07F1C4845FAD2B845FE
:10DE400000D947465FEACB7017D1B4B15FEA8B7057
:10DE500002D5B8F1000F02D0202000900BE0302056
:10DE6000FBE75046641E009900F042F8DAF80C0017
:10DE7000002838DB0CB1A742F3D3DAF80C000028F5
:10DE800031DB00BFB8F1010F02D9A8F1010803E0AE
:10DE9000B5FBF6F0484502D306FB09F6F2E7DFF8DA
:10DEA0004C8000BFB5FBF6F000FB165518F80010CB
:10DEB000504600F01DF8DAF80C00002803DBB6FB32
:10DEC000F9F6002EEED15FEACB700CD0002C0AD010
:10DED000A74208D220215046641E00F009F8DAF863
:10DEE0000C000028F2DABDE8F88F0000D80C03001F
:10DEF00010B50446D4E90130421C934205D323688F
:10DF00001954A260E068401CE060D4E9010282423A
:10DF100009D121682069FFF72BFCA168884203D052
:10DF20004FF0FF30E06010BD0020A06010BD2DE973
:10DF3000F047C4681746894606464FF00008306926
:10DF4000A04201D9051B02E0B168201A0D1AB06881
:10DF50006D1E001BA84200D80546BD4200D33D46B9
:10DF600070682A4620444946FFF79CFAB0687F1B38
:10DF70002C44A844A944A04200D10024F460002FFE
:10DF8000DDD14046BDE8F0872DE9F04104468846E2
:10DF9000D4E90207C51BE168606816460844B5422B
:10DFA00006D94146FFF77EFAB819E060BDE8F08176
:10DFB0002A464146FFF776FA761B08EB0501324602
:10DFC0006068FFF76FFAE660F0E702E008C8121F2A
:10DFD00008C1002AFAD170477047002001E001C152
:10DFE000121F002AFBD170470121202803DA81404B
:10DFF0000548014003E0402802DA2038814009B199
:10E000000120704700207047FC06FFBD082806D29B
:10E0100028B1012803D0042801D001207047002036
:10E020007047022000F0BABA10B504468378827AAD
:10E0300041780078C2DF002813D123796279E18822
:10E040002078D3DF00280CD1E1782078CDDF0028BC
:10E0500007D1A178C90704D12189002901D02078EE
:10E06000D1DF10BD10B590F82D0003280CD100F0C1
:10E0700015FE0A4C607840B1032000F0A1FA02209E
:10E0800000F09EFA0020607010BD022000F0A0FA9F
:10E09000032000F09DFA0120F5E70000F82500209C
:10E0A0003EB502F0C9FA1B4A07CA8DE807004FF0D7
:10E0B0008050006EADF806006846FFF7B5FF04001B
:10E0C00009D0024614A10020FFF7ABFB20461DA299
:10E0D000D22100F055F94020DDDF040009D00246CE
:10E0E0001EA10020FFF79DFB204616A2D82100F0BC
:10E0F00047F900210846C4DF040009D0024620A1E8
:10E100000020FFF78EFB20460EA2DE2100F038F93A
:10E110003EBD0000240B0300616E745F6368616E96
:10E120006E656C5F696E6974206661696C65642EEA
:10E13000204572726F7220636F64653A2025580A19
:10E14000000000002E2E5C2E2E5C2E2E5C616E7464
:10E150005F696F5F74782E6300000000616E742049
:10E16000696E6974206661696C65642E20457272FF
:10E170006F7220636F64653A2025580A0000000022
:10E1800073645F616E745F6368616E6E656C5F6F10
:10E1900070656E206661696C65642E204572726FD1
:10E1A0007220636F64653A2025580A0070B5002418
:10E1B000064D06E06868012110F8340001F010F9FE
:10E1C000641C28788442F5D3002070BD14260020FA
:10E1D000F8B515460C460646052A01D20720F8BDBB
:10E1E00001F0E4F918B901F0B3F90028F7D11049AA
:10E1F00000204E600C70C1E902500E4D08610DE028
:10E2000006EBC4006968009181788DF801100078F0
:10E21000094A694601F036F90028E0D1641EE4B2EB
:10E22000EED2BDE8F840054A0021024800F0E6B809
:10E2300014260020680B030045EC020055EB020099
:10E240002DE9FC4114468846074601F00DFE00BF4B
:10E2500001F058FC0028FBD10125234E012F27D0C7
:10E260006FF48050381828D0B0F5405F2CD06FF490
:10E270004051C84208D13088238805EB00401BA1DB
:10E28000626801F042FD06E03088424605EB00403E
:10E290001DA101F033FD22480068C00700D000BE78
:10E2A000224602B041463846BDE8F04100F074B85D
:10E2B00030881CA105EB004003E0308821A105EB6C
:10E2C000004001F017FDE6E7A06802F03BF80346C6
:10E2D00021886068CDE90001308823A105EB00406A
:10E2E000A26801F01AFDD6E7CC2600204153534521
:10E2F0005254494F4E204641494C454420617420B8
:10E3000025733A2575000000554E4B4E4F574E2051
:10E310004641554C542061742030782530385800DF
:10E32000F0ED00E0534F46544445564943453A20EA
:10E33000415353455254494F4E204641494C454460
:10E3400000000000534F46544445564943453A2087
:10E35000494E56414C4944204D454D4F525920415C
:10E3600043434553530000004552524F52202575F8
:10E37000205B25735D2061742025733A25750000AC
:10E380000EB5ADF80010CDE901206A46002144F237
:10E390000100FFF755FF0EBD08B501238DF80030D1
:10E3A0009DF80030144B186059609A606FF48041FA
:10E3B000401807D001280FD1DA60D868008898612A
:10E3C000D86807E01A611869806858611869008880
:10E3D000986118694068D861186858689868D86862
:10E3E000186958699869D86972B600BF9DF800002D
:10E3F0000028FBD162B608BDE0270020084B9B78BF
:10E4000023B12AB120B10068037C1BB108207047FA
:10E410000720704700230374417442611846704717
:10E420000028002070B502F047F8104800240B21A6
:10E43000047044700E4D817014206C602C706C70F0
:10E44000FFF750F907211420FFF76DF91420FFF7AB
:10E4500054F90848046007211120FFF764F90548C2
:10E46000001F0068A860002070BD00000028002088
:10E4700028260020081501402DE9FC47DFF8789098
:10E4800099F8023073B368B3052902D20720BDE8BA
:10E49000FC87436933B3437C012B25D00027044616
:10E4A0000025884616468DF80050684600F038F87A
:10E4B00001A802F01FFBC8B1012101700F4944609F
:10E4C0000968C0E90218C0E904769DF8040089F8DB
:10E4D00001009DF8000000F047F81420FFF718F93C
:10E4E0002846D4E70820D2E70F46D8E704259DF850
:10E4F000000000F039F8F3E700280020041501407F
:10E500000649897839B130B1416921B100210174DE
:10E51000022102F037BA08207047000000280020CE
:10E5200030B5EFF3108172B60D4A9468012324B11F
:10E530000370002900D162B630BD93604FF0E02334
:10E54000D3F88051074C25401560C3F88041D3F8BB
:10E55000844154605A17C3F8842100220270E8E70E
:10E560000C290020FC06FFBD0B498A68002A11D047
:10E5700000280FD1EFF3108072B60B684FF0E02245
:10E58000C2F800314B68C2F8043100228A600028CA
:10E5900000D162B6704700000C29002007490B5CCF
:10E5A0004FF0A041D1F804250120984020EA020351
:10E5B000C1F808351040C1F80C057047300B030056
:10E5C0000249085C012101F0A4B90000300B0300EE
:10E5D0000249085C002101F09CB90000300B0300E7
:10E5E0000649095C4FF0A040D0F80405C84010F07F
:10E5F000010000D0012080F001007047300B0300C3
:10E600007CB50024084E25460122305D009500238C
:10E610001146019501F048F9641C042CF4D3BDE8BF
:10E620007C4000F003B80000300B030010B500245C
:10E630002046FFF7C5FF641C042CF9D310BD10B5AC
:10E6400000242046FFF7C4FF641C042CF9D310BD3E
:10E6500010B50246064B4FF0FF3000215C5C94423F
:10E6600001D1084610BD491C0429F7D310BD000094
:10E67000340B03002DE9F0470D468146FFF7E8FF14
:10E680000446042836D2DFF874801B481C4EA8F1DB
:10E690000C0725B3012D0ED0022D2BD104EB440025
:10E6A00030444578002D25D0B968002922D028466D
:10E6B000BDE8F047084704EB4401755C0E447178EF
:10E6C00049B10E4A4FF40041093A8068FFF7D4FE81
:10E6D00008B987F80390B17808F80410E2E7806879
:10E6E000FFF70EFF04EB4401314418F804008D7865
:10E6F000A842D7D0BDE8F087380B030010260020D1
:10E700003C27002070B50023042810D20D4D00EBEB
:10E710004004012A02D101290CD00022094E00EB4D
:10E720004000304461B1012906D0022906D00723F8
:10E73000184670BD0E30C2B22A55F9E74270F7E7AD
:10E740008270F5E73C27002070B506461E4800247D
:10E75000C0E90161B00720D50025012211462846F5
:10E76000FFF7D0FF6D1C0446042D02D2002CF4D01C
:10E7700013E094B940F2666204211448FFF728FDC3
:10E7800004000AD1FFF712FD040006D10F48104A19
:10E790000021001FFFF732FE0446F00701D0FFF70B
:10E7A0002FFF74B909480B4A00210C38FFF726FEE9
:10E7B000040006D10548084A01210838FFF71EFE6B
:10E7C0000446204670BD000004260020440B0300D0
:10E7D0002DEA020091EE020023E002002DE9F05F35
:10E7E0006A4C054600266078B34618B184F801B03B
:10E7F00000F036FB664F4FF47A694FF4C87A4FF059
:10E800000108182D62D2DFE805F0AC0C0C31404D48
:10E8100062676B746B74BE7D7D7D7D7DACAFB2B580
:10E82000BEBE0020FFF7DCFE00284FF0000008D03D
:10E83000FFF7C6FE022D02D14FF4E16008E0484622
:10E8400006E0FFF7C5FE022D01D1C82000E05046CA
:10E85000410CC0034FF4FA72801841F10001257099
:10E8600052000023FEF7E8FD01462AE00020FFF7F2
:10E87000B7FE00284FF0000004D0FFF7A1FE4FF4D0
:10E880004870E5E7FFF7A4FEDFE70020FFF7A8FEEA
:10E8900000284FF0000002D0FFF792FECFE7FFF70D
:10E8A00097FED4E70020FFF79BFE00284FF0000002
:10E8B00002D0FFF785FE01E0FFF78AFE257041F6E2
:10E8C0009A1100223868FFF7D7FD064646E000207F
:10E8D000FFF764FE257008E0002051E025703DE060
:10E8E00084F801800120FFF759FE002240F6CD4157
:10E8F000E8E784F801800120FFF750FE00224FF482
:10E900008041DFE77868FFF7FBFD0646D5F111008F
:10E9100000D02EB10220FFF753FE84F802B01DE0B4
:10E92000012816D980B2C8214843C117C90341EA5A
:10E930005041C0034FF4FA72801841F100015200B7
:10E940000023FEF779FD014600227868FFF794FD69
:10E9500006460220FFF73CFE84F802803046BDE800
:10E96000F09F00F07DFAB9E700F07AFAB4E700F022
:10E9700077FA04E000F074FA0020FFF729FE012086
:10E98000FFF726FEAAE7FFF75AFEA7E704260020B6
:10E99000380B0300F8B5871C00208DF800000E46E8
:10E9A00001256846FFF7BCFD124C20683060D4E9B1
:10E9B0000001401AA168091ABE1C06E000F0EEFA38
:10E9C000D4E90001401AA168091A491C8E42F5D801
:10E9D000A1682068084004EB8000C16841F0030191
:10E9E000C1602068384420609DF80000FFF7BCFD3E
:10E9F0002846F8BDD42A002030B482680468531C2D
:10EA00008360A154D0E901128A4202D330BC00F0E5
:10EA1000E4BD30BC70470000034803C8814201D107
:10EA20000120704700207047D42A0020007802217E
:10EA3000FFF720BE05494FF0FF32082841F820209B
:10EA400002D3084480F8482070470000682700205F
:10EA5000F0B54FF0FF3512B10023082601E008237E
:10EA60000C260C4C05E000BF54F823707F1C04D02A
:10EA70005B1CB342F8D32846F0BD26185DB286F879
:10EA8000305044F82310002AF5D1E11881F84800ED
:10EA9000F1E70000682700200249084490F930009F
:10EAA00070470000682700202DE9F05F2648416884
:10EAB000F1B3DFF898B00E688146DBF80040876854
:10EAC0008078E11B21F07F45ED1CB0B9DFF8808034
:10EAD0004FF48030C8F84403C8F804031120FEF74F
:10EAE00001FE1120FEF709FE4FF0010AC8F800A050
:10EAF0002F2000F013FC89F802A0B54200D2354661
:10EB0000124BE8193C3320F07F401860DBF800100E
:10EB10005A46091B21F07F41001B20F07F40C91C91
:10EB200081420FD9106818602F2000F0F7FB00E039
:10EB300004E0BDE8F05F1120FEF7EABDBDE8F05F3C
:10EB400001F0BABCBDE8F09F282600200415014062
:10EB5000001001402DE9F04100260125144C22E06F
:10EB60006068226900EBC607387805FA00F11142A7
:10EB700017D08A43226100F0E1FC02463878E3684E
:10EB800005FA00F1194002FA00F3994209D17978A7
:10EB9000012901D0012100E0002151407A6802B131
:10EBA0009047761CF6B220788642D9D3BDE8F08132
:10EBB000142600200E4910B50A784C780023A24292
:10EBC00012D0521CD2B20A70022A00D10B70084A2D
:10EBD0000B780C3252F8232002608868104420F031
:10EBE0007F408860012010BD0360002010BD000040
:10EBF0002826002030B50446006885B00D468068A0
:10EC000000281CD014216846FEF765FC0195A06819
:10EC10000490207910B101280DD104E001208DF875
:10EC20000000206904E002208DF80000E068000385
:10EC3000029060690390206881686846884705B043
:10EC400030BD00002DE9F041124E07460125BD40C0
:10EC50003068FFF755FC00280DD10F4C2069284281
:10EC600007D1384600F06AFC0028E06805D0284348
:10EC700004E0A8432061BDE8F081A843E06020697A
:10EC800028432061A1683068BDE8F0410022FFF709
:10EC9000F3BB0000680B030014260020FEB51BA187
:10ECA0000020FEF7BEFD4FF08050006E204C010E9C
:10ECB0002246E170010C2171010A6171A51EA0714B
:10ECC0002878E07108210020C7DF06000AD002463C
:10ECD00018A10020FEF7A5FD304623A28721FFF7EB
:10ECE0004FFB0AE06079E279A1798DE8070023798A
:10ECF000E27823A10020FEF794FD2878401CC0B2E2
:10ED00002870FF2801D100202870FEBD7265636560
:10ED10006976652054582E2068616E646C65207495
:10ED200072616E736D69742072756E0A0000000066
:10ED3000FA25002073645F616E745F62726F6164B4
:10ED4000636173745F6D6573736167655F74782069
:10ED50006661696C65642E204572726F7220636F04
:10ED600064653A2025580A002E2E5C2E2E5C2E2E2D
:10ED70005C616E745F696F5F74782E6300000000E1
:10ED80005472616E736D6974205458206D6573738D
:10ED900061676520737563636565643A205B2578F8
:10EDA0005D205B25785D205B25785D205B25785DA7
:10EDB000205B25785D0A00002DE9FC5F0E0083468C
:10EDC000DDE90C47C6F1000098469246814600D422
:10EDD0000846012503E000BF90FBFAF06D1C50458A
:10EDE000FADAA84500D9454624B1002E01DB7807A0
:10EDF00000D5641EB80702D5B8F1000F0AD0F80795
:10EE000008D13CB1A54205D220215846641EFFF727
:10EE1000F3FDF6E7002E02DA4E462D2102E07807D8
:10EE200003D52B215846FFF7E7FD07F00300022822
:10EE30000BD1B8F1000F08D13CB1A54205D2302169
:10EE40005846641EFFF7D8FDF6E7CDE90047434674
:10EE500052463146584601F0F3FDBDE8FC9F0000E4
:10EE60000A4810B5807860B1002401E0022C06D079
:10EE70002046FFF7A5FB641C042CF7D310BD032428
:10EE8000F6E7BDE81040FFF7D1BB000004260020E4
:10EE900003480179C90702D00078FFF79FBC70478B
:10EEA000042600202DE9F047394E002780463D46D4
:10EEB000DFF8E090D6F804A057E003D00446D0F87D
:10EEC0001C8035E099F8002002EB4201521CD2B2BE
:10EED00089F8002009EBC10199F80230091D9A4216
:10EEE00001D189F8005048680A780446012A12D0F6
:10EEF000022A02D0032A3BD108E001F013FD00B141
:10EF00000127257434E00574C06900E070680028AA
:10EF1000F9D170602CE0207C50BB88686060C868C4
:10EF2000A0600869E0604869A061F07800B16560A0
:10EF30006268B168184B501A20F07F40984202D2A4
:10EF4000A168084406E0881AA16820F07F40814249
:10EF500002D9081A206000E0256065600120A560E4
:10EF600020742046E56101F0BFFCB8F10000A4D197
:10EF700099F8001099F801008142A3D117B971687E
:10EF8000514502D00120BDE8F0870020FBE70000DA
:10EF90002826002000280020FFFF7F0070B588B0E1
:10EFA000214800F059F92048001F064600F054F9A6
:10EFB0001E4DD5E9014105E0C0F3891202EB9050E6
:10EFC000641C044404EA010005EB8000C068820769
:10EFD000F2D000200DF1080204EA010305EB8303DF
:10EFE000641CDB6842F82030401C0228F4D30298ED
:10EFF00000F00300012808D002280AD1029803215A
:10F0000001EB905004EB900403E00298C0F38310EE
:10F0100004443046002101AAFEF7C7F9002800D0B9
:10F020006C6008B070BD0000EC2E0020D42A0020D7
:10F030002BA10020FEF7E8FB002000F0CFFE0446E5
:10F0400000BF254635B100BF2BA252212846FFF74D
:10F0500097F900BF00BF00F047FD00F0E3FF044652
:10F0600024B1224628A10020FEF7DBFB00BF254685
:10F0700035B100BF20A25B212846FFF781F900BF10
:10F0800000BFFFF7CFF9044624B1224628A1002093
:10F09000FEF7C7FB00BF254635B100BF16A26221AF
:10F0A0002846FFF76DF900BF00BF00210320FFF7DE
:10F0B0004BFB044624B1224627A10020FEF7B1FBFA
:10F0C0000020FFF785FAFEF7EBFF00BF00BF00BF8F
:10F0D00000F018FD0028FBD100BF00F0B7FFF5E7F6
:10F0E0000A206D61696E2066756E6374696F6E20AB
:10F0F00072756E210A0000002E2E5C2E2E5C2E2EC4
:10F100005C6D61696E2E63006E726620707772208E
:10F110006D676D74206661696C65642E204572723E
:10F120006F7220636F64653A2025580A0000000062
:10F130006170702074696D657220696E69742066F3
:10F1400061696C65642E204572726F7220636F6412
:10F15000653A2025580A000062737020696E697450
:10F16000206C6564206661696C65642E204572724E
:10F170006F7220636F64653A2025580A0000000012
:10F180002DE9F047C7880446181D16468946B0FB8E
:10F19000F7F1B0FBF7F207FB12009A193A44D21CC0
:10F1A000B2FBF7F2DDF820A001E02468491E002937
:10F1B000FBD13D1A8846B54216D818E0BAF1000FC7
:10F1C00005D0211809EB08002A46091D04E0204457
:10F1D00009EB08012A46001DFEF764F900202468A7
:10F1E000761BA844B74201D9354600E03D46002EC3
:10F1F000E4D1BDE8F087000030B5024669B100F007
:10F200001BFE0021084C0BE001EB410304EB8303E0
:10F2100015685B88AB4202D11160002030BD491CEB
:10F220008142F1D3052030BDA826002010B50A8800
:10F2300049888A4203D1FEF72FF8012010BD002033
:10F2400010BD70B50C460546FEF709F8002802D03F
:10F2500061882868084470BD08B501216A46FEF738
:10F2600097F8009808BD38B5044600258DF8005081
:10F270006846FFF755F921686268086890420ED920
:10F28000401E08600178238AE26801FB0325227A88
:10F290002168101AC0B20A79824200D208719DF822
:10F2A0000000FFF761F9284638BD38B50546002053
:10F2B0008DF800000C466846FFF732F9E868298AA5
:10F2C000201AB0FBF1F12A681068431C136001702A
:10F2D0009DF80000FFF748F938BD10B530B1017A4C
:10F2E00042680368891AC9B21A6006E00E2010BD90
:10F2F00003681A68541C1C601170491EC9B2F7D209
:10F30000006800210171084610BDC20800F0070323
:10F310000120895C984008407047000000283ED0DA
:10F320001F49204A096800BF00BF00BF00BF00BFDF
:10F3300000BF00BF00BF91422FD000BF00BF00BF81
:10F3400000BF00BF00BF00BF00BF00BF00BF00BFC5
:10F3500000BF00BF00BF00BF00BF00BF00BF00BFB5
:10F3600000BF00BF00BF00BF00BF00BF00BF00BFA5
:10F3700000BF00BF00BF00BF00BF00BF00BF00BF95
:10F3800000BF00BF00BF00BF00BF00BF00BF00BF85
:10F3900000BF00BF00BF00BF00BF0138C3D170472E
:10F3A000A42600200024F4004907090E002806DAEC
:10F3B00000F00F0202F1E02282F8141D03E000F1D8
:10F3C000E02282F8001400F01F0201219140400960
:10F3D000800000F1E020C0F88012C0F800117047F2
:10F3E0002DE9F0418846054600F0B6FF234E00287F
:10F3F00028461AD0FFF750FB304490F848008009A7
:10F40000032802D001280ED007E04FF0A040D0F82A
:10F410001005E84010F0010F05D003212846BDE893
:10F42000F04100F065BA0221F8E700F0A1FF0028E2
:10F4300022D02846FFF730FB04464FF4807000EBE3
:10F4400084000F4F81B207EB8400D0F8102542F002
:10F450000102C0F81025084600F07AFAB8F1000F52
:10F460000AD02846FFF718FB56F82000002803D0E2
:10F470000120A040C7F80403BDE8F0816827002000
:10F48000006000402DE9FC41DFF8A480044608EB51
:10F490000400002790F930001346C0170E46401CA8
:10F4A00001D0082741E0F27819462046FFF7D0FA4C
:10F4B0000546401C38D0B07850B14FF0A04000EB6A
:10F4C0008400D0F8001721F00201C0F8001707E00F
:10F4D00000217378204600910A46019100F0F6F968
:10F4E000F078C0B11348317800EB8500D0F81025D2
:10F4F000114B1A40C0F810254FF4F8524FF4403326
:10F5000002EA042203EA01410A43D0F810150A4333
:10F51000C0F8102509E008EB0500327810F8481F04
:10F5200041EA8211017000E004273846BDE8FC8101
:10F530006827002000600040FFE0FCFF4FF0A04182
:10F54000D1F81015C14011F0010000D00120704722
:10F5500070B5144D95F8540008B1082070BD002016
:10F56000411E2A18401CC0B282F830102028F8D35F
:10F5700000242046FFF75EFA641CE4B20C2CF8D39A
:10F5800007210620FFF710FF4FF4BE7000F0E0F9EE
:10F5900005494FF00040C1F80403012085F85400EC
:10F5A000002070BD6827002000600040034890F8EC
:10F5B0005400002800D00120704700006827002078
:10F5C0000FB408B50399002904D004AA00926A4632
:10F5D00000F00FF801B05DF814FB10B58268044626
:10F5E000002A05D0D4E90403216898470020A060D0
:10F5F00010BD2DE9FC4791460C00804676D014F8EA
:10F60000011B39B125290ED04046FFF7F5F92078C6
:10F610000028F4D198F80C00002867D04046BDE8D7
:10F62000FC47FFF7DABF0020012221782B291BD0ED
:10F630002D2902D0302908D102E040F0010001E07C
:10F6400040F00200641C002AEFD100252A290ED0C8
:10F650002178A1F130020A2A11D205EB850201EBD3
:10F660004205641C303DF1E740F00400EAE7D9F8B8
:10F6700000100B1DC9F800300968641C0D44217886
:10F6800000232E290BD114F8011FA1F130020A2A00
:10F6900005D203EB830201EB4203303BF3E76C2915
:10F6A0000DD068290BD0692921D00BDC252918D071
:10F6B000582931D063290ED0642915D117E014F8E8
:10F6C000011FECE7702969D0732932D075291BD04E
:10F6D000782909D120E0D9F80000011DC9F80010EF
:10F6E00001784046FFF788F9641C90E76CE0D9F890
:10F6F00000100A1DC9F800200968CDE900500A224F
:10F700004046FFF759FBEFE7D9F800100A1DC9F88A
:10F71000002009680A2206E0D9F800100A1DC9F87D
:10F72000002009681022CDE90050404601F088F918
:10F73000DAE7D9F8001000270A1DC9F800200E6882
:10F74000C00705D112E04046761C7F1CFFF754F934
:10F7500031780029F7D104E0202140466D1EFFF7E3
:10F760004BF9BD42C0D9002DF6D1BDE74EB13046B0
:10F77000FDF7BCFE074604E0202140466D1EFFF762
:10F780003BF9BD4206D9002DF6D103E04046761C78
:10F79000FFF732F931780029F8D1A5E7D9F8000050
:10F7A000011DC9F80010056830214046FFF724F913
:10F7B00078214046FFF720F908200021CDE900011B
:10F7C000034610222946B0E7BDE8FC870448012122
:10F7D0004174007A08B10020704701207047000092
:10F7E000A4290020012801D0032808D104490022BF
:10F7F00001284A7400D00020087400F011BE704740
:10F80000A429002070B5254C0246207A012837D063
:10F81000022841D122480023022A006802D0032A8C
:10F820002ED11BE0E360017911B1012928D10DE04F
:10F83000D0E90565711B4FF48056B14200D33146C3
:10F84000294481614569A9420ED019E00169491C2A
:10F8500001614269914213D1237217E0E168491CAA
:10F86000E16008290CD9E3602372022A0ED00D2131
:10F87000FFF7C0F90B480A49091D0068FFF7D6FCDD
:10F88000607C28B1BDE8704000F0CABC0021EFE701
:10F89000BDE8704000F0C4BD70BD0000A429002088
:10F8A0003C260020800B030070B541EA4201DDE9EF
:10F8B00004564FF0A04441EA830141EA052104EBDC
:10F8C000800041EA0641C0F8001770BD70B541EAFA
:10F8D0004201DDE904564FF0A04441EA830141EAC8
:10F8E000052104EB800041EA0641C0F8001770BD15
:10F8F0004FF0A04202EB8000D0F8002722F4403203
:10F90000C0F80027D0F8002742EA0141C0F80017EC
:10F91000704701224FF0A043824011B1C3F808257F
:10F920007047C3F80C25704718B5084B6C46014466
:10F930001B68009306E000BF54F82030D3F8103560
:10F94000401C08C28142F7D818BD0000640B0300B8
:10F95000034908B50844002101600068009008BD13
:10F960000060004002494058012800D00020704744
:10F970000060004030B5124B01460020D3F810441F
:10F98000224609E0157A854205D1401C0A28F7DB9A
:10F990004FF0FF3030BD5268002AF3D1421CF9D03D
:10F9A0000872D3F810242AB152684A60D3F81024A0
:10F9B000516030BD0022C3F810144A6030BD000011
:10F9C000D42A00207047FDF7D1BE704708B5034A1E
:10F9D00000924023024A00F005F808BD9505030097
:10F9E000D4290020F0B595B01C4615460F460846B0
:10F9F0001A9E00F0F1FA182109A8FDF76CFD0E9689
:10FA0000CDE909540023082203A9384600F0FEFA84
:10FA1000059806900498ADF81C0000208DF8200091
:10FA20000398082600F00300012802D002281DD008
:10FA30003CE003983346850AC0F3C2008DF81E00EF
:10FA400003980FA9C0F380008DF81F000398C0F33E
:10FA50008314A200384600F0D9FA09A8009006AB3A
:10FA600022460FA9284600F013FA1FE00398840DE0
:10FA7000C0F3C2008DF81E000398C0F380008DF81B
:10FA80001F00082C01D2254600E0082533462A46EF
:10FA90000FA9384600F0BAFA2E44641B09AB06AA37
:10FAA00029460FA800F044F9002CEAD1384600F0AE
:10FAB0009CFA15B0F0BD00000A4A012902EBC00013
:10FAC00007D0022907D0032907D0042907D0002036
:10FAD00070470220704704207047007970474079D2
:10FAE00070470000DC11030010B5FFF76CFF042124
:10FAF0000348FFF73FFF02490120487210BD000094
:10FB0000942600202DE9F04F8DB0FEF785FF18B147
:10FB100000200DB0BDE8F08F74480021C0F8181423
:10FB2000BFF34F8FD0E9014604EA060100EB8101E3
:10FB30004FF000090AE000BFC1F3891202EB9151B6
:10FB4000641C0C4404EA060100EB8101C9688A07C1
:10FB5000F2D0002103AA804604EA060008EB8000E8
:10FB6000641CC06842F82100491C43460229F3D3B3
:10FB7000039800F00300022806D0012803984FD014
:10FB8000C04380077ED0ACE003985022810D8A46A6
:10FB9000B2EB905F00D850210D4665F39F50039063
:10FBA0000831534800F0CFF907006CD000F014FA88
:10FBB0004B46082203A9384600F02EFA04EA060153
:10FBC000701A8000001D09F1080B854221D9474EAB
:10FBD0000C3630B1C2B208EB8101281A91460C31C3
:10FBE00004E03146EAB2002691463046C5B25B4693
:10FBF000384600F011FA0BEB09032EB12A463146C4
:10FC00004FEA070000F008FA0AF1030004EB900441
:10FC10003BE008EB81015B462A4638460C31F1E7B0
:10FC2000C0F38310062800D30620039960F38911DE
:10FC3000C1F38310801C039181002D4800F083F9EB
:10FC400007004ED000F0C8F94B46082203A93846F9
:10FC500000F0E2F909F1080900250DE004EA0600C8
:10FC600008EB80014B46042238460C31641C00F03E
:10FC7000D3F909F104096D1C0398C0F38310A8425D
:10FC8000ECD801E00BE02CE05FB3D8F81054D8F8C2
:10FC90001804464690B1384600F0A7F921E0D3F8A1
:10FCA000180400283FF435AF1BE0687A012804D11E
:10FCB000296828460A68394690476D68002DF4D1B6
:10FCC000384600F092F900208DF800006846FEF7F3
:10FCD00027FCD6F8180400B974609DF80000FEF700
:10FCE00043FCFEF799FE80F0010012E7D42A0020C1
:10FCF000C40C030000231A4600F038BD08B50123E8
:10FD000000926A4600F032FD08BD1CB5CDE9002323
:10FD100002236A4600F02AFD1CBD7FB5DDE90845D7
:10FD20008DE83C0004236A4600F020FD7FBD000002
:10FD30002DE9F0470E4680461C46924608293ED8DB
:10FD400094F80C90002020731946104600F03AFBFE
:10FD50000025B54206D218F805201AA12046FFF763
:10FD60002FFC03E019A12046FFF72AFC6D1C082D8B
:10FD7000EFD317A12046FFF723FC0025B54210D290
:10FD800018F80570FDF78AFB0068C05D10F03E0FA3
:10FD900001D03A4600E02E220EA12046FFF710FCCB
:10FDA00003E00DA12046FFF70BFC6D1C082DE5D3E9
:10FDB00001222146504600F0E7FA84F80C90BDE895
:10FDC000F08700002025303278000000202020003D
:10FDD0007C0000002563000020000000114810B5E1
:10FDE000FF218160002101604160C0F81814C0F853
:10FDF0001414012180F81C140B4800F0F4F80028BA
:10FE00000ED10A480A490B4B401AC108002004E0F1
:10FE100000EB400223F82200401C8842F8D3002067
:10FE200010BD0000D42A0020C40C030014120300EB
:10FE3000DC110300A826002002480349401AC0082C
:10FE40007047000014120300DC11030013B568466C
:10FE5000FFF7D2F908B100201CBD0248009950F804
:10FE600031001CBDDC11030070B508480125D0F835
:10FE7000104480F81C5405E06572216820464968EA
:10FE800088476468002CF7D170BD0000D42A002098
:10FE90002DE9FF4781460C9D00200C462F7B2873DF
:10FEA000984616462946184600F08CFA072E42D28C
:10FEB000DFE806F004090F161F2A360049462846D7
:10FEC000FFF77EFB37E0494628462268FFF778FBBC
:10FED00031E0D4E9002349462846FFF771FB2AE0C8
:10FEE000A0680090D4E9002349462846FFF768FB44
:10FEF00021E0D4E90201CDE90001D4E9002349461B
:10FF00002846FFF75DFB16E004F1080007C88DE8FE
:10FF10000700D4E9002349462846FFF751FB0AE0D1
:10FF200004F108000FC88DE80F00D4E9002349460A
:10FF30002846FFF745FB00222946404600F024FAF8
:10FF40002F73BDE8FF872DE9F041058A80462D1FFC
:10FF50004819C01CB0FBF5F0C6B24046FFF783F964
:10FF6000041E19D00020207101206071E580002757
:10FF70002546761EC4F800800BE04046FFF773F973
:10FF800060B16179491C6171286005467F1CC0F829
:10FF90000080B742F1D32046BDE8F081204600F052
:10FFA00002F80020F8E72DE9F041457901466B1E83
:10FFB000002201E00968521C9A42FBD30F680146F7
:10FFC000002605E038460C68FFF76FF92146761CDD
:10FFD000AE42F7D3BDE8F08108B501216A46001DA5
:10FFE000FDF7AFF908BDFFF778B938B50446001D35
:10FFF00001216A46FDF7B2F9009810F0FF0F04D115
:020000040003F7
:100000002046BDE83840FFF7CEBF38BD38B50124E3
:100010000094FFF7B5F838BD38B500240094FFF719
:10002000AFF838BD064910B500204870091D0860BA
:10003000BFF35F8F0349044800F040F9002010BD72
:1000400044260020A80B0300C829002008B5002082
:100050008DF800006846FEF763FAF1EE100A20F012
:100060009F00E1EE100ABFF35F8F08494020C1F8FE
:1000700080029DF80000FEF777FA00F0CBF808B197
:100080003EDF08BD20BF40BF20BF08BD04E000E048
:100090000EB5034A07CA8DE807006846FADF0EBDB1
:1000A0005C0D030030B58FB00DF12D040BAD6A4629
:1000B00021462846C1DF40B1052816D00FB00CA25A
:1000C000BDE830408121FEF75BB919490CA800F06A
:1000D000F5F806E0D0E90021684690470CA800F04A
:1000E00004F90E980028E2D0F4E70FB030BD00000C
:1000F0002E2E5C2E2E5C2E2E5C2E2E5C2E2E5C2E3A
:100100002E5C636F6D706F6E656E74735C736F667B
:10011000746465766963655C636F6D6D6F6E5C6E4C
:1001200072665F7364685F616E742E630000000026
:10013000500D030010B50D4C2078A0B10120A07027
:1001400000F0FAF911280CD0022000F00DFA11DFAE
:10015000002807D12070A07000F032FA032000F0D0
:1001600003FA002010BD082010BD0000A0260020CA
:1001700038B5124C207808B1082038BD0125A5708B
:10018000002000F0D9F9112815D0002000F0ECF97A
:100190000B480CA2154900680090684610DF002843
:1001A000EBD12570A070607000F028FB00F096FA8B
:1001B000012000F0D9F9002038BD0000A026002061
:1001C000F80C0300333833312D353231642D376468
:1001D00066392D323464382D656666332D343637F2
:1001E000622D323235662D613030650041E2020009
:1001F0000EB50749684600F061F805E0D0E9001047
:100200008847684600F071F802980028F6D10EBDC4
:10021000140D03000148007870470000A02600205C
:100220000548817819B1007818B1FFF783BF08201D
:100230007047FFF79DBF0000A02600201FB568464D
:1002400048DF40B1052816D004B00BA2BDE810402D
:100250006B21FEF795B8184901A800F02FF806E0C9
:10026000D0E900210098904701A800F03EF80398DB
:100270000028E4D0F4E71FBD2E2E5C2E2E5C2E2E1F
:100280005C2E2E5C2E2E5C2E2E5C636F6D706F6E5E
:10029000656E74735C736F66746465766963655CC0
:1002A000636F6D6D6F6E5C6E72665F7364685F73B3
:1002B0006F632E6300000000780D03000160096881
:1002C0004160AFF3008010B5D0E900215368994236
:1002D00001D1002104E0D1E90034A34202D0194643
:1002E000816010BD08314160F0E7816800290BD0C2
:1002F000026892680A44826041684B689A4203D15E
:1003000008314160FFF7DFBF704700000C4A10B5AD
:1003100002F1F0030EE0991AC91001EBD1714910F6
:1003200002EBC1010C68844201D90B4602E005D200
:1003300001F108029A42EED3002010BD486810BDBA
:10034000C80B030000B5FFF7E1FF002800D101480A
:1003500000BD0000B40B03000449084490F93000CC
:10036000082801DB01207047002070476827002023
:100370000449084490F93000082801D20120704750
:10038000002070476827002010B50C46C17949B19C
:100390001AB109A12046FFF713F92046BDE8104025
:1003A000FFF71BB9007A0028F3D0044804A10268C3
:1003B0002046FFF705F9ECE70D0A00007026002043
:1003C0002573000070B50446C0790D4600281CD185
:1003D000207A50B1A179A088FFF76EFB0B4951F844
:1003E00020200BA12846FFF7EBF8A0880021FFF79B
:1003F0002DFD03460549A079143951F820202846DF
:10040000BDE8704003A1FFF7DBB870BD7026002087
:10041000257300003C25733E2025733A2000000020
:100420002DE9F041214C0025214E207A012730B9D9
:100430002048311D0068FEF704FF306038B102200B
:1004400020723168087928B101281ED116E0656054
:10045000BDE8F081D1E90503C01A4FF48052904203
:1004600000D31046B7EB900F01D2820800E00122C2
:100470000869C9681844194429DF03E0D1E9030178
:10048000084428DF38B111280ED003213068FEF768
:10049000B1FB2572DBE7207C0028D9D1BDE8F04113
:1004A00000210220FFF7AEB92772D1E7A42900206E
:1004B0003C260020800B030070B5012670044FF02D
:1004C000E0210025C1F88001084C4010C4F8480321
:1004D000C4F8080366602F20FEF720FFA660044CD6
:1004E0002F20A560FEF71AFFA57070BD0010014017
:1004F0002826002070B50D460446FDF775FD70B145
:100500002846FDF783FD68B16807000E002C0CDA61
:1005100004F00F0101F1E02181F8140D09E042F22D
:10052000010070BD42F2020070BD04F1E02484F8C5
:100530000004002070BD00003EB50446094968462D
:10054000FFF7BCFE08E000BFD0E90021204690473D
:1005500030B16846FFF7C9FE02980028F4D13EBDCD
:1005600011203EBDFC0C03003EB504460849684618
:10057000FFF7A4FE07E000BFD0E900212046904726
:100580006846FFF7B2FE02980028F5D13EBD000094
:10059000080D03002DE9F04114000F460DD0002591
:1005A0000A26791922460020FDF700F90544241A8D
:1005B00008B9761E01D0002CF3D1BDE8F08100000F
:1005C00010B51620FDF710FD48B10B4882684FF4B6
:1005D000800162B1016821F48001016010BDBDE8B5
:1005E000104042F2010005A2A521FDF7C9BE4FF05F
:1005F000E020C0F8801110BD0C2900202E2E5C2EAA
:100600002E5C2E2E5C2E2E5C2E2E5C2E2E5C636FAE
:100610006D706F6E656E74735C736F66746465760F
:100620006963655C636F6D6D6F6E5C6E72665F7340
:1006300064682E630000000010B5FFF799FD041EEA
:1006400008D00DA2AA21FDF79BFE224610A1002092
:10065000FDF7E7F8FFF71CFD04000BD0024616A1DA
:100660000020FDF7DEF82046BDE8104002A2B421CC
:10067000FDF786BE10BD00002E2E5C2E2E5C2E2EA9
:100680005C616E745F696F5F74782E6300000000B8
:100690006E72662073646820656E61626C652066A8
:1006A00061696C65642E204572726F7220636F649D
:1006B000653A2025580A00006572725F636F6465B1
:1006C000206661696C65642E204572726F722063CA
:1006D0006F64653A2025580A0000000010B5162006
:1006E000FDF782FC80B1104890F800044009FDF746
:1006F0008DFC60B10D4882684FF480017AB10168C9
:1007000041F48001016010BD42F2010001E042F2BB
:100710000200BDE8104006A29921FDF731BE4FF05E
:10072000E020C0F8001110BD16E000E00C29002008
:100730002E2E5C2E2E5C2E2E5C2E2E5C2E2E5C2EF3
:100740002E5C636F6D706F6E656E74735C736F6635
:10075000746465766963655C636F6D6D6F6E5C6E06
:1007600072665F7364682E63000000002DE9F84331
:10077000214C8846054691461F4669461846A6689C
:10078000FEF708F970B30098811C00220AE000BF50
:1007900001EA060C59F8223004EB8C0C491C521C5F
:1007A000CCF80C30BA42F3D30246401C304004EB84
:1007B00080002B0CC36002EA060004EB8002E8060E
:1007C00052F80C0F02D540F0040001E020F00400C4
:1007D00065F3C50067F3891068F39F2020F00300DC
:1007E000401C106094F81C0402E000BFFFF78AF977
:1007F0000028FBD1BDE8F883D42A002010B50721DA
:100800001620FFF777FE18B108A2B821FDF7B8FD52
:1008100007211520FFF76EFE002805D0BDE8104027
:1008200002A2BA21FDF7ACBD10BD00002E2E5C2E39
:100830002E5C2E2E5C2E2E5C2E2E5C2E2E5C636F7C
:100840006D706F6E656E74735C736F6674646576DD
:100850006963655C636F6D6D6F6E5C6E72665F730E
:1008600064682E63000000002DE9F84F1D4C002540
:100870006846D4E901A6FEF79DF9002738B30023A6
:10088000009A61681CE0D1F800C00846944503D97D
:10089000ACEB02020A6015E0A2EB0C0263440760B5
:1008A000D0F80CC0C1698146BCF1000F08D006EB3E
:1008B000030828F07F48C0E9018CC9F81C500546A0
:1008C0000029E0D128466160FEF7ECFA03E02846F3
:1008D000FEF7E8FA10B15046FEF7E6F8E770BDE81B
:1008E000F88F0000282600200D4B10B5596831B153
:1008F00002680C68A24204D8A21A0A60C16158605A
:1009000010BD0B4603E00B46C969121B21B10C68F0
:100910009442F8D3A41A0C600260C161D86110BD82
:10092000282600202DE9F041144E77683D462C46DC
:1009300003E0844204D02546E469002CF9D11BE091
:10094000D4B1A5420BD1F869706040B90C490120BF
:1009500088600021B160F0702F20FEF7DFFC216875
:10096000E069E86110B10268114401607068874273
:1009700002D00120BDE8F0810020FBE728260020FE
:10098000001001407CB5064600240D468DF800405D
:100990006846FDF7C5FD01A800F0ACF870B1057020
:1009A000094946609DF8040048709DF80000FDF775
:1009B000DBFD1420FCF7ACFE20467CBD04249DF832
:1009C0000000FDF7D1FDF7E7002800202DE9F041F8
:1009D000194D6C68002C2CD0184800270068A968B5
:1009E000B846401A20F07F462068B0420CD8214615
:1009F000361A0744E469087C20B181F810808869C0
:100A000049698847002CEFD129786878814206D15E
:100A1000401CC0B26870022801D185F801800648E8
:100A200069780C3040F82170BDE8F0411420FCF7E3
:100A30006FBEBDE8F08100002826002004150140AB
:100A40002DE9F05F8346DDE90A4A994690460D4656
:100A50000846012703E000BFB0FBF8F07F1C4045CB
:100A6000FAD2B94500D94F465FEACA7012D18CB1AB
:100A70005FEA8A7002D5B9F1000F01D0202607E0A5
:100A8000302605E031465846641EFDF7B5FF0CB12F
:100A9000A742F7D35FF00106B9F1010F02D9A9F11E
:100AA000010903E0B5FBF6F0404502D306FB08F66A
:100AB000F2E7DFF83C9000BFB5FBF6F000FB1655FF
:100AC00019F800105846FDF797FFB6FBF8F6002E10
:100AD000F2D15FEACA7009D0002C07D0A74205D234
:100AE00020215846641EFDF787FFF5E7BDE8F09F1B
:100AF000700B03000A494A788B78521CD2B2934299
:100B000000D100220B78934201D10020704702707F
:100B1000487800EB400001EBC000001D704700006A
:100B20000028002000100032050200000020000014
:100B3000111213140D0E0F10FC2600201C2700208C
:100B4000482700200D00030075E602000E00030098
:100B500075E602000F00030075E6020010000300B6
:100B600075E6020000000050C027002003000000CE
:100B700030313233343536373839414243444546D3
:100B8000B82900200010000004000000010000004F
:100B90000000000000000000000000000000000055
:100BA0000000000000000000900B0300A80B0300F1
:100BB00004000000556E6B6E6F776E206572726F69
:100BC0007220636F6465000000000000E410030001
:100BD00001000000A40F030002000000240E030027
:100BE0000300000018100300040000006C10030054
:100BF00005000000640F030006000000040F03005E
:100C0000070000005410030008000000780F0300E4
:100C100009000000C40F03000A000000CC1003000C
:100C20000B0000000C0E03000C000000900F0300EE
:100C30000D000000F01003000E000000441003003F
:100C40000F0000008010030010000000B41003002B
:100C5000110000000411030080000000440F030095
:100C600081000000C80E030082000000880E03000F
:100C700083000000680E030084000000A40E03003F
:100C8000850000001C0F0300860000002C100300EC
:100C900090000000E40E030091000000480E0300E5
:100CA000008200009410030001820000E00F0300A6
:100CB00002820000FC0F0300CDF90200CBF9020014
:100CC000C5F90200542600204C260020542600209E
:100CD000142A002018000000303132333435363702
:100CE00038394142434445461C1203002412030094
:100CF000000000000000000001000007E80C0300F5
:100D0000F80C030008000000200D0300300D030064
:100D100008000000300D0300400D03000800000033
:100D20003C12030044120300000000000000000019
:100D30002C1203003C120300000000000000000021
:100D40000000000000000000141203001C12030049
:100D5000400D0300500D03000800000001002000BA
:100D60007C31002080000000241203002C120300BC
:100D70000000000000000000680D0300780D030073
:100D80000800000000404040404040404040414199
:100D90004141414040404040404040404040404050
:100DA00040404040400502020202020202020202EA
:100DB00002020202022020202020202020202002E7
:100DC0000202020202029090909090901010101077
:100DD0001010101010101010101010101010101013
:100DE00002020202020288888888888808080808A7
:100DF0000808080808080808080808080808080873
:100E00000202020240000000850D03004E52465FC0
:100E10004552524F525F494E56414C49445F4441FE
:100E2000544100004E52465F4552524F525F534F5D
:100E300046544445564943455F4E4F545F454E41E5
:100E4000424C4544000000004E52465F4552524F0E
:100E5000525F464541545552455F4E4F545F454E93
:100E600041424C45440000004E52465F4552524FAD
:100E7000525F4D555445585F554E4C4F434B5F465E
:100E800041494C45440000004E52465F4552524F86
:100E9000525F4D555445585F4C4F434B5F46414957
:100EA0004C4544004E52465F4552524F525F4D559D
:100EB0005445585F434F4E445F494E49545F464145
:100EC000494C4544000000004E52465F4552524F87
:100ED000525F4D555445585F494E49545F4641490C
:100EE0004C4544004E52465F4552524F525F41506E
:100EF000495F4E4F545F494D504C454D454E54450A
:100F0000440000004E52465F4552524F525F4E4FD2
:100F1000545F535550504F52544544004E52465F13
:100F20004552524F525F4D4F44554C455F414C52D4
:100F3000454144595F494E495449414C495A4544F9
:100F4000000000004E52465F4552524F525F4D4FD7
:100F500044554C455F4E4F545F494E495449414CAE
:100F60005A4544004E52465F4552524F525F4E4FD3
:100F7000545F464F554E44004E52465F4552524FC5
:100F8000525F494E56414C49445F535441544500C9
:100F90004E52465F4552524F525F444154415F5357
:100FA000495A45004E52465F4552524F525F535682
:100FB000435F48414E444C45525F4D495353494E5F
:100FC000470000004E52465F4552524F525F494E15
:100FD00056414C49445F4C454E4754480000000080
:100FE0004E52465F4552524F525F4452565F5457DD
:100FF000495F4552525F414E41434B004E52465F5E
:101000004552524F525F4452565F5457495F4552C2
:10101000525F444E41434B004E52465F4552524F41
:10102000525F494E5445524E414C00004E52465F6D
:101030004552524F525F53544F524147455F4655B8
:101040004C4C00004E52465F4552524F525F4E5537
:101050004C4C00004E52465F4552524F525F494E33
:1010600056414C49445F504152414D004E52465FFB
:101070004552524F525F4E4F5F4D454D00000000AC
:101080004E52465F4552524F525F464F524249447C
:1010900044454E004E52465F4552524F525F4452B5
:1010A000565F5457495F4552525F4F56455252550D
:1010B0004E0000004E52465F4552524F525F494E1D
:1010C00056414C49445F4144445200004E52465FF1
:1010D0004552524F525F494E56414C49445F464C2F
:1010E000414753004E52465F5355434345535300C7
:1010F0004E52465F4552524F525F54494D454F55EF
:10110000540000004E52465F4552524F525F4255C6
:10111000535900007761726E696E6700646562758D
:10112000670000001B5B313B33306D001B5B306D93
:10113000000000001B5B313B33316D001B5B313B1A
:1011400033326D001B5B313B33336D001B5B313B36
:1011500033346D001B5B313B33356D001B5B313B22
:1011600033366D001B5B313B33376D00696E666F44
:10117000000000006572726F720000006770696F96
:101180007465000062616C6C6F6300007077725F61
:101190006D676D7400000000617070006E72665FB4
:1011A000736468006E72665F7364685F616E74007A
:1011B0006E72665F7364685F736F6300441203004E
:1011C000F825002004010000CADF020048130300D4
:1011D000FC260020042B0000DADF02007C11030053
:1011E0000000000084110300000000008C110300C7
:1011F0000000000098110300000003009C11030090
:1012000000000300A411030000000300B01103005C
:101210000000030065E0020000000000CDF70200BE
:101220000000000005F8020000000000A500030017
:10123000000000003D02030000000000E5F702008E
:10124000000000000000000000000000000000009E
:10125000000000000000000000000000000000008E
:10126000000000000000000000000000000000007E
:10127000000000000000000000000000000000006E
:10128000000000000000000000000000000000005E
:10129000000000000000000000000000000000004E
:1012A00000000000000000000000000074110300B6
:1012B000141103006C1103001C1103002C11030016
:1012C00024110300341103003C11030044110300F6
:1012D0004C110300541103005C110300641103005E
:1012E000B80C030000000000000000000000000037
:1012F0000090D0030000000000000000000000008B
:1013000000000000000000000000000000000000DD
:1013100000000000000000000000000000000000CD
:1013200000000000000000000000000000000000BD
:1013300000000000000000000000000000000000AD
:081340000000000000000000A5
:040000050002D20122
:00000001FF
