:020000040000FA
:1000000000040020E90800007D050000C908000088
:1000100087050000910500009B050000000000001E
:100020000000000000000000000000000D090000BA
:10003000A505000000000000AF050000B9050000A4
:10004000C3050000CD050000D7050000E105000054
:10005000EB050000F5050000FF05000009060000A3
:10006000130600001D0600002706000031060000F0
:100070003B060000450600004F0600005906000040
:10008000630600006D060000770600008106000090
:100090008B060000950600009F060000A9060000E0
:1000A000B3060000BD060000C7060000D106000030
:1000B000DB060000E5060000EF060000F906000080
:1000C000030700000D0700001707000021070000CC
:1000D0002B070000350700003F070000490700001C
:1000E000530700005D07000067070000710700006C
:1000F0007B070000850700008F07000099070000BC
:10010000A30700001FB500F003F88DE80F001FBD26
:1001100000F0E0BB1FB56FF00100009040100390AD
:10012000029001904FF010208069000B420900F00E
:100130001F045DF822300120A04083434DF8223097
:10014000684600F045F91FBDF0B54FF6FF734FF458
:10015000B4751A466E1E11E0A94201D3344600E080
:100160000C46091B30F8027B641E3B441A44F9D14B
:100170009CB204EB134394B204EB12420029EBD17E
:1001800098B200EB134002EB124140EA0140F0BD8F
:10019000DE4992B00446D1E90001CDE91001FF2209
:1001A0004021684600F03CFB94E80F008DE80F000A
:1001B000684610A902E004C841F8042D8842FAD12B
:1001C00010216846FFF7C0FF1090AA208DF8440068
:1001D000FFF7A0FF00F0F3F84FF01024A069102201
:1001E0006946803000F002F9A069082210A900F0E9
:1001F000FDF800F0D8F84FF080510A6949690068AD
:100200004A43824201D8102070470020704710B541
:10021000D0E900214FF0805002EB8103026944696C
:100220006243934209D84FF01022536903EB8103D4
:100230000169406941438B4201D9092010BD5069D1
:10024000401C01D0002010BD0F2010BD70B501680A
:100250000446AF4D4FF01020072952D2DFE801F0DD
:10026000330419293C1E2500D4E902656468294637
:10027000304600F0CDF82A462146304600F0B6F868
:10028000AA002146304600F09FFA002800D0032043
:1002900070BD00F051FB4FF4805007E0201DFFF7C8
:1002A000AAFF0028F4D100F047FB60682860002016
:1002B00070BD241D94E80700920000F085FA002824
:1002C000F6D00E2070BD8069401C12D0201DFFF7B3
:1002D0009EFF0028F6D109E08069401C09D0201D4E
:1002E000FFF789FF0028EDD1606820B12046FFF7B5
:1002F0004FFF042070BDFFF70DFF00F060F800F025
:1003000052F8072070BD10B50C46182802D0012005
:10031000086010BD2068FFF799FF206010BD4FF006
:100320001024A069401C05D0A569A66980353079E4
:10033000AA2808D06069401C2DD060690068401C64
:1003400029D060692CE010212846FFF7FDFE3168B6
:1003500081421CD1A16901F18002C03105E030B1B8
:1003600008CA51F8040D984201D1012000E0002094
:100370008A42F4D158B1286810B1042803D0FEE7AE
:10038000284600F057F862496868086008E000F005
:1003900016F800F008F84FF480500168491C01D0AD
:1003A00000F0A4FAFEE7BFF34F8F5A4801685A4A9B
:1003B00001F4E06111430160BFF34F8FFEE74FF09E
:1003C00010208169491C02D0806900F0AEB87047E6
:1003D000524A01681160121D416811604F4A8168DC
:1003E00010321160111DC068086070472DE9F0419E
:1003F00017460D460646002406E03046296800F000
:10040000A7F8641C2D1D361DBC42F6D3BDE8F08153
:1004100070B50C4605464FF4806608E0284600F0AB
:1004200084F8B44205D3A4F5806405F58055002C0A
:10043000F4D170BD4168044609B1012500E00025F2
:100440004FF010267069A268920000F0BDF9C8B1A3
:10045000204600F01AF89DB17669A56864684FF4EB
:10046000002084420AD2854208D229463046FFF74E
:10047000CFFF2A4621463046FFF7B8FFFFF79FFF20
:10048000FFF791FFFFF746FEF8E72DE9FF414FF038
:100490001024616980680D0B01EB800000F6FF708D
:1004A000010B0020009001900290024603906846E4
:1004B00001230BE0560902F01F0C50F8267003FAD6
:1004C0000CFC47EA0C0740F82670521CAA42F1D3F4
:1004D0000AE04A0901F01F0650F8225003FA06F616
:1004E000354340F82250491C8029F2D3A169090BF9
:1004F0004A0901F01F0150F822408B409C4340F80C
:100500002240FFF765FFBDE8FF8100005C090000A5
:10051000000000200CED00E00400FA050006004099
:10052000144801680029FCD07047134A0221116069
:1005300010490B68002BFCD00F4B1B1D186008687E
:100540000028FCD00020106008680028FCD070470C
:10055000094B10B501221A60064A1468002CFCD021
:10056000016010680028FCD0002018601068002886
:10057000FCD010BD00E4014004E5014008208F4993
:1005800009680958084710208C4909680958084724
:1005900014208A49096809580847182087490968BA
:1005A0000958084730208549096809580847382004
:1005B00082490968095808473C2080490968095858
:1005C000084740207D4909680958084744207B496D
:1005D00009680958084748207849096809580847B0
:1005E0004C20764909680958084750207349096822
:1005F0000958084754207149096809580847582084
:100600006E490968095808475C206C49096809580F
:100610000847602069490968095808476420674904
:100620000968095808476820644909680958084753
:100630006C20624909680958084770205F490968B9
:100640000958084774205D49096809580847782007
:100650005A490968095808477C20584909680958C7
:10066000084780205549096809580847842053499C
:1006700009680958084788205049096809580847F7
:100680008C204E4909680958084790204B49096851
:10069000095808479420494909680958084798208B
:1006A00046490968095808479C204449096809587F
:1006B0000847A0204149096809580847A4203F4934
:1006C000096809580847A8203C490968095808479B
:1006D000AC203A49096809580847B02037490968E9
:1006E00009580847B4203549096809580847B8200F
:1006F0003249096809580847BC2030490968095837
:100700000847C0202D49096809580847C4202B49CB
:10071000096809580847C82028490968095808473E
:10072000CC202649096809580847D0202349096880
:1007300009580847D4202149096809580847D82092
:100740001E49096809580847DC201C4909680958EE
:100750000847E0201949096809580847E420174963
:10076000096809580847E8201449096809580847E2
:10077000EC201249096809580847F0200F49096818
:1007800009580847F4200D49096809580847F82016
:100790000A49096809580847FC20084909680958A6
:1007A00008475FF480700549096809580847000048
:1007B00003480449024A034B704700000000002030
:1007C000680900006809000040EA010310B59B07B2
:1007D0000FD1042A0DD310C808C9121F9C42F8D0AB
:1007E00020BA19BA884201D9012010BD4FF0FF305C
:1007F00010BD1AB1D30703D0521C07E0002010BD72
:1008000010F8013B11F8014B1B1B07D110F8013BFD
:1008100011F8014B1B1B01D1921EF1D1184610BDDE
:1008200002F0FF0343EA032242EA024200F005B865
:100830007047704770474FF000020429C0F01280E3
:1008400010F0030C00F01B80CCF1040CBCF1020F83
:1008500018BF00F8012BA8BF20F8022BA1EB0C0158
:1008600000F00DB85FEAC17C24BF00F8012B00F84E
:10087000012B48BF00F8012B70474FF0000200B574
:10088000134694469646203922BFA0E80C50A0E8B3
:100890000C50B1F12001BFF4F7AF090728BFA0E861
:1008A0000C5048BF0CC05DF804EB890028BF40F82D
:1008B000042B08BF704748BF20F8022B11F0804F6F
:1008C00018BF00F8012B7047014B1B68DB68184705
:1008D0000000002009480A497047FFF7FBFFFFF7B7
:1008E00011FC00BD20BFFDE7064B1847064A10600B
:1008F000016881F30888406800470000680900002B
:10090000680900001F030000000000201EF0040F13
:100910000CBFEFF30881EFF3098188690238007892
:10092000182803D100E00000074A1047074A126860
:100930002C3212681047000000B5054B1B68054AB1
:100940009B58984700BD00000703000000000020EE
:100950005809000004000000001000000000000022
:0809600000FFFFFF0090D0032F
:10100000700A00207DE90000BD550000EFE80000F7
:10101000BD550000BD550000BD550000000000009A
:10102000000000000000000000000000D5E9000002
:10103000BD55000000000000BD550000BD5500007A
:101040003DEA000043EA0000BD550000BD55000028
:10105000BD550000BD550000BD550000BD55000048
:1010600049EA0000BD550000BD5500004FEA0000F0
:10107000BD55000055EA00005BEA000061EA00008F
:10108000BD550000BD550000BD550000BD55000018
:10109000BD550000BD550000BD550000BD55000008
:1010A000BD55000067EA0000BD550000BD550000B9
:1010B000BD550000BD550000BD550000BD550000E8
:1010C0006DEA0000BD550000BD550000BD55000093
:1010D000BD550000BD550000BD550000BD550000C8
:1010E000BD550000BD550000BD550000BD550000B8
:1010F000BD550000BD550000BD550000BD550000A8
:10110000BD550000BD55000000F002F80DF023FCB5
:101110000AA090E8000C82448344AAF10107DA4552
:1011200001D10DF018FCAFF2090EBAE80F0013F070
:10113000010F18BFFB1A43F00103184784DA0000BF
:10114000A4DA00000A444FF0000C10F8013B13F041
:10115000070408BF10F8014B1D1108BF10F8015B10
:10116000641E05D010F8016B641E01F8016BF9D103
:1011700013F0080F1EBF10F8014BAD1C0C1B09D15A
:101180006D1E58BF01F801CBFAD505E014F8016BCC
:1011900001F8016B6D1EF9D59142D6D3704700005E
:1011A0000023002400250026103A28BF78C1FBD870
:1011B000520728BF30C148BF0B6070471FB500F011
:1011C000B5F88DE80F001FBD8269034981614FF0BA
:1011D0000100104470470000DD11000001B41EB48E
:1011E00000B501F075FE01B40198864601BC01B05E
:1011F0001EBD00001EF0040F0CBFEFF30880EFF3DC
:101200000980014A10470000F3340000F0B4404662
:10121000494652465B460FB402A0013001B506486C
:10122000004700BF01BC86460FBC804689469246F7
:101230009B46F0BC7047000009110000401E00BF33
:1012400000BF00BF00BF00BF00BF00BF00BF00BFA6
:1012500000BF00BF00BF00BF00BF00BF00BF00BF96
:1012600000BF00BF00BF00BF00BF00BF00BF00BF86
:1012700000BF00BF00BF00BF00BF00BF00BF00BF76
:1012800000BF00BF00BF00BF00BF00BF00BF00BF66
:1012900000BF00BF00BF00BF00BF00BF00BF00BF56
:1012A00000BF00BF00BF00BF00BF00BF00BFC5D16F
:1012B00070470000401E00BF00BF00BF00BF00BF5E
:1012C00000BF00BF00BF00BF00BF00BF00BF00BF26
:1012D00000BF00BF00BF00BF00BF00BF00BF00BF16
:1012E00000BF00BF00BF00BF00BF00BF00BF00BF06
:1012F00000BF00BF00BF00BF00BF00BF00BF00BFF6
:1013000000BF00BF00BF00BF00BF00BF00BF00BFE5
:1013100000BF00BF00BF00BF00BF00BF00BF00BFD5
:1013200000BF00BF00BFC5D1704700000DF010BB6B
:101330004FF0E0224FF400410020C2F88011BFF3CB
:101340004F8FBFF36F8F20490870204990020860CB
:10135000704730B51C4D04462878A04218BF002CB9
:1013600002D0002818BFFFDF2878A04208BF30BD98
:101370002C701749154A0020ECB1164DDFF858C003
:10138000131F012C0DD0022C1CBFFFDF30BD0860E5
:1013900003200860CCF800504FF400001060186083
:1013A00030BD086002200860CCF800504FF040705B
:1013B0001060186030BD086008604FF06070106009
:1013C00030BD00B5FFDF00BD0800002008F501407A
:1013D00000F500408001002014F5004010B50446DF
:1013E0000021012000F036F800210B2000F032F837
:1013F0000421192000F02EF804210D2000F02AF815
:1014000004210E2000F026F804210F2000F022F81D
:101410000421C84300F01EF80621162000F01AF837
:101420000621152000F016F8204604F0EBF8002005
:1014300010BD9C210180704704F0F9B80D48704739
:101440000D4A12680C4B0D4A08331A6004F02CBF89
:10145000704770474907090E002804DB00F1E020BF
:1014600080F80014704700F00F0000F1E02080F8D1
:10147000141D704703F900421005024001000001ED
:101480002DE9F0410C4611490D68104A1049083207
:101490001160A0F120012A2901D301200CE03E288F
:1014A00010D040CC0B4F94E80E0007EB8000241FB7
:1014B00050F8807C3046B84720600448001D056025
:1014C000BDE8F0812046FFF77FFEF5E710050240FA
:1014D000010000019CEA000010B5EFF3108000F05D
:1014E000010472B6E9484178491C417040780128EE
:1014F00001D100F0B3FD002C00D162B610BD70B573
:10150000E24CE07848B90125E570FFF7E5FF00F00F
:10151000ADFD20B1002000F0BCFB002070BD4FF0FD
:1015200080406571C0F80453F7E770B5EFF31080A1
:1015300000F0010572B6D54C607800B9FFDF607825
:10154000401E6070607808B900F08CFD002D00D15D
:1015500062B670BDCD4810B5C17821B1002141718E
:10156000C170FFF7E2FF002010BD10B5044600F087
:101570007DFDC649C978084000D0012020600020C8
:1015800010BD2DE9F05FDFF804934278817889F887
:101590000620002689F80710074689F808600078B9
:1015A000354620B101280FD002280FD0FFDF00F010
:1015B0006AFD98B100F06EFDB0420FD1304600F0E8
:1015C0006DFD0028FAD047E00126F0E7FFF784FF21
:1015D00000F04CFD0028FBD00226E8E7012084073C
:1015E000E060C4F80451AA490E600107D1F8441222
:1015F000A74AC1F3423124321160A5493431086051
:101600004FF0020BC4F804B3A060DFF888A2DAF848
:101610000010C94341F3001101F10108DAF800108C
:1016200041F01001CAF8001000E020BFD4F8040116
:101630000028FAD0304600F031FD0028FAD0B8F189
:10164000000F05D1DAF8001021F01001CAF80010DF
:10165000C4F808B3C4F8045199F807004C4670B1B7
:10166000387860B900F002FD074601F055FC6FF0D4
:10167000004117B1C4E9031001E0C4E9030116B148
:101680002571BDE8F09F0127BE0727714FF01908AB
:10169000C6F80883B761C6F80051C6F80C51C6F801
:1016A000105100F0E3FC10B1A770376100E0277023
:1016B000FFF712FF7649A07920310860C6F804834D
:1016C000DFE770B5050000D1FFDF4FF080424FF03B
:1016D000FF30C2F808030021C2F80011C2F804115B
:1016E000C2F80C11C2F81011684C617000F0C4FC13
:1016F00010B10120E07060702846BDE8704040E7FE
:101700002DE9F05F6448D0F800B0634A63490832BD
:1017100011608406D4F8080110B14FF0010801E00F
:101720004FF00008D4F8000100B101208146D4F840
:10173000040108B1012600E00026D4F80C0100B134
:1017400001208246D4F8100108B1012700E00027EB
:1017500048EA090126EA010020EA0A00B84300D05D
:10176000FFDF0025B8F1000F04D0C4F808510120B4
:1017700000F08FFA5FEA0900DFF810814FF00109ED
:1017800013D0C4F8005198F8050020B188F805502E
:10179000002000F07EFA98F8000030B100F066FCFE
:1017A00018B188F80290C4F810900EB1C4F8045132
:1017B000BAF1000F0CD0C4F80C5198F8020046465C
:1017C00000B9FFDFB5703570C4F81490FFF7ADFEB7
:1017D00037B1C4F8105198F8040008B100F020F8AF
:1017E0002D49091DC1F800B04BE770B5274DE878C9
:1017F00008B900F037FC01208407A061A87850B137
:10180000D4F80C0120B9002000F048FC0028F7D1E2
:101810000020C4F80C014FF0FF30C4F8080370BD7D
:101820002DE9F041194C4FF080470125E079F0B1E6
:10183000012803D0217A401E814218DA00F016FCFC
:10184000064601F069FBE179012902D9217A491C98
:1018500021720EB1216900E0E168411A022902DA21
:1018600011F1020F0BDC0EB1206100E0E060FFF728
:1018700033FE00F0FBFB28B13D61A57003E07D6104
:10188000BDE8F081257000202072F9E70C000020EF
:101890001805004010ED00E01005024001000001B5
:1018A000F0B57E4AD2F800327D4D002401212E7819
:1018B00056B97C4E34607B4F03263F1D3E60794F06
:1018C00004260C373E602970C2F80042D1601160D6
:1018D000744C4834D16425688542FBD35160D16093
:1018E000C2F80032F0BD2DE9F041044680074FF008
:1018F00000054FF0010604D56B480560066024F032
:101900000204E0044FF0FF3705D568484660C0F890
:10191000087324F48054600003D56548056024F002
:101920008044E0050FD55D48C0F80052C0F8087348
:101930005C490D60091D0D605A4A04210C3211608A
:10194000066124F48074A00409D55A484660C0F8A2
:101950000052C0F808735848056024F40054C4F3DA
:101960008030C4F3C031884200D0FFDF14F4404F10
:1019700014D052484660C0F8087351488660C0F8D9
:101980000052C0F808734F490D600A1D166086604A
:10199000C0F808730D60166024F4404420050AD591
:1019A000494846608660C0F80873C0F848734748E5
:1019B000056024F4006400F0DDFD4548044200D0D9
:1019C000FFDFBDE8F081F0B5002220250123144699
:1019D00020FA02F1C9072DD051B2002910DB00BF57
:1019E0004FEA51174FEA870701F01F0607F1E0277A
:1019F00003FA06F6C7F88061BFF34F8FBFF36F8F0E
:101A00000CDB00BF4FEA51174FEA870701F01F06B2
:101A100007F1E02703FA06F6C7F8806204DB01F15C
:101A2000E02181F8004405E001F00F0101F1E0211F
:101A300081F8144D02F10102AA42C9D3F0BD70B57C
:101A4000174C0D466060FFF74EFF6068FFF7BBFF65
:101A50002846FFF736FE00F03DF801F066F800F08A
:101A600089FD00F0D4FC01F09BF9BDE8704000F066
:101A700029B910B50A4C6068FFF735FF6068FFF7B9
:101A8000A2FF00F077FDFFF7B0FE0020606010BD00
:101A90000348406870470A207047000000800040FB
:101AA0002000002004850040FC1F004000C00040D2
:101AB00004E5014000D0004004D5004000E00040B3
:101AC00000F0004000F5004000B0004008B50040C4
:101AD000FEFF0FFD10B5534800F09EFB00B1FFDF85
:101AE0005048401C00F098FB002800D0FFDF10BDDC
:101AF0002DE9F14F4C4ED6F800B00127494800F0CF
:101B000093FBDFF8208128B95FF0000708F101009E
:101B100000F0A0FB454C00254FF003090120606058
:101B2000C4F80051C4F80451009931602060DFF816
:101B300000A118E0DAF80000C00614D50E2000F06D
:101B400064F8EFF3108010F0010072B600D00120AD
:101B5000C4F80493D4F8001119B9D4F8041101B9E8
:101B600020BF00B962B6D4F8000118B9D4F8040156
:101B70000028DFD0D4F804010028CFD137B1C6F84F
:101B800000B008F1010000F04FFB11E008F1010086
:101B900000F04AFB0028B9D1C4F80893C4F80451F6
:101BA000C4F800510E2000F030F81E4800F052FB3F
:101BB0000020BDE8F88F2DE9F0438DB00D460646B4
:101BC00000240DF110090DF1200817E004EB440783
:101BD000102255F8271068460CF00DFE05EB87071C
:101BE0001022484679680CF006FE6846FFF780FF31
:101BF00010224146B8680CF0FEFD641CB442E5DBDF
:101C00000DB00020BDE8F08372E7002809DB00F08A
:101C10001F02012191404009800000F1E020C0F83E
:101C2000801270472800002004E5004000E00040DA
:101C300010ED00E070B522490A680AB3002215468B
:101C400001244B685B1C4B60092B00D34D600E795F
:101C500004FA06F30E681E420FD0EFF3108212F062
:101C6000010272B600D001220C689C430C6002B9DC
:101C700062B649680160002070BD521C092AE0D399
:101C8000052070BD4FF0E0214FF48000C1F8000244
:101C90007047EFF3108111F0010F72B64FF001029F
:101CA00002FA00F20648036842EA0302026000D129
:101CB00062B6E7E70248002101604160704700001A
:101CC0002C000020DA48002101708170704770B547
:101CD000D84D01232B60D84B1C68002CFCD000246D
:101CE00007E00E6806601E68002EFCD0001D091D6E
:101CF000641C9442F5D30020286018680028FCD0AA
:101D000070BD70B5CA4E0446CC4D3078022800D064
:101D1000FFDFAC4200D3FFDF7169C948012903D856
:101D200047F23052944201DD03224271491C716135
:101D3000291BC160C249707802F0D0FA002800D196
:101D4000FFDF70BD70B5BA4C0D466178884200D097
:101D5000FFDFBA4E082D4ED2DFE805F04D042130EA
:101D60004D4D4D3B2078022800D0FFDF032020702E
:101D7000A078022802D0012804D008E0A06800F072
:101D80009DF904E004F1080007C8FFF7A0FF052053
:101D900020700020A070BDE8704001F0F3BE01F09B
:101DA000EBFF0146606802F020FFB04202D2616999
:101DB00002290BD30320FFF76CFF12E001F0DCFFD8
:101DC0000146606802F011FFB042F3D2BDE87040F6
:101DD00097E7207802280AD0052806D0FFDF0420E4
:101DE0002070BDE8704000F018B9022000E0032028
:101DF000FFF74FFFF3E7FFDF70BD70B5054601F059
:101E0000BBFF8B4C60602078012800D0FFDF8C493D
:101E100001200870002008718D60042048718748F7
:101E2000C86002202070607802F058FA002800D1C3
:101E3000FFDF70BD10B57E4CA07808B9207808B1DE
:101E4000112010BD7F4801F017FF607060782028D6
:101E500004D0012020700020606110BD032010BD5F
:101E60000246010B0120B2F5003F02D2884000F08B
:101E7000FFB9B2F5802F03D22039884000F000BAB4
:101E8000B2F5C02F03D24039884000F002BAB2F553
:101E9000002F03D26039884000F004BA0020704758
:101EA0002DE9F041144600EB84070E4605463F1F1E
:101EB00000F017F94FF080510A69504306EB840295
:101EC000121FB24201D2012200E000221CB10969B6
:101ED000B4EB910F02D90920BDE8F0815A498D4237
:101EE0001AD3AF4218D3854201D2874203D3574851
:101EF00028447C2803D845EA0600800701D010203A
:101F0000EAE78E4208D33AB92846FFF7A9FF18B985
:101F10003846FFF7A5FF08B10F20DDE74C484D49D3
:101F20000068884205D0224631462846FFF7CFFE9A
:101F300010E0FFF77FFF0028CED13D4801218560EA
:101F4000C0E9036481704FF4A97104FB01F01830FB
:101F5000FFF753FF0020BFE770B54FF080550446F0
:101F600028693949B1FBF0F084420AD300F0B9F88E
:101F7000A04201D8102070BD28696043FFF770FFB0
:101F800008B10F2070BD324832490068884204D041
:101F90002869604300F092F80CE0FFF74BFF00283F
:101FA000F0D12969224861438160022181702A4869
:101FB000FFF723FF002070BD2349090BB1EB401F41
:101FC00007D9404201EB4011202903D34FF0FF30E5
:101FD0007047002101208840401E704770B50546BB
:101FE0000C460020FFF7E8FF28420ED10120FFF742
:101FF000E3FF204209D10220FFF7DEFF104204D1A7
:102000000320FFF7D9FF184201D00F2070BD2146F1
:102010002846BDE8704000F04EB910B5044C607819
:1020200001F08BFE00B9FFDF00202070A07010BD12
:102030003400002004E5014000E40140105C0C0085
:102040008C020020451D00000020010080EFFFEF02
:1020500084000020BEBAFECA7C5E01000120810718
:102060000860704701208107486070471248006887
:10207000C00700D0012070470F48001F0068C0074C
:1020800000D0012070470C4808300068C00700D01D
:1020900001207047084810300068704706490C312D
:1020A0000A68D20306D5096801F00301814201D113
:1020B00001207047002070470C0400400B4A0221A9
:1020C00011600B490B68002BFCD0084B1B1D1860DE
:1020D00008680028FCD00020106008680028FCD0A8
:1020E00070474FF0805040697047000004E50140A0
:1020F00000E4014010B50D2000F077F8C4B26FF095
:10210000040000F072F8C0B2844200D0FFDF3E4904
:102110000120086010BD70B50D2000F048F83B4C60
:102120000020C4F800010125C4F804530D2000F07C
:102130004FF825604FF0E0216014C1F8000170BD38
:1021400010B50D2000F033F8304801214160002126
:10215000C0F80011BDE810400D2000F039B82C483F
:1021600010B504682A492B48083108602749D1F87E
:102170000001012804D0FFDF2548001D046010BDC8
:102180002148001D00680022C0B2C1F8002100F003
:1021900086FDF1E710B51D48D0F800110029FBD0ED
:1021A000FFF7DDFFBDE810400D2000F011B800285A
:1021B0000DDB00F01F02012191404009800000F179
:1021C000E020C0F88011BFF34F8FBFF36F8F7047CF
:1021D000002809DB00F01F02012191404009800026
:1021E00000F1E020C0F880127047002804DB00F105
:1021F000E02090F8000405E000F00F0000F1E0207E
:1022000090F8140D4009704704D5004000D00040FC
:1022100010050240010000010021017008467047CE
:102220000146002008707047EFF3108101F00101B2
:1022300072B60278012A01D0012200E000220123B7
:10224000037001B962B60AB1002070474FF4005024
:102250007047E9E7EFF3108111F0010F72B64FF00C
:102260000002027000D162B600207047F2E7000061
:102270001F490968014201D00120704700207047C2
:102280001B49091D0968014201D001207047002047
:102290007047174910310968014201D00120704789
:1022A00000207047124914310968014201D0012011
:1022B00070470020704710B50D4C2060201D016054
:1022C0000B4810300260001D0360002010BD09495A
:1022D0000A6848F202139A4302430A607047054AAB
:1022E000116848F2021301EA030099431160704734
:1022F00000060040C80602404C4909680160002001
:1023000070474A4908600020704701218A0720B1C0
:10231000012804D042F204007047916700E0D167C1
:102320000020704742490120086042F206007047D1
:1023300008B504233E4A1907103230B1C1F80433FE
:10234000106840F0010010600BE0106820F0010000
:102350001060C1F808330020C1F808013548006852
:102360000090002008BD011F0B2909D83049103109
:102370000A6822F01E0242EA40000860002070470E
:1023800042F205007047000100F18040C0F80419D6
:1023900000207047000100F18040C0F808190020BB
:1023A0007047000100F18040D0F80009086000206B
:1023B0007047012801D9072070471F4A52F82000B2
:1023C00002680A43026000207047012801D90720F3
:1023D0007047194A52F8200002688A4302600020C0
:1023E0007047012801D907207047134A52F820008E
:1023F0000068086000207047020010494FF000009C
:1024000003D0012A01D0072070470A6070474FF0BF
:1024100080410020C1F808014FF0E020802180F8C1
:1024200000140121C0F800117047000000040040B2
:10243000000500400801004044EB00007805004022
:102440006249634B0A6863499A42096801D1C1F342
:1024500010010160002070475C495D4B0A685D49CE
:10246000091D9A4201D1C0F3100008600020704796
:102470005649574B0A68574908319A4201D1C0F36F
:10248000100008600020704730B5504B504D1C685C
:1024900042F20803AC4202D0142802D203E0112811
:1024A00001D3184630BDC3004B481844C0F810157E
:1024B000C0F81425002030BD4449454B0A6842F25B
:1024C00009019A4202D0062802D203E0042801D36F
:1024D00008467047404A012142F8301000207047FA
:1024E0003A493B4B0A6842F209019A4202D0062857
:1024F00002D203E0042801D308467047364A01217E
:1025000002EBC00041600020704770B52F4A304E8A
:10251000314C156842F2090304EB8002B54204D045
:10252000062804D2C2F8001807E0042801D3184690
:1025300070BDC1F31000C2F80008002070BD70B576
:10254000224A234E244C156842F2090304EB800210
:10255000B54204D0062804D2D2F8000807E00428C7
:1025600001D3184670BDD2F80008C0F3100008600F
:10257000002070BD174910B50831184808601120B7
:10258000154A002102EBC003C3F81015C3F8141557
:10259000401C1428F6D3002006E0042804D302EBE4
:1025A0008003C3F8001807E002EB8003D3F800486B
:1025B000C4F31004C3F80048401C0628EDD310BD36
:1025C0000449064808310860704700008400002074
:1025D000BEBAFECA00F5014000F001400000FEFF57
:1025E00002000B464FF00000014620D0012A04D023
:1025F000022A04D0032A0DD103E0012002E00220C8
:1026000015E00320072B05D2DFE803F00406080AD3
:102610000C0E100007207047012108E0022106E09F
:10262000032104E0042102E0052100E0062101F07D
:1026300040BB0000FC480521817000210170417001
:10264000C17081607047F9490A78012A06D0CA68CA
:102650001044C860C868403802F092BA8A681044D2
:1026600088608868F7E710B5EF4CE07801F065FB0B
:1026700000B9FFDF0820FFF70CFB0520A070002049
:102680002070607010BD002819D00378E849E94A2D
:1026900013B1012B0ED011E00379012B00D06BB9DF
:1026A00043790BB1012B09D18368643B8B4205D27E
:1026B000C0680EE00379012B02D00BB100207047F7
:1026C00043790BB1012BF9D1C368643B8B42F5D23E
:1026D00080689042F2D8012070472DE9F04104460D
:1026E000022702F022F9006800B1FFDFCE4D01267B
:1026F0003CB12078B0B1012805D0022810D00328C1
:1027000013D02E710CE06068C82807D302F098FA45
:1027100020B16068FFF797FF012703E0002701E081
:1027200000F0CCF93846BDE8F08128780028F7D1D0
:102730006068FFF7A8FF0028E3D06068DFF8EC824C
:10274000007828B3A878042800D0FFDF0020464690
:1027500088F8000060680079C8B3002030716068B4
:102760004079A8B30420707160688168E86800F05F
:10277000AFFFB0606068C0685230F0600320A8709E
:10278000AA49E87801F0AAFD0028C9D1FFDFC7E710
:10279000404688F8006061680979D1B10021017173
:1027A00061684979B9B10421417161688968523120
:1027B00081606168C968C160C0689B4C1434606006
:1027C00001F0DAFA20606E700220A870A8E704E039
:1027D00005E00321E3E70321E6E70120BEE703204C
:1027E000C1E72DE9F047904C8846E178884200D057
:1027F000FFDFDFF83492002501278C4E09F1140920
:10280000B8F1080F79D2DFE808F0040D2A557E846C
:102810009199A078032803D0A078022800D0FFDF88
:10282000BDE8F087A078032803D0A078022800D064
:10283000FFDF0420A0702571207800287AD1FFF7EF
:1028400002FF3078012806D0B068E060FFF747FD4E
:102850002061002062E0E07801F0CFFBF5E7A0788E
:10286000032803D0A078022800D0FFDF20780028BA
:102870006FD1A078032816D001F07EFA01464F46AA
:10288000D9F8000002F0B1F900280EDB7968814226
:102890000BDB081AF0606549E07801F01FFD0028A5
:1028A000BED1FFDFBCE7042029E00420FFF7F1F9E7
:1028B000A570B5E7A078032803D0A078022800D03F
:1028C000FFDF207888BBA078032817D001F054FAE6
:1028D00001464F46D9F8000002F087F90028E4DBF2
:1028E00079688142E1DB081AF0605049E07801F034
:1028F000F5FC002894D1FFDF92E740E00520FFF7C8
:10290000C8F9A7708CE7A078042800D0FFDF022068
:1029100004E0A078042800D0FFDF0120A1688847E8
:10292000FFF7DBFE054630E004E012E0A078042863
:1029300000D0FFDFBDE8F04700F0C0B8A078042861
:1029400005D0607810B1A078022800D0FFDF207891
:1029500010B1BDE8F04786E6207920B10620FFF7E8
:1029600098F92571CDE7607838B13049E07801F009
:10297000B5FC00B9FFDF657052E70720BFE7FFDF56
:102980004EE73DB1012D03D0FFDF022DF9D147E71E
:102990000420C3E70320C1E770B5050005D0224C31
:1029A000A078052803D0112070BD102070BD2248EA
:1029B00001F062F9E070E078202803D0A5600020E3
:1029C000A07070BD032070BD174810B5017809B123
:1029D000112010BD817805290CD0817801290BD0F8
:1029E000817849B1012101708178012904D0807872
:1029F00010B103E00F2010BDFFF735FE002010BD21
:102A000070B5094E0446B07808B101280AD1ACB1BE
:102A10002046FFF738FE98B12078044D90B1B07889
:102A200001282AD00F2070BD4C0000209C020020FD
:102A30003D860100FF1FA107E32700001020F2E7F9
:102A40000720F0E701202870207990B1002028713C
:102A5000607980B104206871A0685230A860E06895
:102A6000E860E8681A4C606001F086F92060022096
:102A700016E00320EBE70320EDE700202870207923
:102A8000A8B100202871607998B104206871A1680C
:102A9000F06800F01DFEA860E0685230E860032096
:102AA000B0700C49F07801F019FC28B903E003205C
:102AB000E8E70320EAE7FFDF0020B4E7044810B5A9
:102AC00014380069FFF703FCBDE8104001F05AB864
:102AD000600000209C020020AD4911F8410F4978A8
:102AE000884201D3401A02E0C1F141010844C0B25A
:102AF0007047A749433111F8410F4978884201D303
:102B0000401A02E0C1F141010844C0B27047A04937
:102B1000863111F8410F4978884201D3401A02E00A
:102B2000C1F141010844C0B270479A4910B58020F4
:102B300081F8000496490020433101F8410F4870A4
:102B4000934901F8410F48709149863101F8410FCE
:102B500048709148FFF760FB8F48401CFFF75CFB13
:102B6000FFF7C8FABDE8104000F006B940207047F2
:102B7000B2E770B50C4605460026FFF7ADFF844A64
:102B8000A04214D30021641EE4B20FD392F8420095
:102B9000105C05F8010B92F84200401CC0B282F8AC
:102BA00042004128EFD182F84210ECE7012600F004
:102BB000E3F8304670BD402070479AE770B50C4688
:102BC00005460026FFF795FF714A4332A04214D311
:102BD0000021641EE4B20FD392F84200105C05F8A5
:102BE000010B92F84200401CC0B282F8420041281A
:102BF000EFD182F84210ECE7012600F0BDF8304634
:102C000070BD402101700020704710B50446FFF7E9
:102C10007EFF2070002010BD70B50C460546FFF702
:102C200076FF5B4A8632A04215D30021641EE4B2CF
:102C30000FD392F84200105C05F8010B92F84200A5
:102C4000401CC0B282F842004128EFD182F8421005
:102C5000ECE7002401E042F2070400F08DF8204682
:102C600070BD70B50C460546412900D9FFDF4B48C1
:102C70000068103840B200F066F8C6B20D2000F0CF
:102C800062F8C0B2864203D2FFDF01E0FFF782FAAA
:102C900021462846FFF76DFF0028F7D070BD2DE9CB
:102CA000F0413D4F0025064617F10407412257F831
:102CB000254094F8421094F8410000F053F888B38E
:102CC0006D1CEDB2032DF1D331484122433090F811
:102CD000421090F8410000F045F8002831D02C480F
:102CE000412290F8421090F8410000F03BF8002893
:102CF00027D027484122863090F8421090F84100B2
:102D000000F030F800281CD0FFF71AFA2248FFF72D
:102D10008BFAB0F5005F00D0FFDFBDE8F0411E4840
:102D2000FFF798BA94F84100265494F84100401CEB
:102D3000C0B284F841004128C6D1002084F8410087
:102D4000C2E7BDE8F081002804DB00F1E02090F844
:102D5000000405E000F00F0000F1E02090F8140DF1
:102D600040097047401C884204D0904200D109B10C
:102D7000002070470120704710B50748FFF754FA4C
:102D8000002803D1BDE81040FFF7C5B910BD000011
:102D9000AC0200200DE000E06800002004ED00E03F
:102DA0004FF0E0214FF00070C1F8800101F5C071D3
:102DB000BFF34F8FBFF36F8FC1F80001384B8022F4
:102DC00083F8002441F8800C704700B502460420C7
:102DD000344903E001EBC0031B792BB1401EC0B2A4
:102DE000F8D2FFDFFF2000BD41F8302001EBC00129
:102DF00000224A718A7101220A7100BD294A00210C
:102E000002EBC0000171704710B50446042800D3DE
:102E1000FFDF244800EBC4042079012800D0FFDF45
:102E20006079A179401CC0B2814200D060714FF03E
:102E3000E0214FF00070C1F8000210BD2DE9F04113
:102E400019480568184919480831086014480426CB
:102E500090F80004134F4009154C042818D0FFDFE8
:102E600016E0217807EBC1000279012A08D14279E6
:102E700083799A4204D04279827157F831008047B1
:102E80002078401CC0B22070042801D3002020709C
:102E9000761EF6B2E5D20448001D0560BDE8F0815B
:102EA00019E000E078030020100502400100000155
:102EB00078000020164908784A78401CC0B2904239
:102EC00005D0144B01221A60BFF34F8F0870704772
:102ED0002DE9F0410E4C4FF0E02600BF00F004FB5E
:102EE00020BF40BF20BF677820786070D6F80052BE
:102EF000FEF7A4FA854305D1D6F8040210B920786C
:102F0000B842EBD000F0EBFA0020BDE8F081000001
:102F100079000020180502402DE9F0410125280321
:102F20004FF0E0210026C1F88001BFF34F8FBFF3BF
:102F30006F8F1F4CC4F800610C2000F02CF81D4866
:102F400001680268C94341F3001142F010020260B7
:102F5000C4F804532560491C00E020BFD4F80021C8
:102F6000002AFAD019B9016821F010010160124855
:102F700007686560C4F80853C4F800610C2000F0CD
:102F80000AF83846BDE8F08110B50446FFF7C4FFE3
:102F90002060002010BD002809DB00F01F02012185
:102FA00091404009800000F1E020C0F88012704795
:102FB00000C0004010ED00E008C50040094810B511
:102FC00004680A490848086001F0C7FD0848046021
:102FD00010BD0849002008604FF0E0210220C1F830
:102FE00080027047100502400100000118050240F0
:102FF00014050240FC1F004070477047704770473F
:103000002CFFFFFFDBE5B151002001009C00FFFF1A
:10301000D4000000404B4C00AD70A77D045B5627E8
:10302000E5CC2057FBF0E9B85526A5652DE9F0471A
:10303000FF4C0646FF21A06800EB061211702178B4
:10304000FF2910D04FF0080909EB011109EB061711
:103050004158C05900F0F4F9002807DDA168207834
:1030600001EB061108702670BDE8F08794F8008027
:1030700045460DE0A06809EB05114158C05900F024
:10308000DFF9002806DCA068A84600EB08100578E8
:10309000FF2DEFD1A06800EB061100EB08100D70BA
:1030A0000670E1E7F0B5E24B0446002001259A687E
:1030B0000C269B780CE000BF05EB0017D75DA742FC
:1030C00004D106EB0017D7598F4204D0401CC0B280
:1030D0008342F1D8FF20F0BD70B501F0AFFDD44CB4
:1030E00008252278A16805EB0212895800F0A8F99A
:1030F000012808DD2178A06805EB01114058BDE8E2
:10310000704001F092BD01F013FCBDE87040FFF784
:103110007BBE2DE9F041C64C257801F08FFDFF2DD7
:103120006ED04FF00808A26808EB0516915900F020
:1031300087F90228A06801DD80595DE000EB0511E8
:1031400009782170022101EB0511425C5AB1521E2F
:103150004254815901F5800121F07F418151284677
:10316000FFF764FF34E00423012203EB051302EBB5
:10317000051250F803C0875CBCF1000F10D0BCF5FD
:10318000007F10D9CCF3080250F806C00CEB423C8B
:103190002CF07F4C40F806C0C3589A1A520A09E036
:1031A000FF2181540AE0825902EB4C3222F07F4227
:1031B0008251002242542846FFF738FF0C21A068B4
:1031C00001EB05114158E06850F827203846904738
:1031D0002078FF2814D001F031FD2278A16808EB97
:1031E00002124546895800F02BF9012893DD217819
:1031F000A06805EB01114058BDE8F04101F015BD94
:10320000BDE8F081F0B51D4614460E460746FF2B7B
:1032100000D3FFDFA00700D0FFDF8548FF21002299
:10322000C0E90247C5700671017042708270104695
:10323000012204E002EB0013401CE154C0B2A8429A
:10324000F8D3F0BD70B57A4C064665782079854292
:1032500000D3FFDFE06840F825606078401C6070B4
:10326000284670BD2DE9FF5F1D468B460746FF24AB
:1032700001F0E4FCDFF8B891064699F80100B84285
:1032800000D8FFDF00214FF001084FF00C0A99F839
:103290000220D9F808000EE008EB0113C35CFF2BF5
:1032A0000ED0BB4205D10AEB011350F803C0DC4538
:1032B0000CD0491CC9B28A42EED8FF2C02D00DE0D6
:1032C0000C46F6E799F803108A4203D1FF2004B0B8
:1032D000BDE8F09F1446521C89F8022008EB041147
:1032E0000AEB0412475440F802B00421029B00226A
:1032F000012B01EB04110CD040F801204FF40078B1
:1033000008234FF0020C454513D9E905C90D02D039
:1033100002E04550F2E7414606EB413203EB04136D
:1033200022F07F42C250691A0CEB0412490A815400
:103330000BE005B9012506EB453103EB041321F041
:103340007F41C1500CEB0411425499F800502046C3
:10335000FFF76CFE99F80000A84201D0FFF7BCFE11
:103360003846B4E770B50C46054601F067FC0646E2
:1033700021462846FFF796FE0446FF281AD02C4D1A
:10338000082101EB0411A8684158304600F058F8B4
:1033900000F58050C11700EBD14040130221AA680C
:1033A00001EB0411515C09B100EB4120002800DC65
:1033B000012070BD002070BD2DE9F0478846814690
:1033C000FFF770FE0746FF281BD0194D2E78A8681E
:1033D0003146344605E0BC4206D0264600EB0612D4
:1033E0001478FF2CF7D10CE0FF2C0AD0A6420CD1A8
:1033F00000EB011000782870FF2804D0FFF76CFE66
:1034000003E0002030E601F016FC41464846FFF795
:10341000A9FF0123A968024603EB0413FF20C85447
:10342000A878401EB84200D1A87001EB041001E05A
:103430009803002001EB061100780870104613E68F
:10344000081A0002C11700EB11600012704700005B
:1034500010B5202000F075F8202000F083F84849CE
:10346000202081F80004474900060860091D4648ED
:103470000860FDF7E3FF4349C83108604348D0F8CE
:10348000041341F00101C0F80413D0F8041341F013
:103490008071C0F804133A4901201C39C1F80001B9
:1034A00010BD10B5202000F04CF836480021016016
:1034B000001D0160334A481EE83A1060334AC2F8E2
:1034C0000803304BC8331960C2F80001C2F860012C
:1034D0002F490860BDE81040202000F043B829497A
:1034E0002C48EC390860704726492A48E8390860BA
:1034F000704770B5234A8069E83A2649116023492C
:10350000D1F800610023244D214A5C1E1EB1A8425F
:1035100006D300210FE0D1F8606186B1A84209D23C
:10352000C1F80031C1F860311460BDE8704020205E
:1035300000F018B81168BDE870400BF0D7B9FFDF94
:1035400070BD00280DDB00F01F02012191404009F1
:10355000800000F1E020C0F88011BFF34F8FBFF36F
:103560006F8F7047002809DB00F01F020121914096
:103570004009800000F1E020C0F880127047000090
:1035800020E000E0000602407C0B0020000002402A
:1035900000040240010000010020010070B5044653
:1035A000A0F500002D4EB0F1786F02D23444A4F59E
:1035B00000042B48844201D2012500E0002500F0E0
:1035C00043F848B125B9B44204D32648006808E05E
:1035D000012070BD002070BD002DF9D1B442F9D397
:1035E00021488442F6D2F3E710B50446A0F5000066
:1035F000B0F1786F03D219480444A4F5000400F038
:1036000023F84FF0804130B11648006804E08C4246
:1036100004D2012003E014488442F8D2002080F054
:10362000010010BD10B520B1FFF7DEFF08B1012089
:1036300010BD002010BD10B520B1FFF7AFFF08B1DD
:10364000012010BD002010BD0848094900688842CB
:1036500001D10120704700207047000000000020C9
:10366000002001000000000008000020840000206D
:10367000BEBAFECA2DE9F0410746FF489046002534
:103680000C4600EB8816072F07D2DFE807F0070784
:10369000070704040400012500E0FFDF06F81470AA
:1036A000002D08BFBDE8F081F44800EB880090F8D9
:1036B000271020290EBF80F8264006EB41014C70F0
:1036C000202106EB4402517080F82740BDE8F081CC
:1036D00030B50D46EA4A44190021101A71EB010079
:1036E00038BFFFDFE7488542C8BFFFDFE6488542B5
:1036F000B8BFFFDFE5488442A8BFE54804DA002CE4
:10370000AABF2046E14830BD201830BD2DE9F05F4A
:10371000DA4D95F82D6005EB860090F82640202CB8
:1037200008BFBDE8F09FDFF86CA3DFF84C93A9F564
:10373000007B09EB8618072718F8140001280AD027
:10374000042808BF022706D0052808BF032702D097
:10375000062818BFFFDFBAF1000F18BFAFF30080D3
:10376000EFF3108000F0010072B608EB44014A78D4
:1037700005EB860181F8262091F82720A24204BF9C
:10378000202281F82720A0B1324621460120FFF7F0
:1037900071FF0BEB0410394602682046904795F8FC
:1037A0002D6005EB860090F82640202CC1D1BDE8A5
:1037B000F09FB948002818BFAFF3008062B6E3E776
:1037C00010B5AE4C202184F8251084F8261084F81A
:1037D0002710002084F8280084F82D0084F82E108B
:1037E000411EA160206084F8200084F82100207729
:1037F0006077A077A94984F82F0084F82400087026
:103800004870A4F182011022887001F8040F521E42
:10381000FAD1012001F00EFD002001F00BFD012086
:1038200084F82200FFF7BCFA9D48FFF7CEFA9D4CC2
:1038300020709D48FFF7C9FA6070BDE8104001F0A4
:1038400087BC10B501F0B5FC964C2078FFF7D6FA8E
:103850006078FFF7D3FA894C94F82400002808BF59
:1038600010BDFDF762FE002084F8240010BD20206A
:1038700070472DE9F04F8246804897B000EB8A0BE5
:10388000A0F520779BF82550202D3CD02C4601F048
:1038900081FD07EB0411854E4A688968121A081ADF
:1038A00022F07F4220F07F40012A04D3B2F5800F3E
:1038B00001D286421BD2704800EB8A19A04609EB60
:1038C00048004478202C12D001F064FD07EB04116D
:1038D0004A688968121A081A22F07F4220F07F4055
:1038E000012AEBD3B2F5800FE8D28642E6D3AC4290
:1038F00009D0534642462021042001F017FB17B09F
:103900000020BDE8F08F6A48002818BFAFF30080A0
:1039100001F040FD594C94F82F1069B1E268411C48
:10392000891A0902CA1701EB126109120029C2BFE4
:10393000002017B0BDE8F08F06469BF82500202830
:1039400035D04FF000084FF0FF3107EB0010CDF8F5
:10395000388010910790D0E90112C0681191CDE92B
:1039600012205448B0F89C12ADF8541090F89E0202
:103970008DF856009DF84D0000280CBF4FF004094B
:103980004FF002094C4951F82070119907EB0902D8
:10399000114421F07F410F91002F14BF022100211B
:1039A0008DF85010022818BF012815D030E04FF0D4
:1039B000010001F03FFC002001F03CFC01F020FC84
:1039C00094F8240020B1FDF7B0FD002084F8240015
:1039D000002084F82F00C7E0119809EB0701084484
:1039E000801B20F07F4033280BD903208DF84D0039
:1039F0001198C7F13201401A20F07F403227119010
:103A000012E094F8240018B9FEF730FB00287DD0AE
:103A1000322F09D247B194F8240060B9FDF75CFD5C
:103A2000012084F8240006E094F8240018B1FDF782
:103A30007CFD84F82480194A1178F9B3527800206B
:103A4000D21B9DF850C0119F012916BF03290123E5
:103A500000238DF85630002A04DDBA1A1192012293
:103A60008DF850209DF85420002A18BF0220119A8A
:103A70000E4B22F07F4222E0A805002028060020FD
:103A8000FF7F841E0020A10700E05EF80080841EF6
:103A900000807BE100000000000000007D000020AD
:103AA000133100007B0000200D370000FFFF3F00B6
:103AB00000000000A80300204CEB00001DE0119264
:103AC000921BDDF848E022F07F42AEEB060626F0BE
:103AD0007F46904298BFB2F5800F01D2B3420CD21C
:103AE0009DF85500002808BF032941D08DF8548067
:103AF00011978DF850C08DF856809DF8500060B138
:103B000011984FF0010300EB090100E030E04FF0A5
:103B10000002184601F0D7FB02E0012001F08AFB09
:103B2000079801230F9990F90C20002001F0CBFB9E
:103B3000012084F82F008BF828800EADFB4895E813
:103B40000E10C0F88012C0F88422C0F88832C0F885
:103B50008CC212AD95E80E10C0F89012C0F89422F5
:103B6000C0F89832C0F89CC217B00120BDE8F08FB1
:103B700053462A462021042001F0D8F917B000202E
:103B8000BDE8F08F2DE9F041E94C256901F002FC18
:103B9000401B0002C11700EB1160001258BFFFDF8D
:103BA00094F82200002818BFFFDF012784F8227054
:103BB00094F82E00202808BFFFDF94F82E60202004
:103BC00084F82E00002584F82F5084F8205084F8C3
:103BD0002150D84825600078022816BF032801200C
:103BE00000202077A068B0F1FF3F05D04FF0FF30F4
:103BF000A060012001F01EFB002001F01BFB01F082
:103C000052FC01F047FC01F0FBFAFEF7D9FCCA4870
:103C1000056005604FF0E0214FF40040C1F88002DC
:103C2000FFF7D7F994F82D804046FFF722FE0028D1
:103C3000FAD0C24800EB881010F81600022804D110
:103C4000424631460620FFF715FD84F8237004EB49
:103C5000880090F82600202803D0B9484078FFF764
:103C6000D3F8207F002808BFBDE8F08101F004FCF4
:103C700025776577BDE8F0810346AD4810B590F82B
:103C80002D200024803800EB821000BF10F81410A3
:103C900029B1611CCCB2202CF8D3202010BDA34840
:103CA000214600EB041003600120FFF7E3FC2046EF
:103CB00010BD012804D0032808BF002934D000E03B
:103CC00079B39B4A92F82D30DFF870C24FF00002B2
:103CD0000CEB831313F812C0BCF1000F01D00820C5
:103CE0007047521CD2B2202AF4D3924A002812BF45
:103CF0000228002151700BD0072915D2DFE801F00E
:103D00001404060B0D0F12001B2100E03A21517024
:103D10001070002070475821F9E77721F7E79621C6
:103D2000F5E701E0B521F2E707207047814810B5BB
:103D3000407801F0CDFB80B210BD10B5202811D223
:103D40007B4991F82D30A1F1800202EB831C1CF815
:103D500010303BB191F82D3002EB831212F8102095
:103D6000012A01D0002010BD91F82D20014600202D
:103D7000FFF780FC012010BD10B501F00BFBBDE882
:103D8000104001F0A5BB2DE9F04F694A82B002EB6B
:103D9000810B20239BF825204FF0000A6E4601AFCF
:103DA0008DF80030202A08BF8DF8043000F0218102
:103DB000DFF888C1DFF88CE10CEB8118ACF50074FA
:103DC00004EB021303F1040C9B680568EB1A1B0259
:103DD0004FEAE37903EB19631B1223D4437ACBB187
:103DE0009CF80990B9F1000F14D15EF82330DCF88B
:103DF00000C02B44DEF800509B1CAC440CF1040CBA
:103E0000A3EB0C031B024FEAE37C03EB1C631B12C6
:103E1000322B07DB327008EB42025278202ACFD1D6
:103E20003378A1E033783B70202A7DD004EB021375
:103E3000D0F804C05E681D1DA6EB0C0C4FEA0C2CDC
:103E40004FEAEC790CEB196C5FEA2C2C1ED495F838
:103E500009C0BCF1000F67D0457A002D64D15EF82F
:103E60002CC00568B444DEF800600CF1020C354447
:103E70002D1DACEB050C4FEA0C2C4FEAEC750CEB4E
:103E8000156C4FEA2C2CBCF1320F4DDA3A709B7B4B
:103E900090F80AC0634505D908EB42025278202AFF
:103EA000C4D1A6E09DF80420D0E900C304EB0212BF
:103EB000A3EB0C0392684FF0010A22F07F4C1A44E6
:103EC00022F07F42C0E900C29BF825202023E8466B
:103ED0008DF80030202A1CBF184B03EB81164BD005
:103EE00004EB021303F1040C9B680568EB1A1B0238
:103EF0004FEAE37903EB19631B1237D4437AA3B17A
:103F00009CF80990B9F1000F25D15EF82330DCF858
:103F100000C02B44DEF800509B1CAC440CF1040C98
:103F2000A3EB0C031B020FE063E014E0A8030020E6
:103F3000280600207D00002000F50040A805002094
:103F40007B0000204CEB00004FEAE37C03EB1C639A
:103F50001B12322B0ADB88F8002006EB4202527853
:103F6000202ABDD198F800303B7042E098F800302C
:103F70003B70202A04D13CE0DBB28DF8043038E0FD
:103F800004EB02154368D5F8048005F1040CA8EB96
:103F900003031B024FEAE37903EB19631B121CD4E2
:103FA0009CF809302BB390F809C0BCF1000F20D168
:103FB0005EF82330D0F800C04344DEF800809B1C3C
:103FC000C4440CF1040CA3EB0C031B024FEAE37C8A
:103FD00003EB1C631B12322B0BDA3A70AB7B90F8AD
:103FE0000AC063457FF65EAF06EB42025278202A94
:103FF000C6D102B05046BDE8F08F70B5FE49FF4A09
:1040000001EB001454F8041F607A002852F82020B5
:1040100011440CBF04200220084420F07F4001F02E
:1040200057FA94F90850F64A44190021101A71EB16
:10403000010038BFFFDFF3488542C8BFFFDFF24809
:104040008542B8BFFFDFF1488442A8BFF04803DAD9
:10405000002CB8BFED4800DA2418204670BD2DE9C9
:10406000F04F0446EB4887B00068C005C00D11D082
:10407000103840B20028B8BF00F00F0000F1E02077
:10408000ACBF90F8000490F8140D400908BF4FF041
:10409000010B01D04FF0000B2078002804BFDE4D4B
:1040A000DE4E40F0D78026B1002140F2D340AFF37E
:1040B000008095F82D70002085F82300824626B1F7
:1040C00000214FF49B60AFF30080BBF1000F1FD1C4
:1040D000B846012020EA0807D148402200EB8811A9
:1040E00000EB87100AF087FB26B1002140F25C400C
:1040F000AFF3008005EB880105EB8700D1F82510B0
:10410000C0F8251026B100214FF48C60AFF3008079
:1041100026B100214FF49C60AFF3008001F03AF922
:104120008046CDF80CD02078002860798DF80A0000
:1041300020798DF8090007D095F82E0020281CBFA3
:104140002869401D07D00BE0D4E9022321790398A8
:1041500000F0AFFF3AE0B34808F1050140780844A9
:1041600020F07F4921790022A368039800F0A1FF85
:10417000DDE90010401A484420F07F400190CDF85E
:104180000090D4E90232217904A800F092FF394668
:10419000DDF814900398FFF7F6FD00980199A0EB65
:1041A000080020F07F40A1EB080121F07F41B0F52D
:1041B000800F01D2894509D2DDE90010401A404440
:1041C00028F07F4120F07F40CDE9001026B100218A
:1041D00040F2E640AFF3008095F82E00202814D07E
:1041E00028690099091A0902CA1701EB126109121C
:1041F0000BD5DDE90021891A20F07F42084420F028
:104200007F40CDE900204FF0010A26B100214FF494
:104210009E60AFF3008095F8230000287FF443AF41
:1042200026B1002140F2F640AFF3008001F0B2F871
:104230000099019B091A181A7B4A21F07F4120F04E
:104240007F40B1F5800F05D2824203D3BBF1000F4E
:104250000AD103E007B00020BDE8F08F3946684678
:10426000FFF791FD4AEA000ABAF1000F2CD09DF841
:104270000900624A0099002852F8202011440CBF1E
:1042800004200220084420F07F4001F021F99DF92C
:1042900008705B4AC5190021101A71EB010038BF84
:1042A000FFDF58488742C8BFFFDF57488742B8BF83
:1042B000FFDF56488542A8BF554803DA002DB8BF36
:1042C000524800DA2D18A56026B1002140F20950AD
:1042D000AFF3008007B00120BDE8F08F2DE9F34F68
:1042E0004C4889B0884600684B4DC005C00D0ED0C3
:1042F000103840B20028B8BF00F00F0000F1E020F5
:10430000ACBF90F8000490F8140D40092AD098F83A
:1043100000004FF0000B00281CBF0128FFDF3F4CBE
:104320002CB14FF0000140F27F50AFF300803249D2
:1043300009984FF0010A01EB0010009024B1002110
:1043400040F28750AFF30080BAF1000F17D000BFE2
:1043500095F82D604FF0000985F82390BBF1000F10
:1043600014D03DE095F82E004FF0010B202808BF37
:10437000FFDF98F80000002818BFFFDFCFE72B48C9
:10438000002818BFAFF3008062B6E1E7374601208E
:1043900020EA07062248402200EB871100EB861036
:1043A0000AF029FA24B1002140F25C40AFF300800A
:1043B00005EB870105EB8600D1F82510C0F8251024
:1043C00024B100214FF48C60AFF3008024B10021B0
:1043D00040F29150AFF3008095F823000028ADD152
:1043E00024B1002140F29B50AFF3008000F0D2FFD7
:1043F000074601A804901BE0A80300204CEB000036
:10440000FF7F841E0020A10700E05EF80080841E6C
:1044100000807BE104ED00E02806002000000000A1
:10442000A80500207D000020FFFF3F0000000000E5
:1044300098F80000002898F805008DF80E0098F80C
:1044400004008DF80D0007D095F82E0020281CBF21
:104450002869401D08D00BE0D8E9022398F8041021
:10446000049800F026FE3AE0FD484178781D0844A3
:1044700020F07F4A98F804100022D8F808300498F9
:1044800000F017FEDDE90110401A504420F07F4093
:104490000290CDF804A0D8E9023298F8041005A8DB
:1044A00000F007FE3146DDF818A00498FFF76BFC1A
:1044B0000199029AC91BD01B21F07F4120F07F4057
:1044C000B1F5800F01D2824509D21146019A891AAD
:1044D000781827F07F4220F07F40CDE9012024B1F9
:1044E000002140F2A250AFF30080DE4A3946DDF8E9
:1044F00024A002EB861701A817F81A20012A18BF7A
:10450000022A3DD1019ADDF808C0A2EB0102D64B88
:1045100022F07F42ACEB010121F07F41012A6AD3F6
:10452000B2F5800F67D28B4265D34FF0010905AB1E
:1045300004AA314600F036FD002864D09DF814200E
:104540009DF810108A4262D03346052000F0EEFC40
:1045500007EB4A0148709DF81000202803BF05EBC7
:10456000860080F825A080F8289007EB400018BF4F
:1045700080F801A0324651465FF00300FFF77AF859
:1045800005EB860090F8287024B1002140F2A95074
:10459000AFF30080B548002818BFAFF30080EFF3F9
:1045A000108000F0010A72B624B1002140F2AF5031
:1045B000AFF3008095F8230000287FF4BFAE24B14C
:1045C000002140F2B750AFF300809DE80F00B9F131
:1045D000000FC360C0E9011240D024B1002140F2B5
:1045E000C450AFF3008037EA0B0029D095F82E00B5
:1045F000202816D024E0324651460420FFF73AF82E
:104600004FF00109BCE7324651460420B6E72029A5
:1046100019BF07EB4100407805EB860090F82500B4
:1046200096E724B1002140F2C950AFF30080304634
:10463000FFF71FF920B998F80000E8B3012849D026
:1046400024B1002140F2E650AFF3008085F82D60E0
:10465000012085F8230000BF4FF0010924B100219B
:1046600040F2EF50AFF30080BAF1000F3BD024B11D
:10467000002140F2F350AFF30080B9F1000F11D0E8
:1046800095F82D0005EB800090F82600202809D031
:1046900024B1002140F2FA50AFF300807448407812
:1046A000FEF7B2FB24B1002140F2FF50AFF30080CF
:1046B0000BB04846BDE8F08FFFE724B1002140F27F
:1046C000D150AFF3008095F82D2004200999FEF712
:1046D000D1FFC1E7002C3FF431AE002140F2DC50A5
:1046E000AFF300802AE66348002818BFAFF30080CC
:1046F00062B6BCE72DE9F14F5F4D8CB095F82D0007
:104700000020099001205D4CA5F180074FF0000BBF
:104710008246089024B1002140F20D60AFF3008082
:104720000898A0B385F823B024B1002140F21260AC
:10473000AFF3008095F82D8040222AEA080607EBA7
:10474000861007EB881181460AF055F824B1002144
:1047500040F25C40AFF3008005EB860005EB88017A
:104760000090D1F82510C0F8251024B100214FF495
:104770008C60AFF3008095F8230080B1002C1CBF43
:1047800000214FF4C360C5D0AFF30080C2E7FFE75C
:104790003848002818BFAFF3008062B6C2E724B1E2
:1047A000002140F21C60AFF300800C9819F8100053
:1047B000032854D1DDF80080CDF818800C9998F8C2
:1047C0002500884214BF4FF000094FF0010908F19D
:1047D000250C8646202207EB861303E0024603EBF6
:1047E00042004078884202D020280AD0F6E72028EC
:1047F00007D0864507D103EB4E0040788CF80000C7
:1048000007E058460CE003EB400003EB4201407820
:10481000487024B1002140F2E230AFF300805046EE
:1048200010EA090F1CBF88F828A085F81EB0B0B1A7
:1048300024B1002140F22160AFF300803246012014
:104840000C99FEF717FF069890F8288024B10021F4
:1048500040F22C60AFF300800448002810E040E0F4
:104860007D000020A8050020FFFF3F0000000000A1
:104870007B0000200000000028060020000000004F
:1048800018BFAFF30080EFF3108000F0010072B6A4
:10489000089024B1002140F23160AFF3008095F818
:1048A000230038B1002C1CBF002140F235603FF4DA
:1048B00031AF69E7B8F1000F07D095F82E00202836
:1048C00003D13046FEF7D5FFE8B124B1002140F214
:1048D0004960AFF3008085F82D6085F823A00120A2
:1048E000099024B1002140F25260AFF30080089893
:1048F00088B124B1002140F25660AFF300800998DE
:104900000DB0BDE8F08F002CF1D0002140F24460E2
:10491000AFF30080E6E7FC48002818BFAFF3008043
:1049200062B6E6E7002000F075BC012000F072BC22
:10493000F648007870472DE9F05FDFF8D4B3002720
:10494000ABF50079012509F5207480B1012853D019
:10495000022800F0D38003281CBFFFDFBDE8F09FD2
:1049600094F82E00202840F0ED8000F0CDB894F8A7
:10497000240018B9FCF7B0FD84F8245094F82E00F8
:1049800020281CD194F82D8004EB880A9AF8256021
:10499000202E08BFFFDF0BEB881000EB46004078AD
:1049A0008AF825008AF8285084F82350314684F884
:1049B0002E6042460220FEF75DFE84F82270207EC3
:1049C000002818BFFFDF84F82150002000F032FCDF
:1049D000A168B1F1FF3F04D001230022184600F086
:1049E00072FC94F82E0094F82E1009EB01110A685D
:1049F000BDE8F05F0121104794F82E0020281CD15B
:104A000094F82D8004EB880A9AF82560202E08BFC0
:104A1000FFDF0BEB881000EB460040788AF825009A
:104A20008AF8285084F82350314684F82E60424694
:104A30000220FEF71FFE84F82270012000F0FAFB2E
:104A400094F8210000281CBFA068B0F1FF3F0BD0F4
:104A500094F82E0094F82E1009EB01110A68BDE8B5
:104A6000F05F4FF006011047207EAA4E01280AD0C1
:104A700002281CBFFFDFBDE8F09F84F8205094F8A7
:104A8000240010BB1DE0A77700F0F6FC3078032867
:104A900004BF65772577607D9F4951F8200094F821
:104AA000201059B950B161680123091A0022184633
:104AB00000F009FC02202076BDE8F09F2776BDE8D3
:104AC000F09FFCF709FD84F82450A07F002808BF60
:104AD000277608D0717860680123411A00221846B1
:104AE00000F0F1FB257694F82E0094F82E1009EBD7
:104AF00001110A68BDE8F05F002110478348007883
:104B0000BDE8F05FFEF780B994F82D8004EB880AC9
:104B10009AF82560202E08BFFFDF0BEB881000EB12
:104B2000460040788AF825008AF8285084F82350F7
:104B300084F82E60424631460220FEF79BFD84F841
:104B4000227000BF94F82E0094F82E1009EB01118A
:104B50000A68BDE8F05F0521104710B56F4C94F866
:104B60002E00202808BFFFDF94F82E0094F82E10A6
:104B70006B4A02EB01110A68BDE81040042110479E
:104B800030B5664C054683B094F82E00202808BF47
:104B9000FFDFA068B0F1FF3F18BFFFDF94F82E00E1
:104BA00001AA5F4901EB0010694690F90C00284406
:104BB00000F09BFC9DF904000F28CCBF01200020D1
:104BC000009908446168084420F07F41A16094F88E
:104BD0002100002804BF03B030BD012303B0002230
:104BE000BDE83040184600F06EBB4E4A0B1A02F189
:104BF000010CB3EB9C0F3CBF1846704710B5441A2C
:104C0000B4EB9C0F3CBF184610BD9A4203D2101A59
:104C10000844401C10BD94429EBFFFDF002010BD21
:104C2000511A0844401C404210BD01230022014695
:104C3000022000F048BB022000F0FCBA00F0AABB42
:104C40002DE9F043354C054683B094F82E0020281A
:104C500008BFFFDF642D6AD333490020491B804120
:104C600065D394F82E00DFF8B88094F82D7008EB27
:104C70000019206801AA2844694600F036FC9DF915
:104C80000400002802DD0098401C0090D9F80800BC
:104C90000099D9F804204618B21A22F07F42B2F5E2
:104CA000800F44D204EB870292F82520202A0AD0F4
:104CB00008EB02125268101A0002C21700EB1260D1
:104CC0000012884233DBA068B0F1FF3F10D000F043
:104CD00061FBA168081A0002C11700EB1160001205
:104CE000022824DD012000F0A5FA4FF0FF30A0607B
:104CF00020682844206026F07F402061012084F84D
:104D0000230003B0BDE8F083000000007B0000201A
:104D1000A80500207D0000204CEB000028060020A4
:104D2000A8030020FF7F841EFF1FA107FFE70020CC
:104D3000E7E72DE9F05FFF4D804695F82D00A5F1DE
:104D4000800707EB801010F81800002808BFFFDF6D
:104D500095F82D90F84E26B1002140F66500AFF38E
:104D6000008007EB891414F81800012817D0C0B28E
:104D700004281CBF0528062850D02EB14FF0000192
:104D800040F67100AFF3008020BF26B1002140F64D
:104D90007A00AFF3008014F818000128E7D101244D
:104DA00026B1002140F68100AFF30080ACB30020B3
:104DB00085F8230026B1002140F68600AFF300807D
:104DC00095F82DB0012020EA0B0907EB8B1107EBBA
:104DD0008910402209F00FFD26B1002140F25C400D
:104DE000AFF3008005EB8B0005EB890AD0F82500B6
:104DF000CAF8250026B100214FF48C60AFF3008083
:104E000095F82300B8B1002E1CBF002140F68C009D
:104E1000C6D000BFAFF30080C2E705E04A46414676
:104E20000120FEF727FCB0E7C448002818BFAFF305
:104E3000008062B6BBE726B100214FF40960AFF3F2
:104E400000809AF826300AF1260140461C464FF0B1
:104E5000200B07EB89120AF1270A04E0A34602EBB4
:104E60004B0C9CF80140844202D0202C2BD0F5E75B
:104E7000202C28D0A34204D102EB430040780870D4
:104E800005E002EB440002EB4B0140784870BAF1B8
:104E9000000F11D026B1002140F2DA30AFF30080CC
:104EA0009AF80000A04207D126B1002140F2DD307F
:104EB000AFF300808AF800B05EB1002140F2E2302A
:104EC000AFF3008000E026B1002140F69400AFF37C
:104ED00000809B48002818BFAFF30080EFF31080DC
:104EE00000F0010472B695F8230038B1002E1CBF03
:104EF000002140F69A003FF453AF8BE785F82D90E0
:104F0000012085F8230054B1002E08BFBDE8F09FB2
:104F1000002140F6A700AFF30080BDE8F09F87486E
:104F2000002818BFAFF3008062B6EDE7F0B51F466A
:104F300014460E460546202A08BFFFDF81487D49FA
:104F400000EB871202EB440001EB8703202E23D0F5
:104F500002EB4601407891F801C04870202160467C
:104F6000202C06D0014602EB4100A142057040789A
:104F7000F8D193F82740202C1ABF02EB440484F8A0
:104F800001C083F826C04FF0200C02EB410282F8EA
:104F900001C083F82710F0BD93F825C0407883F84E
:104FA0002500DBE72DE9F003DFF888C120250CEBB5
:104FB000810C9CF825C01570BCF1200F08BF1D7036
:104FC00073D0624C604E04F5007505EB811700BF8D
:104FD00004EB0C110D1D8968D0F80080A8EB0101CD
:104FE00009024FEAE17901EB1961091223D4417AF0
:104FF000A9B195F80990B9F1000F10D156F8211018
:105000002D684144D6F80080891C45442D1D491B5C
:105010000902CD1701EB1561091232290BDB07EBF1
:105020004C0182F800C091F801C0BCF1200FCFD133
:1050300015781D7039E015781D70BCF1200F34D043
:1050400004EB0C124568D2F80480111DA8EB05058D
:105050002D024FEAE57905EB19652D1214D4497A32
:1050600019B3457A0DBB56F8211005684144D6F8AE
:105070000080891C45442D1D491B0902CD1701EBF9
:1050800015610912322910DA83F800C0917B827A07
:10509000914203D8BDE8F0030020704707EB4C01B4
:1050A00091F801C0BCF1200FCAD1BDE8F003012086
:1050B000704770B51D4613460E46044600F10802BF
:1050C000014682B0184600F010FA94F908000F2843
:1050D00004DD1F3820722068401C2060002E0CBFA9
:1050E00004200220184951F8261046182068694605
:1050F000801B20F07F40206094F908002844C01CE9
:105100001F28B8BF012009DB01AA00F0EEF99DF8C5
:10511000040000281CBF0098401C00D0009000999B
:10512000206831440844C01C20F07F40606002B019
:1051300070BD0000280600200000000000000000F4
:1051400000000000A80500204CEB0000A803002090
:1051500010B44FF0E0224FF400634FF0010C002137
:10516000C2F8803102F5C072BFF34F8FBFF36F8F6B
:10517000DC101460BFF34F8FBFF36F8FEA4880F8E5
:105180000014C01E80F80014E848C0F804C0C0F83D
:1051900008C0C0F84011C0F84411C0F84811C2F866
:1051A0000031C2F8004142F8803CC0F800C010BC99
:1051B000704730B401204FF0E022C5024FF0000CE0
:1051C000C2F88051BFF34F8FBFF36F8F0402C2F854
:1051D0008041BFF34F8FBFF36F8FD44B58609860FF
:1051E000D34801680029FCD1C3F840C1C3F844C1C9
:1051F000C3F848C1C2F88052C2F8804230BC704740
:105200004FF0E0204FF40061C0F88012C910C0F8E0
:1052100080127047002804BFC6487047012804BFA9
:10522000C5487047022804BFC448704700B5FFDF77
:10523000002000BD08B5BD49002298B1012834D036
:1052400002281CBFFFDF08BD4FF48020C1F808030F
:10525000C1F84803BA480260C1F84821B74800685D
:10526000009008BD4FF48030C1F80803C1F848032E
:10527000B44B1A60C1F84021B34BC1031960B34964
:10528000C1F80803B2480260C1F840214FF0E023A2
:105290008015C3F88001C431BFF34F8FBFF36F8F08
:1052A000C1F83C21AB48027008BD4FF40030C1F892
:1052B0000803C1F84803A8480260C1F844219E4889
:1052C0000068009008BD70B5DFF860C204260024B5
:1052D0000125B0B101284CD002281CBFFFDF70BDF2
:1052E0009E484FF48022012BC0F8401518BFCCF81F
:1052F0000823C0F8404108BFCCF80423CCF844236D
:1053000070BD881E20F07F40CCF840054FF48030FF
:10531000CCF80803CCF84041CCF84403012B14BF6F
:10532000002101218B4B597088490D61DFF830C293
:10533000CCF800408B4C4FF0020CC4F800C0DFF8F2
:1053400028C2CCF80060DFF808C23D32CCF800205B
:10535000C1F800524FF0E0224FF4807CC2F880C2C6
:10536000C1F80403C2F800C10804804908601D7038
:1053700070BD7F4A4FF40030012BC2F8401518BFB2
:10538000CCF80803C2F8404108BFCCF80403CCF8BD
:10539000440370BD66480068704770B5754805687D
:1053A000764975480860614CD4F840010026012810
:1053B0000AD1D4F8080310F4803F05D04FF48030B0
:1053C000C4F80803C4F84061D4F8440101280DD1A1
:1053D000D4F8080310F4003F08D04FF40030C4F8AC
:1053E0000803C4F844610120FFF7A5FAD4F8480186
:1053F00001280DD1D4F8080310F4802F08D04FF401
:105400008020C4F80803C4F848610220FFF793FA2B
:105410005B48056070BD574810B504685749564849
:1054200008604C490878002808BF03201FD0464A6E
:105430004FF000401060454AC00BC2F80803444BCF
:1054400000201860C2F840014FF0E02C9315CCF812
:105450008031C432BFF34F8FBFF36F8FC2F83C016E
:1054600008704A78002A1CBF4870002001D0FFF75E
:1054700062FA4348046010BD4FF0E0214FF4001081
:10548000C1F8000270474FF0E0214FF40010C1F85E
:10549000800270472D49012008614FF0E021000291
:1054A000C1F88002704729494FF47C10C1F8080305
:1054B00000200146820002F1804202F50042C2F85B
:1054C0004015C2F84011401CC0B20628F2D3704704
:1054D000410A43F609525143C0F3080010FB02F0A1
:1054E00000F5807001EB50207047430B48F2376C99
:1054F00003FB0CF31B0C4FEA432CC1F800C0DFF890
:1055000084C003FB0C0320484CF2F72C5843400D99
:1055100010FB0CFC0CEB432303F580735B12137040
:105520000A681044086070470BE000E000B00040DB
:1055300004B500404081004044B1004048B1004003
:1055400048B5004040B5004008F5014000800040EB
:10555000408500407F00002044B5004008B0004076
:1055600004850040088500401085004004F5014096
:1055700004B000401005024001000001180502407F
:1055800014050240F7C2FFFF6F0C01000548064AF0
:105590000168914201D100210160044901200860A5
:1055A0007047000084000020BEBAFECA40E50140FA
:1055B0000F4A12680D498A420CD118470C4A1268EA
:1055C0000A4B9A4206D101B5FDF774FCFDF787FF3F
:1055D000BDE80140074909680958084706480749D6
:1055E000054A064B7047000000000000BEBAFECA24
:1055F0008400002004000020700A0020700A0020AF
:1056000007F018BFFD4810B5017800290ED101211F
:105610000170FB4880F8391001F0E5F8F94801F015
:1056200076FDBDE81040012003F06EBF10BDF348C9
:105630000178002907D000210170F14880F8391065
:10564000012003F061BF7047EC4810B5007850B1FD
:1056500001F02BFD044601F0ADFE002003F054FFE5
:105660001CB1002010BD022010BD0D2010BD70B572
:1056700016460D46044600F004FE38B9284600F0F0
:1056800000FE18B9304600F0FCFD08B1072070BDDF
:10569000304604F0F5FEC0F307212970207009B1EF
:1056A000002070BD052070BD2DE9F0410446D648AC
:1056B0001D46164600780F46401E844203DD44F224
:1056C0003300BDE8F081072E02D944F22900F8E743
:1056D00001F0D0FC30B132463946204604F0A7F93B
:1056E00010B107E00320ECE72946204604F007FA52
:1056F0000028E6D040F48040E3E7C34910B50978BC
:10570000491E884202DD44F2330010BD04F034FA31
:105710000028FAD040F4804010BDBB4A10B5127882
:10572000521E904202DD44F2330010BD02F049FBEC
:105730000028FAD040F4804010BDB34910B5097874
:10574000491E884202DD44F2330010BD04F028FAFD
:105750000028FAD040F4804010BD10B500B10120FF
:1057600004F067FA002801D040F4804010BD70B505
:105770000446A5480E4615460078401E844202DDC8
:1057800044F2330070BD104600F07BFD08B10720E5
:1057900070BD2B4632460021204602F01AFC5028EC
:1057A00002D040F4804070BD002070BD70B504464A
:1057B00095480E4615460078401E844202DD44F2AC
:1057C000330070BD104600F05CFD08B1072070BDCD
:1057D0002B463246A021204602F0FBFB502802D087
:1057E00040F4804070BD002070BD2DE9F0410446BA
:1057F00085481E460F4600781546401E844202DD4D
:1058000044F233005DE7104600F03BFD08B107208D
:1058100057E733462A463946204603F056FB5028C0
:1058200002D040F480404CE700204AE710B504461F
:1058300000F027FD08B1072010BD204603F0AEFBA5
:105840000028F9D040F4804010BD10B503F0B3FB40
:10585000002801D040F4804010BD70B505466A486C
:105860000C460078401E854202DD44F2330070BDD4
:10587000084600F006FD08B1072070BD284604F078
:105880000FFA2070002070BD10B504F045FB002019
:1058900010BD7CB505460C46072802D944F2290004
:1058A0007CBD084600F0EDFC08B107207CBD2068F7
:1058B0000090606801906946284603F05CF900207A
:1058C0007CBD514A10B5137844F233025B1E9842F6
:1058D00002DC8B1E4F2B01D3104610BD02F0E1F805
:1058E000002010BD70B5054647480C460078401EA4
:1058F000854202DD44F2330070BD084600F0C1FC71
:1059000008B1072070BD284602F097FE20700020E5
:1059100070BD3D4B10B51B785B1E984202DD44F212
:10592000330010BD02F069FE002010BD364B10B5EB
:105930001B785B1E984202DD44F2330010BD02F07A
:10594000A7FE002010BD304A10B5127844F2330390
:10595000521E904204DC19B103F0F8FF002010BD84
:10596000184610BD70B5054627480C460078401E05
:10597000854202DD44F2330070BD084600F081FC30
:1059800008B1072070BD284604F001F820800020EF
:1059900070BD38B51C4C2478641EA04202DD44F270
:1059A000330038BD8DF80010090A8DF801108DF80C
:1059B00002208DF80330694603F098FF0028F0D0EC
:1059C00040F4804038BDF8B507460F481C461546E0
:1059D00000780E46401E874202DD44F23300F8BDD7
:1059E000084600F04EFC38B9284600F04AFC18B9C9
:1059F000204600F046FC48B10720F8BD8800002092
:105A00005806002001560000AD00002069463846C7
:105A100003F00DFF9DF800009DF8011040EA012001
:105A200030809DF8020028709DF80300207000204F
:105A3000E3E7FC4A10B51278521E904202DD44F2B0
:105A4000330010BD03F0B3FF002010BDF54A10B5C0
:105A50001278521E904202DD44F2330010BD03F072
:105A6000A1FF002010BDEF4A10B51278521E9042DF
:105A700002DD44F2330010BD03F0A4FF002010BD8E
:105A8000E84A10B51278521E904202DD44F233000B
:105A900010BD03F09EFF002010BD70B50546E14823
:105AA0000C460078401E854202DD44F2330070BD92
:105AB000084600F0E6FB08B1072070BD284603F059
:105AC0008EFF2070002070BDD64A10B51278521E8D
:105AD000904202DD44F2330010BD03F05DFF002070
:105AE00010BD70B50C46054600F0CBFB08B1072091
:105AF00070BD2146284604F077FA0028F8D040F41B
:105B0000804070BD70B505460C46084600F0B9FBF4
:105B100008B1072070BD2146284604F09BFA0028F2
:105B2000F8D040F4804070BD10B503F054FE00285A
:105B300001D040F4804010BD10B503F055FE0020A8
:105B400010BD10B5044600F09CFB08B1072010BD45
:105B500003F050FE2070002010BD7CB50646B14811
:105B600015460C460078401E864202DD44F23300A2
:105B70007CBD084600F085FB08B107207CBD20787D
:105B80008DF8000060788DF80100A0788DF8020093
:105B9000E0788DF803008DF804506946304603F034
:105BA0002FFA0028EAD040F480407CBD08B59D4B18
:105BB0001B785B1E984202DD44F2330008BD8DF86D
:105BC00000108DF80120694603F000FA0028F5D096
:105BD00040F4804008BD10B5924C2478641EA04269
:105BE00002DD44F2330010BD03F03BFA002010BD8B
:105BF00010B503F02BFA002010BD38B5044600F0B4
:105C000040FB08B1072038BD684603F023FA9DF831
:105C100000009DF8011040EA01202080002038BDDE
:105C200070B505460C46084600F02BFB08B107206E
:105C300070BD2146284604F0E3FD0028F8D040F46A
:105C4000804070BD70B505460C46084600F019FB53
:105C500008B1072070BD2146284604F0E1FD002868
:105C6000F8D040F4804070BD6E4A10B51278521ED4
:105C7000904202DD44F2330010BD04F0E1FD002843
:105C8000FAD040F4804010BD10B5664C2478641EF4
:105C9000A04202DD44F2330010BD04F0E0FD002814
:105CA000FAD040F4804010BD70B505460C46084659
:105CB00000F0E7FA08B1072070BD2146284604F03D
:105CC000F6FE0028F8D040F4804070BD70B505465F
:105CD0000C46084600F0D5FA08B1072070BD2146F1
:105CE000284604F014FF0028F8D040F4804070BD2E
:105CF00070B505460C46084600F0C3FA08B1072007
:105D000070BD2146284604F01CFF002070BD10B570
:105D100004F031FF002801D040F4804010BD70B580
:105D20000C46054600F0ADFA18B9204600F0A9FA75
:105D300008B1072070BD2146284604F046FF002028
:105D400070BD70B50646374814460D460078401EB3
:105D5000864202DD44F2330070BD3DB1084600F0DA
:105D600090FA60B9686800F08CFA40B94CB12046EE
:105D700000F087FA18B9606800F083FA08B10720CC
:105D800070BD25B1297830466A6803F0F3F924B173
:105D900021783046626803F06EFA002070BD70B55D
:105DA0000646204814460D460078401E864202DD15
:105DB00044F2330070BD3DB1084600F062FA60B9AC
:105DC000686800F05EFA40B94CB1204600F059FA1C
:105DD00018B9606800F055FA08B1072070BD25B108
:105DE000294630466A6803F000FA24B1214630465D
:105DF000626803F05DFA002070BD10B504460A48E1
:105E0000007898B101F051F901F0D4FA204603F07E
:105E100054FC68B1034920780870002003F074FB3B
:105E2000002010BDAD000020880000200220F8E70F
:105E30000720F6E710B5044600F023FA08B1072062
:105E4000EFE703F0DAFC20700020EAE710B5044623
:105E500000F017FA08B10720E3E703F0D3FC207045
:105E60000020DEE770B50546F9480C460078401E74
:105E7000854202DD44F2330070BD084600F001FAAD
:105E800008B1072070BD284603F0C2FC2070002036
:105E900070BD70B50546EE480C460078401E854240
:105EA00002DD44F2330070BD084600F0EAF908B1A3
:105EB000072070BD284603F0B1FC2070002070BDA3
:105EC00010B502F07CFB0020ABE710B502F07EFBC2
:105ED0000020A6E710B5044600F0D3F908B107206A
:105EE0009FE7DC480021425C6254491CC9B2142976
:105EF000F9D3002095E710B5044600F0C2F908B1C7
:105F000007208EE7D248B221007820700820607008
:105F10000020A070E170362121716071FD20A07118
:105F2000E0710120207200207BE72DE9FE431F462F
:105F3000164680460C004FF0060504D0084600F0D7
:105F4000A0F9002870D126B1304600F09AF9002857
:105F5000F8D127B1384600F094F90028F2D1BC48B6
:105F600044F23301B8F1100F6FD2DFE808F06E6E23
:105F7000080C18243542494E6F818EEEEDEC2078E6
:105F800004F02BFE31E100782278401E824248DC8A
:105F9000301E49D00188104604F029FE25E1007822
:105FA0002278401E82423CDC002EF2D0104604F0E3
:105FB0002CFE308019E1002CEBD0207804F014FA8C
:105FC000607800284FF0200003D003F004FC60BB91
:105FD0000BE103F009FC08E1002CDAD004F007FA29
:105FE000207003F007FCC04340F34010401C607079
:105FF000FBE0200018D002789AB104F0FBF9F4E03D
:10600000200011D004F0FFF9EFE0002C0CD0002E9E
:106010000AD0002F08D0007824783678401E8442B9
:1060200004DD0846BDE8FE836BE00BE0384600F077
:1060300028F9002865D13A463146204604F0ECF9AB
:10604000502870D040F48040ECE7CFE0002534B118
:10605000207800B1012003F066FF10B1C2E00725EF
:10606000C4E0607803F085FF608803F098FFBDE02E
:106070000025002CF3D003F089FF207003F08AFF85
:10608000607003F0A6FF6080B0E0684601F040FA5F
:1060900003F0B3FB10B144F21500C3E78CB3E2790F
:1060A000217A8A422DD0142A01D3012000E0002059
:1060B000142901D3012300E00023184321D1A7793B
:1060C000082F7DD266782579AE4202D14FF0010CBF
:1060D00001E04FF0000C2078E37800EA03081CEAA6
:1060E000080F6DD1202E02D34FF0010C01E04FF0CC
:1060F000000C10EA0C0F63D1202D03D34FF0010CDC
:1061000002E05DE04FF0000C13EA0C0F58D19DF84F
:1061100000C0BCF1000F24D018B39DF801008642E6
:1061200002D0012001E060E000209DF80660B74247
:1061300001D0012600E0002630439DF80760B242FE
:1061400004D0012603E053E03CE034E00026304375
:106150009DF80860B14201D0012600E000263043DE
:1061600023D19DF8030010B30BB39DF804008542C2
