:020000021000EC
:102000000000012009400100314001005D30010065
:102010003540010037400100394001000000000058
:102020000000000000000000000000003B40010034
:102030003D400100000000003F4001004140010020
:102040004340010043400100434001004340010080
:102050004340010043400100B93401004340010006
:102060004340010043400100434001004340010060
:102070004340010043400100434001004340010050
:10208000434001000D260100434001004340010090
:10209000AD260100434001005D44010043400100C2
:1020A0004340010043400100434001004340010020
:1020B0004340010043400100000000000000000018
:1020C0004340010043400100434001004340010000
:1020D0004340010043400100434001000000000074
:1020E00000000000000000000000000000000000F0
:1020F00000000000000000000000000000000000E0
:1021000000000000000000000000000000000000CF
:1021100000000000000000000000000000000000BF
:1021200000000000000000000000000000000000AF
:10213000000000000000000000000000000000009F
:10214000000000000000000000000000000000008F
:10215000000000000000000000000000000000007F
:10216000000000000000000000000000000000006F
:10217000000000000000000000000000000000005F
:10218000000000000000000000000000000000004F
:10219000000000000000000000000000000000003F
:1021A000000000000000000000000000000000002F
:1021B000000000000000000000000000000000001F
:1021C000000000000000000000000000000000000F
:1021D00000000000000000000000000000000000FF
:1021E00000000000000000000000000000000000EF
:1021F00000000000000000000000000000000000DF
:1022000010B5054C237833B9044B13B10448AFF330
:1022100000800123237010BDEC0B002000000000A3
:102220009C49010008B5034B1BB103490348AFF3B8
:10223000008008BD00000000F00B00209C49010058
:10224000154B002B08BF134B9D46A3F5803A002188
:102250008B460F461348144A121A02F0ADF90F4B81
:10226000002B00D098470E4B002B00D09847002041
:10227000002104000D000D48002802D00C48AFF3E7
:10228000008002F075F92000290001F097FE02F0AD
:102290005BF900BF00000800000001200000000002
:1022A00000000000EC0B0020E80E00200000000001
:1022B00000000000054A4FF0A043105CD3F804353D
:1022C00023FA00F0C04300F001007047E448010029
:1022D000044B195C4FF0A04201238B40C2F80C352F
:1022E000704700BFE4480100044B195C4FF0A04266
:1022F00001238B40C2F80835704700BFE448010055
:102300004FF0A04310B44FF000404FF080744FF4F2
:1023100000314FF48012C3F80845C3F80805C3F82C
:102320000815C3F808255DF8044B70474FF0A0432B
:1023300010B44FF000404FF080744FF400314FF470
:102340008012C3F80C45C3F80C05C3F80C15C3F88C
:102350000C255DF8044B7047074B4FF0A041185C0B
:10236000D1F804350122824022EA03001340C1F86B
:102370000805C1F80C357047E448010030B44FF04F
:10238000A04303224FF080754FF000444FF400301B
:102390004FF48011C3F86027C3F87C27C3F84427A3
:1023A000C3F85027C3F80855C3F80845C3F8080513
:1023B000C3F8081530BC7047062809D0072809D093
:1023C000102809D013280CBF03204FF0FF307047AE
:1023D0000020704701207047022070472DE9F84F18
:1023E000254B93F800C0BCF1000F31D0DFF88CB062
:1023F000DFF88CA0DFF88C900024012703E0013483
:10240000E4B2644524D226B2DBF80050DAF800309A
:1024100015F8360007FA00F10B4205EBC608EED0BE
:1024200023EA0103CAF8003001F03CF815F83660E1
:10243000D9F8003007FA06F52B4000FA06F18B4276
:1024400008D00D4B013493F800C0E4B26445DAD3F0
:10245000BDE8F88F98F80110D8F80430A1F1010117
:10246000B1FA81F14909091AB1FA81F14909002B40
:10247000E7D030469847E4E7080C0020380C0020ED
:10248000340C0020300C002070B50646114800F0D6
:102490006DFD40B9104D01242B68B440234203D098
:1024A00023EA04042C6070BD304600F0FBFF0B49AA
:1024B0000A6860B122432B6809480A601C4301681E
:1024C0002C6004480022BDE8704000F0F9BC22EA0C
:1024D0000402F0E7100C0020340C0020300C002027
:1024E0000C0C0020042A34D92DE9F04182B00F46AB
:1024F0000646144600F09CFE002834D01C4A1D4BB2
:102500001D4916601F701D4A1D4B0C6000257C1E66
:1025100015601D60E4B2F7B106EBC404194F083E24
:102520004FF0030801E0B44215D0A37820788DF86D
:1025300004803A4601A98DF806508DF807508DF8B1
:10254000053000F07FFE083C0028ECD002B0BDE86A
:10255000F081072070470C4A0C48002100F09EFCD7
:1025600002B0BDE8F08100F029FE0028C6D0EDE7FA
:10257000380C0020080C00200C0C0020300C00202F
:10258000340C002089240100DD230100E84801000B
:1025900070B5084D2B785BB1074E002433680121DC
:1025A00013F8340000F01CFF2B780134A342F5D857
:1025B000002070BD080C0020380C002000B585B04C
:1025C00000230390194601AA44F20100ADF804303B
:1025D000029300F003F805B05DF804FB084B1B689C
:1025E000DB0700D5FFDEBFF34F8F0649064BCA68F5
:1025F00002F4E0621343CB60BFF34F8F00BFFDE7EF
:10260000F0ED00E000ED00E00400FA05F8B5204A26
:10261000204B0024C2F84041C2F84441C2F848416E
:10262000C2F84C41C2F80041C2F804411B6833B300
:102630001949D2F804550A68AD1A1A6825F07F4581
:10264000AA4227460DD8197CDE69AD1A144419B187
:102650001F74D3E9052090471EB133461A68AA4279
:10266000F1D90E490E4A0B7812789A4208D00D49DA
:102670000D4A41F823404FF48013C2F80031F8BDF1
:10268000531CDBB2022B08BF00230B70EFE700BF27
:10269000001001405C0D0020580D0020550D002059
:1026A000540D00204C0D002000E100E02DE9F04F1A
:1026B000AF48B04AB04913780978D0F80090AF48D5
:1026C00089B000680290994200F04E810133DBB27C
:1026D000022B08BF00231370A94A52F82300A44B11
:1026E00009EB000727F07F471F60029B00252A4661
:1026F0002C46AC46B3B11968814200F24D81DD68C9
:10270000C3F800C0401A0C44D9693DB109EB040676
:1027100026F07F46C3E90165DA611A460B460125BA
:10272000002BE8D1002D40F09B81012302990693F4
:10273000B946944B944C1B7805934FF000084B46D8
:10274000CDF81C80CDF80C804FF0010EC1468C46B0
:102750009B4642B3D2E901651346D2698B48A6EB8A
:102760000B0121F07F41814259D829441960002092
:1027700083F810E0C3E90100D861BCF1000F72D00A
:10278000DCF8000088425FD2664603E02868884291
:1027900063D22E46F569091A002DF7D11960DD6163
:1027A000F361002AD6D1CA46CDF804B094F801905E
:1027B00021784FF0000B1646894576D0084600EB8D
:1027C000400004EBC0004A1CA378D1B2027921700A
:1027D0008B4204BF84F800B00021022A836853D0E2
:1027E000032A44D0012AE7D11F7C002FE4D13246CE
:1027F000C6685E6005699D604169D96081699961BB
:102800000599DDF804B0D1460029A7D03E46A6EBD5
:102810000B015E485F6021F07F418142A5D9ABEB9F
:10282000060121F07F41A94202D2691A19609EE790
:10283000002183F810E0C3E900119960D961BCF16F
:10284000000F10D0DCF80000411ACCF800104FF057
:102850000108C3F81CC09C467BE7401A2860196039
:10286000DD61F3619DE79C464FF0010871E7BCF123
:10287000000FA1D0624600231374D269002AFBD155
:1028800094464FF0010891E7BCF1000F09D0634571
:10289000624603D192E083424FD00246D0690028BD
:1028A000F9D183F810B0894588D1C346DDF804908A
:1028B000D046BBF1000F40F0D780079B002B40F0C3
:1028C0001A82B8F1000F03D02E4B9DF814201A7015
:1028D0002A4B1A68039B1BB9029B9A4200F0C880DE
:1028E000002A00F0CC802A48214BD0F804151B6840
:1028F000284C15682678CA1A22F07F420332002E2F
:1029000000F0A68195422CBF5B199B18204823F04C
:102910007F43C0F84035D0F80425521A5B1A22F0E4
:102920007F4223F07F4303329A4200F24781154AE7
:102930000023137009B0BDE8F08F934236D067468C
:1029400004931D46E8692D68D06128B102682A44C5
:102950000260217894F801906745A2D00122BC461C
:10296000039283F810B09EE7002206920146E0E64B
:10297000580D0020540D0020550D00205C0D002046
:102980004C0D0020480D00203C0C0020FEFF7F0075
:1029900000100140490D0020002D40F0B081091ABF
:1029A00019600123B94606930299C2E60493DCF844
:1029B0001C7037B14FF00108049DC3E7CDF810C07B
:1029C000F5E77748774DC0F808E077484FF02F08D3
:1029D000006800BF00BF00BF00BF00BF00BF00BF56
:1029E00000BFA8422FD000BF00BF00BF00BF00BF84
:1029F00000BF00BF00BF00BF00BF00BF00BF00BFDF
:102A000000BF00BF00BF00BF00BF00BF00BF00BFCE
:102A100000BF00BF00BF00BF00BF00BF00BF00BFBE
:102A200000BF00BF00BF00BF00BF00BF00BF00BFAE
:102A300000BF00BF00BF00BF00BF00BF00BF00BF9E
:102A400000BF00BF00BFB8F10108C2D14FF0010ABA
:102A50000197CDF814A0CDF81CA0D046049D71E7D5
:102A6000524902930B6060E6504BC3F800C024E764
:102A7000069B002B3FF45BAF002A7FF434AF48493C
:102A80004B4B494E474C4FF480304FF400370125F3
:102A9000C3F88070C1F848032F23C1F808034D60C4
:102AA00030681E4600BF00BF00BF00BF00BF00BFB0
:102AB00000BF00BFA0422FD000BF00BF00BF00BFBB
:102AC00000BF00BF00BF00BF00BF00BF00BF00BF0E
:102AD00000BF00BF00BF00BF00BF00BF00BF00BFFE
:102AE00000BF00BF00BF00BF00BF00BF00BF00BFEE
:102AF00000BF00BF00BF00BF00BF00BF00BF00BFDE
:102B000000BF00BF00BF00BF00BF00BF00BF00BFCD
:102B100000BF00BF00BF00BF013EC3D18D6025498B
:102B20000A6000BF00BF00BF00BF00BF00BF00BF02
:102B300000BFA0422FD000BF00BF00BF00BF00BF3A
:102B400000BF00BF00BF00BF00BF00BF00BF00BF8D
:102B500000BF00BF00BF00BF00BF00BF00BF00BF7D
:102B600000BF00BF00BF00BF00BF00BF00BF00BF6D
:102B700000BF00BF00BF00BF00BF00BF00BF00BF5D
:102B800000BF00BF00BF00BF00BF00BF00BF00BF4D
:102B900000BF00BF00BF013BC3D1074B1A70C6E6A0
:102BA000001001400024F400800B00205C0D002088
:102BB00000E100E0580D0020490D0020D0F8043558
:102BC000514AC0F84035126850492F2300BF00BF5A
:102BD00000BF00BF00BF00BF00BF00BF8A422FD0B0
:102BE00000BF00BF00BF00BF00BF00BF00BF00BFED
:102BF00000BF00BF00BF00BF00BF00BF00BF00BFDD
:102C000000BF00BF00BF00BF00BF00BF00BF00BFCC
:102C100000BF00BF00BF00BF00BF00BF00BF00BFBC
:102C200000BF00BF00BF00BF00BF00BF00BF00BFAC
:102C300000BF00BF00BF00BF00BF00BF00BF00BF9C
:102C4000013BC3D1324B4FF40032C3F800216EE692
:102C50002F4EDFF8B4E0DFF8B4C04FF48037C0F88F
:102C60004473C0F804734FF40037C6F880713760BE
:102C700001260660DEF800702F2000BF00BF00BFF5
:102C800000BF00BF00BF00BF00BF67452FD000BF1F
:102C900000BF00BF00BF00BF00BF00BF00BF00BF3C
:102CA00000BF00BF00BF00BF00BF00BF00BF00BF2C
:102CB00000BF00BF00BF00BF00BF00BF00BF00BF1C
:102CC00000BF00BF00BF00BF00BF00BF00BF00BF0C
:102CD00000BF00BF00BF00BF00BF00BF00BF00BFFC
:102CE00000BF00BF00BF00BF00BF00BF00BF013872
:102CF000C3D1267006E6074BC3F80090E1E5064C09
:102D0000029323604BE600BF800B00200024F400F8
:102D100000E100E0580D00205C0D0020F0B4554BA0
:102D2000554A564E564C4FF480304FF40031012531
:102D3000C2F88010C3F848032F21C3F808035D6070
:102D400030680E4600BF00BF00BF00BF00BF00BF1D
:102D500000BF00BFA0422FD000BF00BF00BF00BF18
:102D600000BF00BF00BF00BF00BF00BF00BF00BF6B
:102D700000BF00BF00BF00BF00BF00BF00BF00BF5B
:102D800000BF00BF00BF00BF00BF00BF00BF00BF4B
:102D900000BF00BF00BF00BF00BF00BF00BF00BF3B
:102DA00000BF00BF00BF00BF00BF00BF00BF00BF2B
:102DB00000BF00BF00BF00BF013EC3D19D6000BF88
:102DC00000BF00BF00BF00BF00BF00BF00BFA042E8
:102DD0002FD000BF00BF00BF00BF00BF00BF00BFBB
:102DE00000BF00BF00BF00BF00BF00BF00BF00BFEB
:102DF00000BF00BF00BF00BF00BF00BF00BF00BFDB
:102E000000BF00BF00BF00BF00BF00BF00BF00BFCA
:102E100000BF00BF00BF00BF00BF00BF00BF00BFBA
:102E200000BF00BF00BF00BF00BF00BF00BF00BFAA
:102E300000BF0139C3D1134E134C1449144D154F23
:102E400000203070206008704FF480140B26E021C1
:102E50002880AE703870104DC2F8804182F814138B
:102E60001460C3F8080582F81113D3F804352B60F9
:102E7000F0BC70470010014000E100E0800B002032
:102E80000024F400490D00205C0D0020540D0020AA
:102E90003C0C0020550D0020580D0020074B9B785E
:102EA0004BB132B128B10368187C20B959745A610A
:102EB0007047072070470820704700BF3C0C002077
:102EC0002DE9F047264CA37882B0002B3CD0002897
:102ED0003AD004293CD94369002B35D0814602A859
:102EE00099F811300026012B00F8016D0CBF8846BF
:102EF000B04617468A4600F073F86378A1782278C6
:102F00009DF807005D1CEDB2A94208BF3546AA42F4
:102F100022D003EB430304EBC3030121114AC3F89E
:102F200008901971D2F804256570C3E9032AC3E932
:102F3000058700F07BF80C4B4FF480123046C3F845
:102F4000002102B0BDE8F087082002B0BDE8F0879C
:102F5000072002B0BDE8F08700F068F80420F0E731
:102F60003C0C00200010014000E100E0F0B51A4CDC
:102F7000A37883B043B338B343692BB3064602A8A2
:102F8000002500F8015D357400F02AF86278A77812
:102F900021789DF80700531CDBB29F4208BF2B46E7
:102FA000994214D002EB420204EBC2020221966065
:102FB0001171637000F03AF8084B4FF48012284604
:102FC000C3F8002103B0F0BD082003B0F0BD00F04D
:102FD0002DF80420F9E700BF3C0C002000E100E0E0
:102FE00070B4EFF3108472B60D4B9A68AAB90D490C
:102FF0000D4E01259D60D1F8805035401D60C1F80F
:103000008060D1F884505D604FF0FF33C1F88430A8
:10301000027004B962B670BC704701230370F8E710
:10302000DC0E002000E100E0FC06FFBD094B9A68C1
:103030007AB170B910B4EFF3108272B606491C6809
:103040000C605C684C60986002B962B65DF8044B35
:1030500070477047DC0E002000E100E01EF0040F16
:103060001CBFEFF309800AE0EFF308800849094A22
:10307000884201D8904202D88D464FF000006B463E
:10308000854608B5044B9847BDE808409D46704703
:103090000000012000E00020C1300100BFF34F8F8D
:1030A0000549064BCA6802F4E0621343CB60BFF3E4
:1030B0004F8F00BFFDE700BF00ED00E00400FA0500
:1030C00008B5FFF7EBFF08BD3EDF7047064A074B28
:1030D00010B5002414701C60BFF35F8F04490548CD
:1030E00000F032F8204610BD680D00206C0D002065
:1030F000EC480100600D002000B583B002A8002359
:1031000000F8013DFFF76CFFF1EE103A23F09F034A
:10311000E1EE103ABFF35F8F0A4B4022C3F88421DF
:103120009DF80700FFF782FF01F092F928B920BF50
:1031300040BF20BF03B05DF804FBFFF7C5FF03B03D
:103140005DF804FB00E100E001600B6843604A6841
:10315000934204BF00234360704700BF436843B1FC
:10316000026891680B4443605268934204BF002395
:10317000436070474901002810B4C9B2C3B215DBDF
:1031800000F1604202F5614282F8001340098000BC
:1031900000F1604000F5614003F01F0201239340FD
:1031A000C0F8803103605DF8044B7047024A03F0B9
:1031B0000F0422441176E9E7FCEC00E030B5194C2D
:1031C00094F8545083B055BB4FF0FF3307210620CD
:1031D000C4E90033C4E90233C4E90433C4E9063363
:1031E000C4E90833C4E90A33C4E90C33C4E90E3333
:1031F000C4E91033C4E912332365FFF7BBFF0A4B60
:103200000A4A1D601B68019301984FF00043012199
:10321000284684F85410C2F8043303B030BD0820A7
:1032200003B030BD700D00207C61004000600040A4
:10323000034B93F85400003018BF0120704700BFC3
:10324000700D0020F0B4654B1C1894F93050002D1F
:1032500066DACE78002E5DD11D6A013500F0AD80B2
:1032600009240C2553F8247001375DD004F1010CBA
:1032700053F82C70013700F0AA8004F1020CAC4521
:1032800045D253F82C70013700F0A18004F1030CF3
:10329000AC453CD253F82C70013700F0988004F113
:1032A000040CAC4533D253F82C70013700F08F80FA
:1032B00004F1050CAC452AD253F82C70013700F00C
:1032C000868004F1060CAC4521D253F82C700137EE
:1032D0007DD004F1070CAC4519D253F82C7001379E
:1032E00075D004F1080CAC4511D253F82C7001379D
:1032F0006DD004F1090CAC4509D253F82C7001379C
:1033000065D00A34AC4202D2DC6A01340BD004200E
:10331000F0BC70471D6801355BD001240825A1E78A
:103320000820F0BC70470B241F1865B243F8242016
:1033300087F83050002E46D08A78B2B1820002F170
:10334000A042D2F8004724F00204C2F80047CA782D
:103350000978B2B9083D2B44104693F8502042EA50
:10336000811183F85010F0BC70474C7800F5E07282
:103370004FF0A046A40046F82240CA780978002AF7
:10338000E8D0AB0003F1804303F5C0430002D3F85B
:10339000102522F4473222F44072C3F810250904A4
:1033A00000F4F850D3F8102501F4403101431143E3
:1033B000C3F810150020F0BC7047082684F8306070
:1033C0001A62354634461C4484F84800B4E7644623
:1033D000AAE700251A6084F83050ADE7700D002090
:1033E00070B42E4D2E1883B096F93030072B1CDDAB
:1033F0002B4493F848309B09032B41D0012B14BF79
:103400004FF440314FF40031800000F1A040D0F87B
:10341000002722F44032C0F80027D0F800370B43D1
:10342000C0F8003703B070BC7047DAB2072AF9D889
:10343000980000F1804000F5C04003F14002D0F850
:103440001045920092B244F0010402F18042C0F8AB
:10345000104502F5C04200200190019C1060002937
:10346000E0D096F9302055F82220002ADAD0012247
:103470000B4902FA03F3C1F8043303B070BC704780
:103480004FF0A043D3F81035C34013F0010F0CBF29
:103490004FF400314FF44031B6E700BF700D00200B
:1034A000006000404FF0A043D3F8103523FA00F03D
:1034B00000F00100704700BF2DE9F04186B0002305
:1034C000A14A01931168012900F054811E469F4BC7
:1034D0001A68012A00F05E819D4B1A68012A00F0EB
:1034E0006B819C4B1A68012A00F078819A4B1A680C
:1034F000012A00F08581994B1A68012A00F0928117
:10350000974B1A68012A00F09F81964B1A68012A8E
:103510000CD0954B1B68012B00F0A48116F0FF0F17
:1035200015D1002E30DB06B0BDE8F0818F4AD2F80D
:1035300004231706EDD500221A601A68049260333E
:10354000049A1B68012B46F0800600F08B81884F9F
:1035500001250024A30003F18043354203F5C04355
:103560004FEA45050BD0D3F8100557F82420D3F8BF
:103570001015C0F30420C1F3014102B1904701349A
:10358000082CE7D1002ECEDA00224FF0FF33CDE930
:103590000223774C012602AF94F950305D1C2CD0E9
:1035A000DBB223F0C00006AA4FEAD00C02EB0C0EEF
:1035B00003F007021EF80C1C06FA02F211421CD09E
:1035C0002518990995F9303054F82330002B00F074
:1035D0009781032900F097814FEA800C0CF1A04CF1
:1035E0001EF8145CDCF800E71540CEF3014E40F005
:1035F0005B81BEF1030F00F0DD81002594F95130AD
:10360000581C2DD0DBB223F0C00006AA4FEAD00828
:1036100002EB080E03F007011EF80C2C06FA01FC61
:1036200012EA0C0F1CD02218990992F9303054F884
:103630002330002B00F05A81032900F05A818200C8
:1036400002F1A0421EF8148CD2F800E718EA0C0F21
:10365000CEF3014E40F03581BEF1030F00F0A5819D
:1036600094F95230591C2DD0DBB223F0C00006AAC9
:103670004FEAD00802EB080E03F007011EF80C2CED
:1036800006FA01FC12EA0C0F1CD02218990992F9D3
:10369000303054F82330002B00F03B81032900F038
:1036A0003B81820002F1A0421EF8148CD2F800E7A0
:1036B00018EA0C0FCEF3014E40F0E280BEF1030F8A
:1036C00000F06D8194F953305A1C2DD0DBB223F0F9
:1036D000C00006AA4FEAD00802EB080E03F007016B
:1036E0001EF80C2C06FA01FC12EA0C0F1CD0221852
:1036F000990992F9303054F82330002B00F0EC8017
:10370000032900F0EC80820002F1A0421EF8148C24
:10371000D2F800E718EA0C0FCEF3014E40F0BB8060
:10372000BEF1030F00F0FF80002D3FF4FCAE4FF020
:10373000A043019AD3F8103593423FF4F4AE029AB5
:103740000193039228E700BF00610040046100403C
:10375000086100400C6100401061004014610040AD
:10376000186100401C6100407C6100400060004026
:10377000700D00209A49D1F8046316F001063FF459
:10378000A6AE136013680493049B964B1A68012A33
:103790007FF4A2AE924AD2F8042397077FF59CAE3D
:1037A00000221A601B680493049B8F4B1A68012A3D
:1037B00046F002067FF495AE894AD2F804235507F5
:1037C0007FF58FAE00221A601B680493049B874B21
:1037D0001A68012A46F004067FF488AE804AD2F8BF
:1037E000042314077FF582AE00221A601B6804933D
:1037F000049B7F4B1A68012A46F008067FF47BAED3
:10380000774AD2F80423D0067FF575AE00221A60FD
:103810001B680493049B774B1A68012A46F0100634
:103820007FF46EAE6E4AD2F8042391067FF568AE3F
:1038300000221A601B680493049B6F4B1A68012ACC
:1038400046F020067FF461AE654AD2F804235206A2
:103850007FF55BAE00221A601B680493049B46F060
:10386000400652E6654B00221A601B6805934FF034
:10387000A043059AD3F81035019346F000464DE673
:10388000BEF1020F7FF41EAF032963D0002B3FF47B
:1038900019AF984716E7BEF1020F7FF445AF032931
:1038A00069D0002B54D13FE7BEF1020F7FF4A5AEE3
:1038B000032900F091800025002B3FF49FAE98472C
:1038C0009CE6BEF1020F7FF4CBAE032956D0002B4D
:1038D0003FF4C6AE9847C3E603297FF425AF17F837
:1038E000082042EA0C0207F808200CE703297FF4BD
:1038F000B7AE17F8082042EA0C0207F808209EE647
:1039000003297FF47AAE17F80C50154307F80C50D2
:1039100062E603297FF4D6AE17F8082042EA0C02CB
:1039200007F80820BDE60329BBD14FF4003ED2F8CA
:1039300000C72CF4403CC2F800C7D2F800C70135DC
:103940004CEA0E0CEDB2C2F800C7002B3FF4EFAE0C
:103950009847E9E64FF4403ED2F800C72CF4403CCB
:10396000C2F800C7D2F800C701354CEA0E0CEDB220
:10397000C2F800C78AE74FF4403ED8E74FF4403E14
:10398000D2F800C72CF4403CC2F800C7D2F800C7F8
:1039900001354CEA0E0CEDB2C2F800C797E70329D7
:1039A0007FF474AF4FF4003ED6E703298FD14FF474
:1039B000003EE5E703297FF47FAF4FF40035DCF8E4
:1039C000002722F44032CCF80027DCF800272A43F5
:1039D000CCF8002701256FE74FF44035EFE700BF33
:1039E0000060004004610040086100400C6100403C
:1039F0001061004014610040186100407C6100408B
:103A0000C2DF7047CDDF7047D1DF7047D3DF70472B
:103A100010B504468378827A41780078FFF7F0FF8A
:103A200000B110BD23796279E1882078FFF7EEFFBD
:103A30000028F6D1E1782078FFF7E4FF0028F0D1E4
:103A4000A378DB07EDD421890029EAD02078BDE8EE
:103A50001040FFF7D9BF00BF0220FEF77DBC00BFBA
:103A60002DE9F0470D460646FEF7A6FC03281ED8B2
:103A7000012D04461DD00ED3022D18D11B4B00EB97
:103A800040041C44657895B1194B1B687BB12846EE
:103A9000BDE8F04718471748FFF768FA134B164A76
:103AA00004EB44010B44125D9D78AA42EBD0BDE8C3
:103AB000F0870E4F4FEA400808EB0003FA18FD5C50
:103AC00053782BB9A04447440B4BBA781A55DAE720
:103AD000DFF8289007484A464FF40041FFF7F0F915
:103AE0000028EFD189F80060ECE700BF0C0E002041
:103AF000400E0020EC0D0020480E0020C80D0020D4
:103B000010B50078FEF758FC03280BD8064B00EBE5
:103B100040001844407828B1044B1B6813B1BDE83D
:103B20001040184710BD00BF0C0E0020400E0020B2
:103B3000B24B1B68DB0700D4704770B5B04DB14E77
:103B40002B7834786BB1B04B1B7800202870002B99
:103B50004BD0FEF7C9FB0120FEF7C6FB0320FEF7A2
:103B6000C3FB172C40D8DFE814F0B500F000F000DC
:103B7000D8000401C6000F01EA00500043005000C5
:103B800043006100180018001800180018006600B3
:103B900077008B009F005D005D009C48FFF7E6F911
:103BA000D4F11104054600F0FC80002840F0F980B3
:103BB000012C13D0C82303FB04F44FF4FA704FF424
:103BC00000430021C3FB04014FF47A72002300F08C
:103BD000FDFC2A4601468D48FFF772F90220FEF7E8
:103BE00077FB894B01221A7070BDFEF789FBB8E79D
:103BF000012318462B70FEF7AFFB00224FF48041E3
:103C00008348BDE87040FFF75BB9012318462B706D
:103C1000FEF7A2FB002240F6CD417D48BDE8704092
:103C2000FFF74EB9FEF782FB347070BDFEF77EFBE6
:103C30000C23337070BD744B1B78002B00F0BB80DD
:103C40000020FEF751FB0120FEF74EFB0320FEF79C
:103C50004BFB1223337070BD6B4B1B78002B00F0B5
:103C6000AD800020FEF740FB0120FEF73DFB032066
:103C7000FEF73AFB0020FEF72BFB1323337070BDD9
:103C8000614B1B78002B00F0A9800020FEF72CFB75
:103C90000120FEF729FB0320FEF726FB0120FEF79B
:103CA00017FB1423337070BD574B1B78002B7FD04C
:103CB0000020FEF719FB0120FEF716FB0320FEF79C
:103CC00013FB0020FEF704FB0120FEF701FB152388
:103CD000337070BD4C4B1B78002B00F087800020A8
:103CE000FEF702FB0120FEF7FFFA0320FEF7FCFAC5
:103CF0000023337070BD0020FEF7DCFA002860D08E
:103D00000020FEF7F1FA05233370002241F69A11E4
:103D10003F48BDE87040FFF7D3B80020FEF7CAFA6D
:103D200000285ED00020FEF7DFFA46F2666103232A
:103D3000337000223648BDE87040FFF7C1B800205C
:103D4000FEF7C6FA0723337070BD0020FEF7B2FA03
:103D5000D0B30020FEF7C8FA022C4EF2666118BFFD
:103D60004FF40031347000222948BDE87040FFF75D
:103D7000A7B80020FEF79EFAD8B30020FEF7B4FAE9
:103D80004FF400310423D3E70020FEF7E5FA0623C1
:103D90003370002240F6CD411D48BDE87040FFF76A
:103DA0008FB80220FEF7A0FA174B00221A7070BDE0
:103DB000FEF7A6FA85E7FEF7A3FA4AE7FEF7A0FAB0
:103DC00058E7FEF785FA9EE7FEF782FA43F23331B1
:103DD00041F69A13022C08BF1946C3E7FEF790FA82
:103DE0005CE7FEF775FA41F69A11A0E7FEF788FA4C
:103DF0007EE7FEF76DFA43F23331C3E7180E002079
:103E00001C0E0020440E0020C90D0020CC0D002007
:103E1000200E002030B5204B204A1960830783B064
:103E2000106000F0010412D51D4B1E480E250F2214
:103E300010211D701125DA70997140F2666204211B
:103E40005D72FEF74FFBA8B1F4B903B030BD74B991
:103E5000154A16480021FFF721F80028F5D1144A29
:103E60001448012103B0BDE83040FFF717B8FEF752
:103E700085FAEDE7FEF78CFB0028E5D101460E4AF6
:103E80000E48FFF70BF81CB10190FEF777FA019886
:103E90000028DDD003B030BD400E0020180E0020F9
:103EA0000C0E0020F8480100313B010020490100C0
:103EB000593A010018490100013B01001C49010069
:103EC000C4DF7047C7DF7047DDDF704738B590F853
:103ED0002D40032C00D038BD1E4D287840B3002063
:103EE000FEF7F6F90120FEF7F3F90220FEF7F0F9EC
:103EF0002046FEF7EDF900232B704FF08053164C4F
:103F0000186E164DA071020E010C000A2B78E2709B
:103F100021716071224608210020E371FFF7D2FF72
:103F2000A0B90133DBB2FF2B08BF00232B7038BDD3
:103F3000FEF7DAF90120FEF7D7F90220FEF7D4F9EF
:103F40002046FEF7D1F901232B70D6E7FEF736FBAA
:103F50002B78E6E74C0E0020500E00204D0E00207E
:103F600000B585B0144B019340F201224FF080530D
:103F7000ADF808201B6EADF80A304FF40052002354
:103F800001A8ADF80C208DF80E30FFF741FD80B987
:103F90004020FFF799FF48B900210846FFF790FF3E
:103FA00008B1FEF70BFB05B05DF804FBFEF706FB5E
:103FB000F2E7FEF703FBEBE70010006408B5FEF73D
:103FC000ADFE90B900210320FFF724FFC8B9FFF729
:103FD0007DF898B900F0B4F968B900F07DFA38B905
:103FE000FFF7BEFFFFF788F8FCE7FEF7E7FAE9E71F
:103FF000FEF7E4FAF4E7FEF7E1FAEEE7FEF7DEFAA1
:10400000E8E7FEF7DBFAE2E70649074A074B9B1AA7
:1040100003DD043BC858D050FBDC00F013F8FEF77A
:104020000FF90000C0490100800B0020EC0B0020BC
:10403000FEE7FEE7FEE7FEE7FEE7FEE7FEE7FEE758
:10404000FEE7FEE730B4A84B1B78062B0FD0A74A3B
:10405000D2F8883043F47003C2F88830BFF34F8F32
:10406000BFF36F8FA24BA34A1A6030BC7047A24BBC
:104070001B681D07EBD1A14B1B6803F0F002302A2F
:1040800000F08D8003F0E003402B00F088809B4B14
:104090001B6803F0F003302B00F00881974B1B687E
:1040A00003F0F002302A6AD003F0E003402B66D020
:1040B000924B1B6803F0F003302B00F005818F4B0F
:1040C0001B6803F0F002302A46D003F0E003402BD7
:1040D00042D08A4B1B6803F0F003302B00F0D880ED
:1040E000864B1B6803F0F003302B00F0BA80834B43
:1040F0001B6803F0F003502B61D0804B1B6803F06A
:10410000F002302A18D003F0E003402B14D07B4B90
:104110001B6803F0F002302A03D003F0E003402BC9
:1041200095D14FF08043D3F80024D20744BF6FF0FD
:104130000102C3F800248AE7714B724A1B6803F03E
:104140004F031360684B1B78062B80D16A4B1B68AA
:1041500019077FF47CAFDAE74FF080430022C3F801
:104160000C21C3F81021C3F838255F4B1B78062BB0
:10417000E8D1614B1B681B077FF469AFA9E7624B6D
:10418000594A1B6812786149C3F34233062A0B600F
:1041900073D1594B1B6819077FF459AF88E75C4B03
:1041A000514A1B6812785B49C3F30423062A0B604B
:1041B000DBD1514B1B681C077FF449AF67E74FF019
:1041C0008053554AD3F80414C2F82015D3F80814C4
:1041D000C2F82415D3F80C14C2F82815D3F810141B
:1041E000C2F82C15D3F81414C2F83015D3F81814EB
:1041F000C2F83415D3F81C14C2F84015D3F82014B3
:10420000C2F84415D3F82414C2F84815D3F828147A
:10421000C2F84C15D3F82C14C2F85015D3F830144A
:10422000C2F85415D3F83414C2F86015D3F8381412
:10423000C2F86415D3F83C14C2F86815D3F84014DA
:104240002948C2F86C15D3F844140378C2F87015E5
:10425000062B7FF4FCAE284B1B6818077FF4F7AEE3
:104260004BE72E4A2E4C2F492F4B0520106001257D
:1042700000203F22256008601A601B4B1B78062B2C
:104280007FF4E5AE1C4B1B681C077FF4E0AE2EE705
:10429000154B264A1B780321062B11607FF4D7AEFD
:1042A000154B1B681D077FF4D2AE19E70E4B204A51
:1042B0001B7820491160062B7FF4C9AE0E4B1B689A
:1042C00018077FF4C4AEE9E61B49074BCA681B78A0
:1042D00022F08072062BCA607FF4B9AE064B1B68D1
:1042E0001A077FF4B4AEEAE6E00F00F000ED00E05C
:1042F000800B00200090D003E40F00F0E80F00F0E6
:1043000058020010E40E0040440200103C0500403A
:10431000240300104035014000C00040105600400A
:10432000885600401856004014560040A005004032
:1043300074C007400DF0ADBAF0ED00E010DF70473B
:1043400070B5394D2B7884B0002B5ED1374E38498B
:10435000012302A83370FEF7F7FE039B002B4AD11E
:10436000344902A8FEF7F0FE039B4BB1D3E90021CC
:104370000020904702A8FEF7F1FE039B002BF5D129
:104380002D4B2E4A1B682E4904A840F80C3DFFF720
:10439000D5FF0446002835D12A4B2B4A187001213D
:1043A000E0233070297082F8163382F8153392F8C2
:1043B00016335B098B422CD9042B2AD0234B9968E6
:1043C00061BB4FF4800313601A4902A8FEF7BCFEDC
:1043D000039BBBB1D3E900210120904702A8FEF75F
:1043E000BDFE039B002BF5D10CE002A8FEF7B6FE44
:1043F000039B002BB4D0D3E9002100209047002874
:10440000F3D10446204604B070BD0824204604B011
:1044100070BD42F20200FEF7D1F8D5E71A6842F407
:1044200080021A60D0E700BF590E0020580E00200D
:104430005049010068490100244901002849010050
:10444000DD2501005A0E002000E100E0DC0E002016
:10445000014B1878704700BF590E002000B583B09B
:1044600068460849FEF770FE019B43B1D3E900207E
:1044700090476846FEF772FE019B002BF6D103B011
:104480005DF804FB5C490100C1DF7047FADF70474B
:1044900010B5104C8EB002AA0DF135010DA8FFF732
:1044A000F3FF88B921466846FEF74EFE019B002BBC
:1044B000F1D0D3E9002102A890476846FEF74EFEEE
:1044C000019B002BF5D1E6E7052801D0FEF776F831
:1044D0000EB010BD8049010000B5064B93E80700FF
:1044E00085B001AB83E807001846FFF7CFFF05B0A2
:1044F0005DF804FB7449010048DF704710B5114CAA
:1045000084B001A8FFF7F8FFA8B9214602A8FEF77A
:104510001BFE039B002BF4D0D3E9002101989047A8
:1045200002A8FEF71BFE039B002BF5D101A8FFF7A5
:10453000E3FF0028E9D0052801D0FEF73FF804B0DA
:1045400010BD00BF8C49010008B5074B044613B1EC
:104550000021AFF30080054B1868836A03B19847C8
:10456000204600F031F800BF00000000984901002B
:1045700070B50D4E0D4CA41BA4100025A54209D109
:104580000B4E0C4C00F0A2F9A41BA4100025A54270
:1045900005D170BD56F8253098470135EEE756F83D
:1045A000253098470135F2E7E40B0020E40B0020AA
:1045B000E40B0020E80B002002440346934200D1A4
:1045C000704703F8011BF9E7FEE700BF53B94AB98A
:1045D000002908BF00281CBF4FF0FF314FF0FF300B
:1045E00000F072B9ADF1080C6DE904CE00F006F8E8
:1045F000DDF804E0DDE9022304B070472DE9F0475F
:10460000089E04468846002B4BD18A42154667D93E
:10461000B2FA82F24AB1C2F1200701FA02F320FA9B
:1046200007F7954047EA030894404FEA154E230CDC
:10463000B8FBFEF71FFA85FC0EFB178843EA084318
:1046400007FB0CF1994209D9EB1807F1FF3080F014
:104650001B81994240F21881023F2B445B1AA4B29D
:10466000B3FBFEF00EFB103344EA034400FB0CFCEA
:10467000A44509D92C1900F1FF3380F00781A44526
:1046800040F2048102382C4440EA0740A4EB0C04B9
:1046900000271EB1D4400023C6E900433946BDE8D7
:1046A000F0878B4209D9002E00F0EB800027C6E985
:1046B000000138463946BDE8F087B3FA83F7002F8A
:1046C00047D18B4202D3824200F2FA80841A61EB16
:1046D000030301209846002EE0D0C6E90048DDE73C
:1046E00002B9FFDEB2FA82F2002A40F08F80491B45
:1046F0004FEA154E1FFA85F80127B1FBFEFC230C8B
:104700000EFB1C1143EA014308FB0CF1994207D947
:10471000EB180CF1FF3002D2994200F2CD808446B2
:10472000591AA3B2B1FBFEF00EFB101443EA044485
:1047300008FB00F8A04507D92C1900F1FF3302D27D
:10474000A04500F2B6801846A4EB080440EA0C40ED
:104750009FE7C7F1200CBB4022FA0CFE4EEA030E85
:1047600001FA07F420FA0CF521FA0CF34FEA1E487F
:104770002543B3FBF8F92C0C08FB19331FFA8EFA0A
:1047800044EA034309FB0AF49C4202FA07F200FAE6
:1047900007F10BD91EEB030309F1FF3080F087808E
:1047A0009C4240F28480A9F1020973441B1BADB204
:1047B000B3FBF8F008FB103345EA034400FB0AFAA8
:1047C000A24508D91EEB040400F1FF336BD2A245C9
:1047D00069D90238744440EA0940A0FB0289A4EB7D
:1047E0000A044C45C2464B4654D351D0002E69D0E2
:1047F000B1EB0A0564EB030404FA0CFCFD40FC4039
:104800004CEA0505C6E90054002747E7C2F120033A
:1048100020FA03F7954001FA02F021FA03F34FEA78
:10482000154E3843010CB3FBFEF71FFA85F80EFB5B
:10483000173341EA034107FB08F38B4204FA02F401
:1048400007D9691807F1FF3C2FD28B422DD9023FBF
:104850002944CB1A81B2B3FBFEF00EFB103341EAC0
:10486000034100FB08F38B4207D9691800F1FF3CB4
:1048700017D28B4215D902382944C91A40EA074792
:104880003BE73746304609E70746E7E61846FBE6CA
:104890004145ABD2B8EB020A69EB0E020138134670
:1048A000A4E76046E9E7184695E76746D1E7814601
:1048B0007CE702382C4447E7ACF1020C2B442FE78D
:1048C000384608E73746E9E6704700BFF8B500BF4D
:1048D000F8BC08BC9E467047F8B500BFF8BC08BCE1
:1048E0009E467047181F1114100C0020A8490100A3
:1048F000A84901000400000006000300613A01001D
:1049000007000300613A010010000300613A010052
:1049100013000300613A0100CC0D0020EC0D0020D3
:10492000200E002001000007333833312D3532319D
:10493000642D376466392D323464382D65666633EC
:104940002D343637622D323235662D6130306500B8
:10495000A8490100A849010008000000A849010079
:10496000B849010008000000A8490100A849010059
:1049700008000000010020005C0E00208000000004
:10498000A0490100A849010008000000A049010059
:10499000A049010008000000840B00200000000076
:0849A000CD3E01000000000003
:1049A8009144010000000000FD44010000000000E7
:0849B80088D8FF7F0100000018
:1049C0000090D00300000000000000000000000084
:1049D00000000000000000000000000000000000D7
:1049E00000000000000000000000000000000000C7
:1049F00000000000000000000000000000000000B7
:104A000000000000000000000000000000000000A6
:104A10000000000000000000000000000000000096
:0C4A20000000000025220100012201001E
:0400000310004009A0
:00000001FF
